:020000040000FA
:0300000002004BB0
:1000130002024300000080FB120054B900030200F7
:1000230045E479967801B800028004F709D8FC7892
:10003300219000577A75BA00028007E493A3F6086B
:10004300DAF912017F12001675D0007581BF020024
:100053001B790122696E7075743A2031312D2D2D73
:100063002D2D3E6C656431206F6E2031302D2D2D8A
:100073002D2D3E6C656431206F66662032312D2D47
:100083002D2D2D3E6C656432206F6E2032302D2D68
:100093002D2D2D3E6C656432206F66660D0A006C53
:1000A300656431206F6E0D0A006C656431206F66E4
:1000B300660D0A006C656432206F6E0D0A006C6574
:1000C3006432206F66660D0A007586C0438640431E
:1000D300A884E5A853F1FE53BEFBE59DA2E650FAC2
:1000E3000078007900800900E82401F8E93400F978
:1000F300C3E894F8E9940140EE75C600E59E70FCF0
:1001030043BE0443FE0143FE0243FE10438F01E559
:10011300F1A2E0500743F430E5F4800543F30CE526
:10012300F3740355C6240AF5C575C2D843868043C4
:10013300C482E5C4D2E922E9FA740A6A7007A2E923
:1001430050FC75C10DA2E950FCC2E9EAF989C1224C
:10015300EEC0E0EFC0E0E9FF7E008009EF2EF8E695
:10016300F912013A0EEF2EF8E670F1D0E0FFD0E07D
:10017300FE2243FE03E5FED290D291220581058142
:1001830005817E007F011200CC12017579211201D5
:10019300538018E58124FFF8E664307007D2917923
:1001A3008B1201534386407F017E0074016F7030D0
:1001B3007896E6602B7896E6640D6017EEC3940399
:1001C30050117896E6C0E0E58124FD2EF8D0E0F6E4
:1001D3000E80027F0374036E70027F0378967600AD
:1001E30074036F70C65386BFA8817600E58124FE31
:1001F300F8E664317026E58124FFF8E6643170097E
:10020300C290796C120153809BE58124FFF8E66468
:10021300307091D29079761201538088E58124FE63
:10022300F8E6643260030201A7E58124FFF8E6647F
:10023300316003020196C29179811201530201A731
:0D024300C0E0E8C28B7896A6C1F8D0E0328A
:040000050000004BAC
:00000001FF
