:020000040000FA
:0300000002004BB0
:100013000202F900000080FB120054B90003020041
:1000230045E479AA7801B800028004F709D8FC787E
:10003300219000577A89BA00028007E493A3F60857
:10004300DAF912019312001675D0007581BF020010
:100053001B7901226C6564206F6E206265657020D8
:100063006F66660D0A006C6564206F6666206265C4
:100073006570206F6E0D0A006C65642062656570A3
:10008300206F6E0D0A006C65642062656570206FD9
:1000930066660D0A006C6564206F6E0D0A006C6560
:1000A30064206F66660D0A0062656570206F6E0DD1
:1000B3000A0062656570206F66660D0A00626565F9
:1000C30070206F66660062656570206F6E006C65F8
:1000D30064206F6666006C6564206F6E007586C071
:1000E30043864043A884E5A853F1FE53BEFBE59D38
:1000F300A2E650FA0078007900800900E82401F8AC
:10010300E93400F9C3E894F8E9940140EE75C600B8
:10011300E59E70FC43BE0443FE0143FE0243FE1012
:10012300438F01E5F1A2E0500743F430E5F4800585
:1001330043F30CE5F3740355C6240AF5C575C2D819
:1001430043868043C482E5C4D2E922E9FA740A6A89
:100153007007A2E950FC75C10DA2E950FCC2E9EA9F
:10016300F989C122EEC0E0EFC0E0E9FF7E0080091B
:10017300EF2EF8E6F912014E0EEF2EF8E670F1D0ED
:10018300E0FFD0E0FE2243FE0FE5FED293C29222AF
:10019300E5812409F5817E007F011200E0120189C7
:1001A300800FE58124F8F91201674386407F017EC1
:1001B3000074016F703078AAE6602B78AAE6640DAC
:1001C3006017EEC39409501178AAE6C0E0E58124D4
:1001D300F72EF8D0E0F60E80027F0374086E7002EB
:1001E3007F0378AA760074036F70C65386BFA88115
:1001F3007600E58124F8F8E66431702AE58124F974
:10020300F8E66431700BD293C292792112016780B0
:1002130099E58124F9F8E66430708FC293D292791C
:10022300331201678084E58124F8F8E66432702B89
:10023300E58124F9F8E66431700BD293D2927945C3
:100243001201678013E58124F9F8E664307009C26E
:1002530093C29279531201670201AD7B067AA3E53B
:100263008124F8F91203068A088B09740065087063
:100273000474006509700AD293796212016702015E
:10028300AD7B067A9BE58124F8F91203068A088B75
:100293000974006508700474006509700AC29379D3
:1002A3006B1201670201AD7B077A93E58124F8F9AC
:1002B3001203068A088B09740065087004740065CC
:1002C30009700AD29279751201670201AD7B087A2F
:1002D3008AE58124F8F91203068A088B09740065FC
:1002E3000870047400650960030201A5C292797F56
:1002F3001201670201ADC0E0E8C28B78AAA6C1F87B
:10030300D0E03280011BEB601CEAF80AE667700854
:10031300E9F809E670EF800DE7FCE6F8ECC398FA1C
:0A032300E49400FB227A007B002224
:040000050000004BAC
:00000001FF
