:020000040000FA
:030000000200A556
:10007B0002024F00000080FB1200AEB90003020029
:10008B009F78219000B17A2BBA00028007E493A3EA
:10009B00F608DAF912022F12007E75D0007581BFB7
:1000AB00020083790122687474703A2F2F77777767
:1000BB002E75702D746563682E636F6D0D0A006964
:1000CB0072646120696E74657272757074210D0AA9
:1000DB0000C8C0E0E9C0E0A9811919E583C7F58321
:1000EB0019E582C7F582EAC0E0EBC0E0ECC0E0EDB9
:1000FB00C0E0EEC0E0EFC0E0C0D0C0F0C020790897
:10010B00E709C0E0D8FAE47374072FF8D0E0F618CB
:10011B00DFFAD020D0F0D0D0D0E0FFD0E0FED0E09E
:10012B00FDD0E0FCD0E0FBD0E0FAD0E0F9D0E0F875
:10013B00D083D082D0E0327586C053F1FE53BEFB24
:10014B00E59DA2E650FA0078007900800900E824CA
:10015B0001F8E93400F9C3E894F8E9940140EE752D
:10016B00C600E59E70FC43BE0443FE0143FE024302
:10017B00FE10438F01E5F1A2E0500743F430E5F4A4
:10018B00800543F30CE5F3740355C6240AF5C575D6
:10019B00C2D843868043C482E5C4D2E922E9FA740B
:1001AB000A6A7007A2E950FC75C10DA2E950FCC2A6
:1001BB00E9EAF989C122EEC0E0EFC0E0E9FF7E0079
:1001CB008009EF2EF8E6F91201A80EEF2EF8E67073
:1001DB00F1D0E0FFD0E0FE227C007D008017E82408
:1001EB0001F8E93400F9C3E89AE99B40F1EC2401EA
:1001FB00FCED3400FDC3EC9405ED94005006780043
:10020B00790080E22243FE03E5FED290D291225385
:10021B00FEFB53F6FB438D04538CFDD2AF439A1078
:10022B00538AFB2212021012014212021A79211276
:10023B0001C1B2917A507BC31201E37A507BC31296
:10024B0001E380EEC0E074011200DC793A1201C1C7
:10025B007404558AC39401400C538AFBB2907AE81C
:0C026B007B031201E3C2EB7F01020113D0
:04000005000000A552
:00000001FF
