:020000040800F2
:1000000088090020A101000869340008F5220008D1
:1000100065340008D9020008353F000800000000E0
:10002000000000000000000000000000D5390008BA
:10003000DD020008000000006D340008D939000816
:10004000BB010008BB010008BB010008BB010008A0
:10005000BB010008BB010008BB010008BB01000890
:10006000BB010008BB010008BB010008BB01000880
:10007000BB010008BB010008BB010008BB01000870
:10008000BB010008BB010008BB010008BB01000860
:10009000BB010008BB010008BB010008BB01000850
:1000A000BB010008BB010008BB010008BB01000840
:1000B000BB0100080000000000000000BB010008B8
:1000C000BB010008BB010008BB010008BB01000820
:1000D0004D370008293F0008BB010008BB0100089C
:1000E000BB010008BB010008000000000000000088
:1000F0000000000000000000000000000000000000
:1001000000000000BB01000800000000BB01000867
:100110000000000000000000BB010008BB01000857
:10012000BB010008BB010008BB010008BB010008BF
:10013000BB010008000000000000000000000000FB
:10014000BB010008BB010008BB0100080000000063
:10015000BB010008BB010008BB010008BB0100088F
:10016000BB010008BB010008BB0100080000000043
:10017000BB010008BB0100080000000000000000F7
:10018000BB010008BB010008BB010008DFF80CD070
:1001900000F090F8004800475D3F00088809002003
:1001A0000648804706480047FEE7FEE7FEE7FEE711
:1001B000FEE7FEE7FEE7FEE7FEE7FEE7DD390008C3
:1001C0008D0100082DE9F05F0546002092469B4610
:1001D00088460646814640241BE02846414647465D
:1001E000224600F056F853465A46C01A914110D3A1
:1001F00011461846224600F03DF82D1A67EB01081B
:100200004F4622460120002100F034F817EB000988
:100210004E41201EA4F10104DFDC484631462A4647
:10022000434600F000B830BCBDE8C09F40EA01037F
:100230009B0703D009E008C9121F08C0042AFAD29C
:1002400003E011F8013B00F8013B521EF9D2704760
:10025000D2B201E000F8012B491EFBD27047002208
:10026000F6E710B513460A4604461946FFF7F0FFB5
:10027000204610BD202A04DB203A00FA02F10020BB
:1002800070479140C2F1200320FA03F319439040D4
:100290007047202A04DB203A21FA02F0002170473F
:1002A00021FA02F3D040C2F12002914008431946DE
:1002B00070470000064C074D06E0E06840F001037F
:1002C00094E8070098471034AC42F6D3FFF762FF7A
:1002D000D0DB0308F0DB0308FEE7000070470000F6
:1002E000EFF3108072B600BFFEE700000A7849788D
:1002F0005E2312FB031144F2DC12C0F6000202EB93
:100300004111A1F50221A1F502612022FFF78EBF64
:10031000014690F82500022818D10868D1E910C3D9
:10032000026822F00E020260026822F001020260FE
:1003300003F01C00012202FA00F0CCF804000020B7
:1003400081F82520002281F8242070470420C8630A
:100350000120002281F824207047000080B590F829
:100360002510022922D10168D0F838E0D0E910C365
:100370000A68BEF1000F22F00E020A600A6822F03D
:1003800001020A6003F01C014FF0010202FA01F1C0
:10039000CCF804104FF0000180F8252080F82410DC
:1003A00001D0F0470021084680BD00BF0421C16391
:1003B000012080BDB0B5044600F0EEF8054640F2DD
:1003C0000400C2F200000078611C18BF044400BFA2
:1003D00000F0E2F8401BA042FAD3B0BD2DE9F04F87
:1003E00082B00D68002D00F0CB8041F2000400F1D6
:1003F0003847C4F6000407224FEAB726A04208BFD8
:100400000422042E38BF4FEAB722002401274FF000
:10041000000E0026009209E00D68013635FA06F25A
:100420000EF1040E04F1020400F0AA8007FA06FBA4
:1004300015EA0B08F0D0D1F804A003220AF0030C4F
:10044000ACF10105A240012D6FEA020910D88268C3
:10045000CD6802EA0902A5402A4382604268CAF3D5
:10046000001522EA0B02B5402A43426006E000BFB5
:10047000BCF1030F02D14FF0030C21E0C2688D687C
:1004800002EA0902A5402A43BCF1020FC26017D15B
:100490006FF0030202EA560202440EF01C030F251D
:1004A000D2F820C005FA03FA0D692CEA0A0C05FA05
:1004B00003F343EA0C031362D1F804A00AF0030C1F
:1004C00002680CFA04F302EA09021A431AF4403FE4
:1004D0000260A1D041F26003C4F202031A6840F244
:1004E000004942F001021A601A68C4F2010902F0E0
:1004F00001020192019A26F003024FF6084A4A448B
:10050000CFF6FF7A52F80AC00EF00C050F23009FB9
:10051000AB402CEA030307FA05F52B4342F80A30F7
:10052000D9F808C04B684CEA0805DA0258BF2CEA33
:10053000080540F20C4CC9F80850C4F2010CDCF874
:1005400000209F0242EA080558BF22EA0805CCF8BD
:100550000050D9F804209D0342EA080758BF22EA58
:100560000807C9F80470D9F80020DB0342EA08073D
:1005700058BF22EA0807C9F8007001274CE700BFFE
:1005800002B000F000B830BCBDE8C08F1823002ACC
:1005900008BF2823C150704740F28450C2F20000C7
:1005A0000068704740F2040040F28451C2F200003B
:1005B000C2F2000100780A68104408607047000029
:1005C00080B5032000F08CF80F2000F009F8002817
:1005D0001CBF012080BD00F029F8002080BD000074
:1005E00070B540F20406C2F200063178E1B104466B
:1005F00040F21000C2F200004FF47A720068B2FBC1
:10060000F1F1B0FBF1F001F055FA0F2C4FF00105BC
:1006100008D838B94FF0FF3021460022002500F0FD
:1006200033F87460284670BD012070BD82B041F27D
:100630005800C4F20200816841F0010181608168C4
:1006400001F0010101910199016841F080510160BF
:10065000006800F080500090009802B070470000E1
:10066000002848BF7047C1B200F01F00012202FA03
:1006700000F04EF20012CEF2000242EAD10121F067
:10068000030108607047000010B54EF60C5CCEF216
:10069000000CDCF80030C3F3022E8EF00704042CAB
:1006A00028BF0424BEF103034FF0FF3E0EFA04F40A
:1006B00038BF0023A14399400EFA03F39A43114334
:1006C00000F00F0200F160430901043A03F56443AE
:1006D0006244002848BF02F10C03197010BD0000ED
:1006E0004EF60C51CEF200010A684FF6FF031A4095
:1006F00060F30A2242F0806040F0FD7008607047AD
:1007000047F20001C4F200010A68B0F5007F02F46C
:10071000C06031D1B0F5007F2CD00868012262F3AF
:100720004A20086040F21000C2F200000068322245
:1007300050434DF68362C4F21B32A0FB0202900CC0
:100740004A69520511D5421C0FD04A6952050CD591
:1007500058B14A69520508D5012806D04A695205A0
:1007600003D50228A0F10400EAD14869400544BF3E
:100770000320704700207047B0F5806FFAD00868FA
:10078000022262F34A2008600020704747F200000E
:10079000C4F20000006800F4C06070472DE9F04327
:1007A00081B00446407841F288070007C4F202078E
:1007B0001ED5606C80B1B0F5400F14D0B0F5000FBD
:1007C00040F0288157F87C0C40F4803047F87C0CCE
:1007D0004FF4000007E000BF201D002102F000FFE1
:1007E000814638B9606C396821F4400108433860AB
:1007F0004FF00009A078800752D557F8300C10F060
:1008000080580BD157F8300C40F0805047F8300C2E
:1008100057F8300C00F080500090009847F2000527
:10082000C4F20005286840F480702860FFF7B4FE29
:10083000064600BF2868C00508D4FFF7ADFE801B40
:100840000228F7D94FF0030921E000BFB9F1000FEA
:100850001DD1B86810F4407011D0A16D88420BD042
:10086000B868B96820F4407041F48031B960B96863
:1008700021F48031B960B860C00740F0D380B86817
:10088000A16D20F4407008434FF00009B860B8F142
:10089000000F05D157F8300C20F0805047F8300C8D
:1008A0002168C80712D1880718D448071ED48806C3
:1008B00024D488052AD4480530D4480636D40806FE
:1008C0003CD4C80542D4080348D459E03868226AA9
:1008D00020F00300104338608807E6D53868626A64
:1008E00020F00C00104338604807E0D53868A26A51
:1008F00020F03000104338608806DAD53868E26AA4
:1009000020F44060104338608805D4D53868E26B25
:1009100020F44020104338604805CED53868226C5A
:1009200020F44010104338604806C8D53868226B60
:1009300020F44050104338600806C2D53868626B16
:1009400020F4404010433860C805BCD53868A26B1D
:1009500020F4403010433860080311D53A68A06C89
:1009600022F040620243B0F1806F3A601ED0B0F1D5
:10097000006F05D157F87C0C40F4801047F87C0CD0
:10098000480327D53A68E06C22F040620243B0F198
:10099000806F3A6016D0B0F1006F1BD157F87C0C15
:1009A00040F4801047F87C0C14E000BF201D0121AA
:1009B00002F016FE2168002818BF81464803E1D4E2
:1009C00008E000BF201D012102F00AFE2168002876
:1009D00018BF8146480410D53868226D20F0405079
:1009E0001043B2F1805F386007D1201D022102F070
:1009F000F7FD2168002818BF8146080405D538682E
:100A0000616D20F0804008433860484601B0BDE881
:100A1000F08300BF4FF00109A07880073FF5EDAEED
:100A20003EE700BFFFF7B8FD064641F288354FF0BC
:100A3000030900BFB86880073FF521AFFFF7ACFDA1
:100A4000801BA842F6D922E72DE9F04381B00028A7
:100A50006BD042F20008C4F202080446D8F8000045
:100A60000D4600F0070088420CD2D8F8000020F0B4
:100A700007002843C8F80000D8F8000000F007007D
:100A8000A84252D1206841F2080910F00201C4F2D4
:100A900002090DD0A268D9F8003003F0F0039A42A1
:100AA00006D9D9F8003023F0F0031A43C9F8002022
:100AB000C2072DD169B1A168D9F8002002F0F00277
:100AC000914206D2D9F8002022F0F0021143C9F871
:100AD0000010D8F8001001F00701A9420CD9D8F88D
:100AE000001021F007012943C8F80010D8F80010C1
:100AF00001F00701A94218D141071BD4000723D4F4
:100B0000D9F80000D9F8041010F00C002CD131E015
:100B1000606800285ED0022800F07E80032840F044
:100B2000818059F8081C890158D4012001B0BDE822
:100B3000F08300BFD9F80010E26821F4E0611143AE
:100B4000C9F800100007DBD5D9F80000216920F4AE
:100B5000605040EAC100C9F80000D9F80000D9F897
:100B6000041010F00C0005D00C2829D101F003016D
:100B7000012925D159F8081C090703D4D9F88C108C
:100B8000090A02E059F8081C090948F6DC7201F06C
:100B90000F01C0F6030252F8211000280A4618BFC0
:100BA00000220C2871D1D9F8040000F003000228BB
:100BB00046D0032804BF41F20021C0F27A0143E08D
:100BC000042857D008285BD141F20022C0F27A02F3
:100BD0005BE000BF59F8081C8907A6D5D9F80010BA
:100BE00021F003010843C9F80000FFF7D5FC0646D1
:100BF00041F28837D9F80000616800F00C00B0EBD2
:100C0000810F15D0FFF7C8FC801BB842F2D9032032
:100C100001B0BDE8F08300BF59F8081C89037FF5D7
:100C200084AFDBE759F8081C49057FF57EAFD5E7AF
:100C3000206800F0020100297FF43DAF49E700BFC2
:100C400042F20041C0F2F401D9F80400D9F80420BE
:100C5000C0F30210C2F306225143D9F80420013038
:100C6000B1FBF0F0C2F34161022202EB4101B0FBA3
:100C7000F1F20AE042F20042C0F2F40205E000BFE5
:100C8000002200210C283FF48EAFD9F8000044F276
:100C9000C411C0F30310C0F60001085C00F01F008F
:100CA00022FA00F140F20800C2F2000040F2100205
:100CB0000068C2F20002116001B0BDE8F043FFF726
:100CC0008FBC000040F2100041F20801C2F20000A7
:100CD000C4F202010068096844F2D412C1F302218F
:100CE000C0F60002515C01F01F01C84070470000CF
:100CF00040F2100041F20801C2F20000C4F2020109
:100D00000068096844F2D412C1F3C221C0F600029F
:100D1000515C01F01F01C8407047000041F20C0116
:100D2000C4F2020151F8040C10F00C02086805D05E
:100D30000C2A29D100F00300012825D151F80C0C10
:100D4000000703D4D1F88800000A02E051F80C0C27
:100D5000000948F6DC7300F00F00C0F6030353F8F7
:100D60002030002A184618BF00200C2A18BF7047F0
:100D7000086800F00300022810D0032804BF41F2E5
:100D80000023C0F27A030DE0042A1FD0082A23D1E1
:100D900041F20020C0F27A00704700BF42F20043E7
:100DA000C0F2F40308680A68C0F30210C2F3062216
:100DB000096801305A43B2FBF0F0C1F341610222ED
:100DC00002EB4101B0FBF1F0704700BF42F200407E
:100DD000C0F2F400704700BF00200023C5E7000008
:100DE0002DE9F04383B0002800F0388341F200067B
:100DF0000446C4F20206B068F168227800F00C09DB
:100E0000D00601F003081DD42078C00700F08180CF
:100E1000B9F1080F76D0B9F10C0F08BFB8F1030F84
:100E200070D06068B0F5803F07D0B0F5A02F40F0DB
:100E30004B82306840F480203060306840F480306D
:100E400030604CE2B9F1000F1ED0B9F10C0F08BFB1
:100E5000B8F1010F18D0A1693068002900F096811F
:100E600040F001003060FFF797FB054630688007CF
:100E700000F19E81FFF790FB401B02284FF003001A
:100E8000F4D903B0BDE8F0833068800703D5A069CA
:100E9000002800F0E382256A3068000700F13E81F7
:100EA000D6F89400000900F0F000854200F23C8181
:100EB0003068B9F1000F40F008003060306820F071
:100EC000F00040EA050030607068E16920F47F407E
:100ED00040EA0120706040F0AF82B06DC00000F1C8
:100EE0004B82B06D40F08050B065B06D00F0805026
:100EF00002900298FFF74AFCB16D21F08051B16574
:100F00003CE200BF3068800303D56068002800F031
:100F1000A582207880072DD5B9F1040F1CD0B9F136
:100F20000C0F08BFB8F1020F16D0E1683068002935
:100F300000F0E48140F480703060FFF72DFB05463F
:100F4000306840050FD4FFF727FB401B02284FF005
:100F50000300F5D995E700BF3068400503D5E06888
:100F6000002800F07B827068216920F0F85040EA88
:100F7000016070602078000760D42078400775D445
:100F80002078800600F1AE80A06A002800F00C8373
:100F9000022840F01F81F068E16A00F003028A42F3
:100FA00040F03081226B6FF00F0300F0700103EB13
:100FB0000212914240F02681616B00F4FE42B2EBD6
:100FC000012F40F01F81A16B00F07842B2EBC16F9E
:100FD00040F01881E26B0023CFF6E07303EA02527F
:100FE00000F4C001A2F50012914240F00B81216C87
:100FF0004FF07E4202EA016100F0C06001F17E41E3
:10100000884240F0FF803068800100F1CD82306876
:1010100040F080703060F06840F08070F060FFF762
:10102000BBFA04463068800100F1BE82FFF7B4FAD3
:10103000001B02284FF00300F4D922E76169D6F8BB
:101040009400002900F08C8040F00100C6F8940064
:10105000FFF7A2FA054600BFD6F8940080078CD4AB
:10106000FFF79AFA401B0228F6D929E1B06D10F07B
:10107000805808D1B06D40F08050B065B06D00F080
:1010800080500090009847F20007C4F200073868CB
:10109000C00513D4386840F480703860FFF77CFADC
:1010A000054600BF3868C00508D4FFF775FA401B35
:1010B00002284FF00300F5D9E3E600BFA06801283D
:1010C00008D0052840F0DE80D6F8900040F00400FB
:1010D000C6F89000D6F8900040F00100C6F89000E5
:1010E000DFE000BF616AD6F89800002900F0B48004
:1010F00040F00100C6F89800FFF74EFA054600BF21
:10110000D6F8980080073FF53FAFFFF745FA401B40
:1011100002284FF00300F3D9B3E600BF306800F0B7
:10112000F00085427FF6C4AEB06DC00000F186804D
:10113000B06D40F08050B065B06D00F0805001900F
:101140000198FFF723FBB16D21F08051B165B0F537
:10115000007F79D0802D40F2E3800320EBE000BFD8
:1011600020F00100C6F89400FFF716FA054600BF0C
:10117000D6F8940080077FF500AFFFF70DFA401B0B
:1011800002284FF00300F3D97BE600BF20F00100F6
:101190003060FFF701FA0546306880077FF534AE0E
:1011A000FFF7FAF9401B02284FF00300F4D968E674
:1011B000306840F0080030603068D4E9072120F042
:1011C000F00008433060706820F47F4040EA02205D
:1011D000706019E6B9F10C0F00F04081306820F022
:1011E00080703060FFF7D8F9044600BF3068800196
:1011F00040F1EE80FFF7D0F9001B02284FF003000A
:10120000F4D93EE6B9F10C0F00F0288130684001B6
:1012100000F12481306820F080703060FFF7BCF965
:1012200005463068800140F18181FFF7B5F9401B28
:1012300002284FF00300F4D923E600BFFFF7A6FA17
:10124000B0F5007F7FF486AF812D73D30120A02DF0
:1012500088BF02206FE000BF20F00100C6F89800B0
:10126000FFF79AF9054600BFD6F8980080077FF58A
:101270008BAEFFF791F9401B02284FF00300F3D922
:10128000FFE500BFD6F89010002821F00101C6F854
:101290009010D6F8901021F00401C6F8901000F0DC
:1012A0007B80FFF779F9054641F28837D6F8900040
:1012B000800700F18380FFF76FF9401BB842F5D932
:1012C000032003B0BDE8F0833168002821F48031A9
:1012D0003160316821F48021316000F08580FFF7B2
:1012E0005BF90546306880033FF513AEFFF754F90C
:1012F000401B64284FF00300F4D9C2E520F480704D
:101300003060FFF749F90546306840057FF532AE99
:10131000FFF742F9401B02284FF00300F4D9B0E573
:10132000A5F17000B0FA80F04009802D08BF0220BE
:1013300001E000BF002042F20001C4F202010A688D
:1013400022F0070202440A60096801F007018142A5
:1013500040F08480306840F0080030603068D4E9A4
:10136000072120F0F00008433060706820F47F40CF
:1013700040EA022070605FE0FFF708FAB0F5007FF6
:1013800006D1812D40D30120A02D88BF022045E049
:10139000802D3BD9032041E0FFF7FEF8054641F2DE
:1013A0008837D6F89000800708D5FFF7F5F8401B7E
:1013B000B8424FF00300F4D963E500BFB8F1000F65
:1013C0007FF4DEADB06D20F08050B065D8E500BF91
:1013D000F0684FF6FC71CFF6EE610840F060002037
:1013E00003B0BDE8F08300BFFFF7D6F805463068CC
:1013F00080037FF58EADFFF7CFF8401B64284FF0D8
:101400000300F4D93DE500BF002007E0A5F170001E
:10141000B0FA80F04009802D08BF022042F200019E
:10142000C4F202010A6822F0070202440A60096855
:1014300001F00701814211D1B068F16810F00C0091
:1014400005D00C282AD101F00301012926D13168E9
:10145000090707D4D6F89410090A05E0012003B063
:10146000BDE8F0833168090948F6DC7201F00F012C
:10147000C0F6030252F8211000280A4618BF0022C5
:101480000C2837D1F06800F00300022810D00328A0
:1014900004BF41F20021C0F27A010DE004281FD000
:1014A000082823D141F20022C0F27A0222E000BFD4
:1014B00042F20041C0F2F401F068F268C0F3021099
:1014C000C2F306225143F2680130B1FBF0F0C2F3DF
:1014D0004161022202EB4101B0FBF1F20AE000BFE0
:1014E00042F20042C0F2F40204E000BF00220021F8
:1014F0000C28C7D0B06844F2C411C0F30310C0F682
:101500000001085C00F01F0022FA00F140F2080020
:10151000C2F2000040F210020068C2F20002116044
:10152000FFF75EF800287FF4ACAC6DE4F06848F299
:101530008C01C0F29D1104F12C0700EA010C8ECF42
:101540006FF00F00D4E90F5400EB02100022CFF629
:10155000E07241EA0C0102EA05520843A2F50012CA
:101560004FF07E4540EA032005EA0465104305F18B
:101570007E4540EAC7602843F060306840F08070E4
:101580003060F06840F08070F060FFF705F80446C6
:101590003068800108D4FEF7FFFF001B02284FF0DF
:1015A0000300F5D96DE400BF002003B0BDE8F0836F
:1015B00070470000B0B582B0044600684168826898
:1015C00012F0400305D112F0010518BF11F04005DB
:1015D00012D1950708D511F0800505D0216D204660
:1015E00002B0BDE8B040084712F4B07F18BF11F058
:1015F000200507D102B0B0BDE16C204602B0BDE8C5
:10160000B0400847BBB194F85D30032B08D10021EE
:101610000191C168019180680190019802B0B0BD4C
:10162000236E43F00403236600230193C3680193F0
:1016300083680193019B12F0200302F4807203D1AE
:101640008AB9226EDAB9D5E7236E43F00103236627
:101650000023019383680193036823F04003036030
:10166000019B002AEDD0226E42F008022266002281
:10167000019282680192019A226E002ABAD04268D1
:10168000890722F0E00242604FF0010284F85D20F9
:1016900020D0416843F26D7521F003014160A06DD7
:1016A000C0F6000538B18563FEF758FE18B1206E0C
:1016B00040F040002066606D00289BD08563FEF7F7
:1016C0004DFE00283FF496AF206E40F040002066AB
:1016D00002B0B0BD204602B0BDE8B040FFF768BF21
:1016E000002804BF01207047B0B50446406A28B105
:1016F0000020206104F1140006E000BF6068B0F52E
:10170000827F03D004F11C00002101600025A56246
:1017100094F85D0020B9204684F85C5000F04EF843
:10172000022084F85D002068D4F80CE00268BEF561
:10173000E06F22F0400202604EF4006298BF012583
:10174000B2F5706F1CBF0023A3624FEA053CD4E9D9
:101750000135D4E9042103F4827305F404452B44D4
:1017600002F002021A44A36901F00101E569114483
:1017700003F40072114405F03802256A114405F0A3
:101780008002A56A114405F400521143016004214E
:10179000626A0EF4706501EA1341636B45EA0C0559
:1017A00002F01002294303F008031143194341607A
:1017B00000200121206684F85D10B0BD2DE9F043C2
:1017C00085B0006843F60001C4F20001884203D0EE
:1017D00005B0BDE8F08300BF41F24C00C4F2020046
:1017E000C16840F2004441F48041C160C168C4F660
:1017F000000401F480410091009901686D4641F0B8
:101800000401016001684FF0020801F00401009139
:10181000009901684FF0000941F002010160006881
:10182000032600F002000090009808200090052791
:1018300004F580602946CDF80480CDF80890039621
:101840000497FEF7CBFD4FF400508DE801032046CE
:101850002946CDE90367FEF7C1FD242000210022BF
:10186000FEF712FF2420FEF7FBFE05B0BDE8F08373
:101870002DE9F04381B0044690F85C00012803D1C3
:10188000022001B0BDE8F0834FF001091D46164665
:101890000F4684F85C90FEF77FFE94F85D100129F6
:1018A00046D18046002F4FF0010018BF002E00F0F7
:1018B000D7800320002184F85D002166A763A687F6
:1018C000E6872164A4F84410A4F84610A068E164F7
:1018D000B0F5004F2068216507D1016821F0400173
:1018E0000160016841F4804101600168490603D448
:1018F000016841F0400101606168731EE268B1FA5D
:1019000081F1B3FA83F349095B09B2F5E06F41EA6B
:1019100003013DD931B137F8021BC160A763E08FE5
:101920000138E087E08F002870D0681C0DD11EE0E0
:10193000022095E0A16B31F8022BC260A163E08F19
:101940000138E087E08F002860D02068816889072F
:10195000F0D4FEF721FEA0EB0800A842F2D303204A
:101960007EE000BFFEF718FEE08F00284ED0206812
:1019700081688907F6D5A16B31F8022BC260A1639B
:10198000E08F0138E087E08F0028F0D13EE000BF13
:1019900089B1E18F02294FF6FE7103D337F8022B8C
:1019A000C26004E03A7801310273A06B471CA76360
:1019B000E08F0844E087E08F40B3681C5DD04FF6AD
:1019C000FE70461C08E000BFFEF7E6FDA0EB080035
:1019D000A8426DD2E08FC8B1216888688007F3D52E
:1019E000E28FA06B022A05D330F8022BCA604FF6B3
:1019F000FE7104E000780873A06B31460130A063EB
:101A0000E08F0844E087E08F0028E5D120464FF4BE
:101A1000C0512A46434601F0B1FE68B92046294626
:101A2000424601F06FFF38B920464FF4C0612A46A4
:101A3000434601F0A3FE28B1206E40F0200020664E
:101A400020202066A06838B9002000902068C16876
:101A50000091806800900098206E002818BF012037
:101A6000002184F85D9084F85C1001B0BDE8F0833B
:101A7000FEF792FDE08F0028C8D0206881688907B2
:101A8000F6D5E28FA16B012A08D931F8022BC2608A
:101A9000A163E08F0238E087ECE700BF09780173AB
:101AA000A06B0130A063E08F0138E087E2E700BF60
:101AB0000320D5E7411E0020B0EB116F1CBF0120B1
:101AC00070474EF21002CEF2000251604EF62351E2
:101AD000CEF20001F0230B70072190601160704777
:101AE000704700007047000070470000B0B5016803
:101AF0000446C8690D6840F62F028B680240202A10
:101B000005F0200E0AD1BEF1000F07D0616E00294A
:101B10003CD02046BDE8B040084700BF40F60F0269
:101B2000104209D040F22012C0F2004203F0010C32
:101B30002A4012EB0C0215D1226E012A05D110F0B9
:101B4000100218BF15F0100222D1C20214D513F4EE
:101B5000800211D04FF4801220460A62BDE8B040E6
:101B6000FFF7C0BFC20718BF15F4807240F08C8128
:101B7000820700F193819CE1010640F1958015F008
:101B8000800100F09180A16E0029C2D1B0BD00BFDC
:101B9000102008628868400600F1BC80B4F8580044
:101BA000B4F85A10B4F85A20002A18BFB0EB01005C
:101BB000ECD0216851E8001F226821F4907142E8BE
:101BC0000013DBB1216851E8001F226821F49071F5
:101BD00042E8001393B1216851E8001F226821F404
:101BE000907142E800134BB1216851E8001F226850
:101BF00021F4907142E80013002BDAD1216851E8FA
:101C0000021F226821F0010142E80213DBB12168C2
:101C100051E8021F226821F0010142E8021393B14A
:101C2000216851E8021F226821F0010142E80213F5
:101C30004BB1216851E8021F226821F0010142E8FE
:101C40000213002BDAD12021E167002121666166B1
:101C5000216851E8001F226821F0100142E80013BA
:101C6000002B00F00B81216851E8001F226821F051
:101C7000100142E80013002B00F00081216851E8B8
:101C8000001F226821F0100142E80013002B00F031
:101C9000F580216851E8001F226821F0100142E818
:101CA0000013002BD4D1E9E040067FF56FAF15F0AB
:101CB000400008BFB0BD00BF206850E8000F216899
:101CC00020F0400041E80002DAB1206850E8000F3F
:101CD000216820F0400041E8000292B1206850E8FD
:101CE000000F216820F0400041E800024AB120685E
:101CF00050E8000F216820F0400041E80002002A6F
:101D0000DAD120200021A0672046A166BDE8B040BE
:101D100000F0EEBA206F01684A6893B2002B3FF4DE
:101D200035AFB4F858008342BFF430AFA4F85A205E
:101D30000968890600F19F80206850E8000F21683B
:101D400020F4807041E80002DAB1206850E8000F0A
:101D5000216820F4807041E8000292B1206850E8C8
:101D6000000F216820F4807041E800024AB1206829
:101D700050E8000F216820F4807041E80002002A3A
:101D8000DAD1206850E8020F216820F0010041E814
:101D90000202C2B3206850E8020F216820F001005F
:101DA00041E802027AB3206850E8020F216820F06F
:101DB000010041E8020232B3206850E8020F2168B6
:101DC00020F0010041E80202002ADAD11BE000BF46
:101DD000206850E8020F216820F0400041E802022C
:101DE000DAB1206850E8020F216820F0400041E895
:101DF000020292B1206850E8020F216820F04000F2
:101E000041E802024AB1206850E8020F216820F040
:101E1000400041E80202002ADAD12020E0670020D9
:101E20002066206850E8000F216820F0100041E88B
:101E30000002DAB1206850E8000F216820F010009D
:101E400041E8000292B1206850E8000F216820F0BC
:101E5000100041E800024AB1206850E8000F2168F4
:101E600020F0100041E80002002ADAD1206FFEF7CE
:101E70004FFAB4F85800B4F85A10401A81B220460C
:101E8000BDE8B040FFF72CBE01220A62D4F88020E2
:101E900042F00102C4F8802082070AD5BCF1000F8D
:101EA00007D002220A62D4F8802042F00402C4F86B
:101EB000802042070AD5BCF1000F07D004220A6235
:101EC000D4F8802042F00202C4F8802002070DD529
:101ED0004EEA0C02B2FA82F2520907D108220A62D3
:101EE000D4F8802042F00802C4F8802002050BD507
:101EF00015F0806208D04FF400620A62D4F88020A6
:101F000042F02002C4F88020D4F88020002A3FF458
:101F10003DAE10F0200018BFBEF1000F40F0C880A9
:101F2000D4F88000896800F0280001F040014018D2
:101F300006D12046FFF7D8FD0020C4F88000B0BDD0
:101F4000206850E8000F216820F4907041E80002FA
:101F5000BAB3206850E8000F216820F4907041E87F
:101F6000000272B3206850E8000F216820F49070DE
:101F700041E800022AB3206850E8000F216820F4ED
:101F8000907041E80002002ADAD11AE0206850E897
:101F9000020F216820F0010041E80202DAB1206856
:101FA00050E8020F216820F0010041E8020292B1DE
:101FB000206850E8020F216820F0010041E8020289
:101FC0004AB1206850E8020F216820F0010041E882
:101FD0000202002ADAD1206E012824D1206850E8BC
:101FE000000F216820F0100041E80002DAB12068FB
:101FF00050E8000F216820F0100041E8000292B183
:10200000206850E8000F216820F0100041E800022D
:102010004AB1206850E8000F216820F0100041E824
:102020000002002ADAD12020E06700202066216823
:1020300060668868400635D5206850E8020F216840
:1020400020F0400041E80202DAB1206850E8020FB7
:10205000216820F0400041E8020292B1206850E877
:10206000020F216820F0400041E802024AB12068D6
:1020700050E8020F216820F0400041E80202002AE7
:10208000DAD1206F70B143F6D921C0F60001816327
:10209000FEF764F900283FF479AD206F816BBDE84D
:1020A000B04008472046BDE8B040FFF71DBD00BF67
:1020B000626E002A3FF434AF2046904721682FE734
:1020C000B0B582B0A0B10446806F28B9002084F872
:1020D0007400204600F056F82420A06720680168AC
:1020E00021F001010160204601F0FEFC012803D12E
:1020F000012002B0B0BD00BF606A10B1204601F0FF
:1021000077FC2068416821F490414160816821F0AA
:102110002A018160016841F0010101600020C4F8DA
:102120008000FEF739FA216805460A6812070CD5C7
:102130006FF07E4C20464FF4001100222B46CDF864
:1021400000C001F0E9FD78B92168086840070FD5A3
:102150006FF07E4C20464FF4800100222B46CDF8D4
:1021600000C001F0D9FD18B1032002B0B0BD00BF1E
:102170002020A067E0670020206684F8740002B089
:10218000B0BD000010B59CB004466846043058212C
:10219000FEF765F8206843F60001C4F201018842A9
:1021A00002D01CB010BD00BF012000906846FEF7B1
:1021B000F5FA002818BFFEF793F841F24C00C4F27C
:1021C0000200416941F480414161416901F480416B
:1021D00017911799016841F001010160006817A982
:1021E00000F00100179017984FF4C060179002207C
:1021F00018900020199003201A9007201B904FF090
:102200009040FEF7EBF8252000210022FEF73CFA73
:102210002520FEF725FA1CB010BD00002DE9F04185
:1022200082B00446806F20280BD10D4600294FF064
:1022300001005AD01746002A57D094F8740001289C
:1022400004D1022002B0BDE8F08100BF012084F873
:1022500074000020C4F8800021209846A067FEF793
:102260009BF9A4F85070A4F85270A1680746B1F524
:10227000805F01D1206918B12E46002501E000BF22
:102280000026002084F874000BE000BF35F8021B24
:1022900000266FF35F210185B4F852000138A4F8DD
:1022A0005200B4F8520078B12046802100223B460B
:1022B000CDF8008001F030FD78B92068002EE5D01F
:1022C00016F8011BE7E700BF2046402100223B46ED
:1022D000CDF8008001F020FD20B1032002B0BDE860
:1022E000F08100BF2020A067002002B0BDE8F0818F
:1022F00070470000FEE700002DE9F04184B040F691
:10230000000405462A20C4F6000417460E468DF840
:1023100005002046402100229846FEF737F90DF1CE
:102320000500012101F018FA280A8DF80600204660
:1023300040210122FEF72AF90DF10600012101F0EA
:102340000BFA2046402101228DF80750FEF71EF9B6
:102350000DF10700012101F0FFF9380A8DF808009E
:10236000204640210122FEF711F902A8012101F0C7
:10237000F3F92046402101228DF80970FEF706F995
:102380000DF10900012101F0E7F92B208DF80A0079
:10239000204640210022FEF7F9F80DF10A00012144
:1023A00001F0DAF9300A8DF80B00204640210122B5
:1023B000FEF7ECF80DF10B00012101F0CDF92046FC
:1023C000402101228DF80C60FEF7E0F803A80121FE
:1023D00001F0C2F94FEA18208DF80D002046402187
:1023E0000122FEF7D3F80DF10D00012101F0B4F93F
:1023F0002046402101228DF80E80FEF7C7F80DF12E
:102400000E00012101F0A8F92C208DF80F002046C4
:1024100040210022FEF7BAF80DF10F00012101F072
:102420009BF904B0BDE8F08170B50446050A0020B0
:102430000021EF22EF230026FFF75EFF40F2041099
:10244000C2F20000811985552436B6F5906F4C70A4
:102450008D70CC700D714C718D71CC710D724C7290
:102460008D72CC720D734C738D73CC730D744C7470
:102470008D74CC740D754C758D75CC750D764C7650
:102480008D76CC760D774C778D77CC7781F8205090
:1024900081F8214081F8225081F82340D2D140F6C2
:1024A0000000C4F6000040210122FEF76FF840F260
:1024B00004140025C2F2000420464FF4906101F09C
:1024C0004BF9632D05F10105F6D370BD2DE9F04FF1
:1024D00089B0CDE9061003201446A0EB42054FF069
:1024E000FF300A260799069BCDE90306461C059591
:1024F000081B0D46991B87B21FFA81F89B46384688
:1025000041463A4643460096FFF7F6FE40F20C017C
:10251000C2F200010888894600BA000CADF822001A
:1025200040F60000C4F6000040210122FEF72EF81C
:102530000DF12200022101F00FF960191FFA80FA53
:102540005046414652464346FFF7D6FEB9F80000D2
:10255000402100BA000CADF8220040F60000C4F69D
:10256000000001228146FEF711F80DF12200022140
:1025700001F0F2F8A81B04EB0B0189B286B23046D9
:1025800032460B465D460191FFF7B6FE40F20C0B5A
:10259000C2F2000BBBF80000402100BA000CADF8FD
:1025A000220048460122FDF7F1FF0DF122094846BD
:1025B000022101F0D1F8384641463A464346029797
:1025C000FFF79AFEBBF8000040F6000800BA000CC6
:1025D000C4F60008ADF82200404640210122FDF774
:1025E000D5FF4846022101F0B7F8281B87B23046D4
:1025F000394632463B46FFF77FFEBBF800004021DC
:1026000000BA000CADF8220040460122C346FDF797
:10261000BDFF4846022101F09FF8DDF800805246D8
:1026200008EB050086B2504631463346FFF764FE9C
:1026300040F20C00C2F200000088402100BA000CF9
:10264000ADF8220058460122FDF7A0FF48460221BE
:1026500001F082F807983946404485B228462A4658
:102660003B46FFF749FE40F20C07C2F200073888EC
:10267000402100BA000CADF8220058460122FDF7B7
:1026800085FF4846022101F067F8019928462A464D
:10269000059D0B46FFF730FE3888402100BA000C3C
:1026A000ADF8220058460122FDF770FF484602218E
:1026B00001F052F80298314602463346049EFFF775
:1026C0001BFE3888402100BA000CADF822005846A5
:1026D0000122FDF75BFF4846022101F03DF8E94386
:1026E000A6EB840004EBE1743146002D58BF011DB8
:1026F0000D4403980799084406990230214480B29A
:1027000089B202460B46FFF7F7FD3888402100BA30
:10271000000CADF8220058460122FDF737FF48466D
:10272000022101F019F804364046A045FFF6DAAE62
:1027300009B000F000B830BCBDE8C08F2DE9F04F03
:1027400083B040F60005C4F60005A5F580604FF49F
:102750000041002201900027FDF718FF2846802144
:102760000022FDF713FF0C20FDF724FE28468021F0
:1027700001220126FDF70AFF0C20FDF71BFE1120A8
:102780008DF80B00284640210022FDF7FFFE0DF1D9
:102790000B00012100F0E0FF0C20FDF70BFE3620BE
:1027A0008DF80B00284640210022FDF7EFFE0DF1C9
:1027B0000B00012100F0D0FF2846402101228DF8B6
:1027C0000B70FDF7E3FE0DF10B00012100F0C4FFDB
:1027D0003A208DF80B00284640210022FDF7D6FE56
:1027E0000DF10B00012100F0B7FF65208DF80B0003
:1027F000284640210122FDF7C9FE0DF10B00012101
:1028000000F0AAFFB2208DF80B00284640210022DC
:10281000FDF7BCFE0DF10B00012100F09DFF0C2423
:102820002846402101228DF80B40FDF7AFFE0DF147
:102830000B00012100F090FF2846402101228DF875
:102840000B40FDF7A3FE0DF10B00012100F084FF0A
:102850002846402101228DF80B70FDF797FE0DF1FF
:102860000B00012100F078FF33242846402101228B
:102870008DF80B40FDF78AFE0DF10B00012100F0F1
:102880006BFF2846402101228DF80B40FDF77EFEAC
:102890000DF10B00012100F05FFFB7208DF80B0058
:1028A000284640210022FDF771FE0DF10B000121A9
:1028B00000F052FF72208DF80B00284640210122C3
:1028C000FDF764FE0DF10B00012100F045FFBB2078
:1028D0008DF80B00284640210022FDF757FE0DF130
:1028E0000B00012100F038FF3D208DF80B00284639
:1028F00040210122FDF74AFE0DF10B00012100F0FD
:102900002BFFC0208DF80B00284640210022FDF748
:102910003DFE0DF10B00012100F01EFF2C208DF873
:102920000B00284640210122FDF730FE0DF10B007F
:10293000012100F011FFC2208DF80B002846402134
:102940000022FDF723FE0DF10B00012100F004FF32
:102950002846402101228DF80B60FDF717FE0DF18E
:102960000B00012100F0F8FEC3208DF80B00284673
:1029700040210022FDF70AFE0DF10B00012100F0BD
:10298000EBFE19208DF80B00284640210122FDF7AF
:10299000FDFD0DF10B00012100F0DEFEC4208DF8DD
:1029A0000B00284640210022FDF7F0FD0DF10B0041
:1029B000012100F0D1FE20208DF80B002846402197
:1029C0000122FDF7E3FD0DF10B00012100F0C4FE33
:1029D000C6208DF80B00284640210022FDF7D6FDC9
:1029E0000DF10B00012100F0B7FE0F208DF80B0058
:1029F000284640210122FDF7C9FD0DF10B00012100
:102A000000F0AAFED0262846402100228DF80B6057
:102A1000FDF7BCFD0DF10B00012100F09DFEA4208F
:102A20008DF80B00284640210122FDF7AFFD0DF186
:102A30000B00012100F090FEA1208DF80B0028462C
:102A400040210122FDF7A2FD0DF10B00012100F054
:102A500083FEE0208DF80B00284640210022FDF780
:102A600095FD0DF10B00012100F076FE2846402176
:102A700001228DF80B60FDF789FD0DF10B0001219E
:102A800000F06AFE04208DF80B0028464021012248
:102A9000FDF77CFD0DF10B00012100F05DFE0D2422
:102AA0002846402101228DF80B40FDF76FFD0DF106
:102AB0000B00012100F050FE4FF011082846402184
:102AC00001228DF80B80FDF761FD0DF10B00012156
:102AD00000F042FE4FF013092846402101228DF8F4
:102AE0000B90FDF753FD0DF10B00012100F034FEBA
:102AF0002B208DF80B00284640210122FDF746FDD2
:102B00000DF10B00012100F027FE4FF03F0A28468F
:102B1000402101228DF80BA0FDF738FD0DF10B00CF
:102B2000012100F019FE54208DF80B0028464021A9
:102B30000122FDF72BFD0DF10B00012100F00CFE31
:102B40004C208DF80B00284640210122FDF71EFD88
:102B50000DF10B00012100F0FFFD18208DF80B0096
:102B6000284640210122FDF711FD0DF10B00012146
:102B700000F0F2FD2846402101228DF80B40FDF7C0
:102B800005FD0DF10B00012100F0E6FD0B208DF895
:102B90000B00284640210122FDF7F8FC0DF10B0047
:102BA000012100F0D9FD1F242846402101228DF883
:102BB0000B40FDF7EBFC0DF10B00012100F0CCFD0B
:102BC0004FF0230B2846402101228DF80BB0FDF772
:102BD000DDFC0DF10B00012100F0BEFDE1208DF8C0
:102BE0000B00284640210022FDF7D0FC0DF10B0020
:102BF000012100F0B1FD2846402101228DF80B6033
:102C0000FDF7C4FC0DF10B00012100F0A5FD04202F
:102C10008DF80B00284640210122FDF7B7FC0DF18D
:102C20000B00012100F098FD0C208DF80B002846C8
:102C300040210122FDF7AAFC0DF10B00012100F05B
:102C40008BFD2846402101228DF80B80FDF79EFC6C
:102C50000DF10B00012100F07FFD284640210122EB
:102C60008DF80B90FDF792FC0DF10B00012100F0A7
:102C700073FD2C208DF80B00284640210122FDF722
:102C800085FC0DF10B00012100F066FD2846402176
:102C900001228DF80BA0FDF779FC0DF10B0001214D
:102CA00000F05AFD44208DF80B00284640210122F7
:102CB000FDF76CFC0DF10B00012100F04DFD5120E2
:102CC0008DF80B00284640210122FDF75FFC0DF135
:102CD0000B00012100F040FD2F208DF80B0028464D
:102CE00040210122FDF752FC0DF10B00012100F003
:102CF00033FD2846402101228DF80B40FDF746FCAC
:102D00000DF10B00012100F027FD28464021012292
:102D10008DF80B40FDF73AFC0DF10B00012100F09E
:102D20001BFD20208DF80B00284640210122FDF7D5
:102D30002DFC0DF10B00012100F00EFD2846402175
:102D400001228DF80BB0FDF721FC0DF10B000121E4
:102D500000F002FD21208DF80B00284640210022C2
:102D6000FDF714FC0DF10B00012100F0F5FC29200A
:102D70008DF80B00284640210022FDF707FC0DF1DD
:102D80000B00012100F0E8FC00200021EF22EF23DE
:102D9000FFF7B2FA00200021EF22EF23FFF7ACFA91
:102DA00040F20416C2F2000630464FF49061FF2252
:102DB000FDF74EFA284640210122FDF7E7FB00BF50
:102DC00030464FF4906100F0C7FC632F07F1010714
:102DD000F6D301984FF400410122FDF7D7FB03B071
:102DE00000F000B830BCBDE8C08F00002DE9F04F06
:102DF00083B01546F022A2EB5302824204D3C3F102
:102E0000F0021C468A4203DA03B000F055BA00BF54
:102E1000660882190B19013A013B92B29BB2FFF787
:102E20006BFAA4F10C00C1B2800140EA9100C1B27A
:102E30000529E9D8A5F12000DFE811F0C400080059
:102E40000600520106000800DEE700BFE10801228B
:102E5000630718BF02EBD4017143CEB2002ED3D06A
:102E6000102CC0B200F07C81202CCDD14AF640411C
:102E7000C0F6030140F6000801EBC01040F218094B
:102E800040F20C0AC4F60008471EC2F20009C2F262
:102E9000000A0DF1060500BF17F9014F4846002C46
:102EA00048BF50460088402100BA000CADF806002B
:102EB00040460122FDF76AFB2846022100F04CFC47
:102EC0006006484648BF50460088402100BA000CC2
:102ED000ADF8060040460122FDF758FB28460221C6
:102EE00000F03AFCA006484648BF50460088402102
:102EF00000BA000CADF8060040460122FDF746FB83
:102F00002846022100F028FCE006484648BF50460B
:102F10000088402100BA000CADF8060040460122AE
:102F2000FDF734FB2846022100F016FC2007484636
:102F300048BF50460088402100BA000CADF806009A
:102F400040460122FDF722FB2846022100F004FC46
:102F50006007484648BF50460088402100BA000C30
:102F6000ADF8060040460122FDF710FB284602217D
:102F700000F0F2FBA007484648BF504600884021B9
:102F800000BA000CADF8060040460122FDF7FEFA3B
:102F90002846022100F0E0FBE007504608BF484603
:102FA0000088402100BA000CADF80600404601221E
:102FB000FDF7ECFA2846022100F0CEFB013E7FF43B
:102FC0006BAF21E714F0FE063FF41EAFC1B249001B
:102FD00051FA80F049F20C01C0F6030140F60008F6
:102FE00001EB800040F2180A40F20C09C4F6000818
:102FF000471EC2F2000AC2F2000902AD17F9014FE2
:103000005046002C48BF48460088402100BA000CBA
:10301000ADF8080040460122FDF7B8FA2846022123
:1030200000F09AFB6006504648BF484600884021A1
:1030300000BA000CADF8080040460122FDF7A6FAE0
:103040002846022100F088FBA006504648BF4846AB
:103050000088402100BA000CADF80800404601226B
:10306000FDF794FA2846022100F076FBE006504670
:1030700048BF48460088402100BA000CADF808005F
:1030800040460122FDF782FA2846022100F064FB47
:103090002007504648BF48460088402100BA000C2F
:1030A000ADF8080040460122FDF770FA28460221DB
:1030B00000F052FB6007504648BF48460088402158
:1030C00000BA000CADF8080040460122FDF75EFA98
:1030D0002846022100F040FB013E8FD194E600BF5C
:1030E000C0B249F6702140F6000A00EB4000C0F67D
:1030F000030140F2180B40F20C06C4F6000A4FF030
:10310000000901EB0018C2F2000BC2F200060DF13B
:103110000A0500BF18F8094004275FEAC97008BF14
:10312000082700BF60B20028584648BF30460088D4
:10313000402100BA000CADF80A0050460122FDF70C
:1031400025FA2846022100F007FB013F4FEA44041C
:10315000E8D109F10109B9F1300FDBD154E600BF24
:1031600049F28041C0F6030140F6000801EB00106F
:1031700040F2180940F20C0AC4F60008471EC2F2D9
:103180000009C2F2000A0DF1060500BF17F9014F50
:103190004846002C48BF50460088402100BA000C29
:1031A000ADF8060040460122FDF7F0F9284602215D
:1031B00000F0D2FA6006484648BF504600884021D9
:1031C00000BA000CADF8060040460122FDF7DEF91A
:1031D0002846022100F0C0FAA006484648BF5046E3
:1031E0000088402100BA000CADF8060040460122DC
:1031F000FDF7CCF92846022100F0AEFAE006484679
:1032000048BF50460088402100BA000CADF80600C7
:1032100040460122FDF7BAF92846022100F09CFA47
:103220002007484648BF50460088402100BA000C9D
:10323000ADF8060040460122FDF7A8F92846022114
:1032400000F08AFA6007484648BF5046008840218F
:1032500000BA000CADF8060040460122FDF796F9D1
:103260002846022100F078FAA007484648BF504699
:103270000088402100BA000CADF80600404601224B
:10328000FDF784F92846022100F066FAE00750466F
:1032900008BF48460088402100BA000CADF806007F
:1032A00040460122FDF772F92846022100F054FA47
:1032B000013E7FF46BAFA7E530BCBDE8C08F0000D6
:1032C0002DE9F04F81B00B9F0C463E78A6F120010E
:1032D000C9B25E2927D80A9D8046104419196A0888
:1032E00001371FFA80F91FFA81FBC246009200BF26
:1032F0001FFA8AF0484528BF2C44A1B2594512D282
:10330000484528BF5FFA88FA1FFA8AF0F2B22B46C6
:10331000FFF76CFD17F8016BA6F12000C0B25F2823
:1033200000988244E4D301B000F000B830BCBDE89E
:10333000C08F00002DE9F04387B0002741F24C0018
:103340000697C4F20200016840F2004941F004010E
:1033500001600168C4F6000901F0040101910199BE
:10336000016809F5806541F00201016001680022F1
:1033700001F002010191019901684FF4035641F0F7
:103380000101016000684FF4035100F00100019059
:1033900001982846FDF7FAF848464FF4004100220C
:1033A0004FF40048FDF7F2F8029602AE01242846D9
:1033B0003146CDE903470597FDF710F848463146F9
:1033C000CDE90284CDE90477FDF708F807B0BDE840
:1033D000F0830000B0B540F21C0043F60001C2F2D9
:1033E0000000C4F200014FF4827200234FF4E06C3D
:1033F0004FF0020E01244FF4007580E80E500721B3
:10340000C0E90545C361C0E90833C0E90A31C0E934
:103410000C33FEF765F9002808BFB0BDBDE8B04029
:10342000FCF75EBF80B540F2800043F60001C2F2B7
:103430000000C4F2010100234FF00C0C4FF4E13204
:1034400080E80E00C0E90333C0E905C3C0E90733D3
:103450004362FEF735FE002808BF80BDBDE880400E
:10346000FCF73EBFFEE70000FEE7000070470000EB
:103470002DE9F04F8BB0019183460DF10A00114602
:103480001F46FCF733FF002F3CD040F20C094FF0F1
:103490000008C2F200090DF12A0A05E008F101084E
:1034A000B8F1100F00F080800DF10A0030F818001C
:1034B00008EB0B0546BA00270F2404E0013C601C12
:1034C00007F10107EAD026FA04F0C007F6D0019808
:1034D000A9B2384480B202460B46FEF70DFFB9F898
:1034E0000000402100BA000CADF82A0040F60000B0
:1034F000C4F600000122FDF749F85046022100F011
:103500002BF9DBE740F20C0500210DF12A07C2F28E
:103510000005CDF800B005E03146711CDDF800B0C3
:10352000102941D00DF10A0030F811000E4690FA32
:1035300090F801EB0B094FF0000A4FF00F0B22E05F
:1035400040F21801C2F200010C8880B21FFA89F122
:1035500002460B46FEF7D0FE20BA000CADF82A005A
:1035600040F60000C4F6000040210122FDF70EF8ED
:103570003846022100F0F0F8ABF1010B1BF101001D
:103580000AF1010AC8D028FA0BF0C007019850448C
:10359000D6D080B21FFA89F102460B46FEF7ACFE88
:1035A000288800BAD9E700BF0BB000F000B830BCE3
:1035B000BDE8C08FF0B581B0154612786AB11C46DF
:1035C0000E460746B9B230462A462346FFF750FF5B
:1035D00015F8020F10370028F4D101B0F0BD00003B
:1035E000F0B581B041F20007C4F20207FA680D4657
:1035F0009107044614D0F868216800F0030088425F
:103600004FF0010040F09F80002900F09C80F86896
:103610006168C0F302100130884232D134E000BF4B
:10362000206803280CD0022816D0012829D1396837
:10363000012211F0020182EA510116D120E000BFFF
:103640003968890310D43968012211F4802182EA93
:1036500091410AD114E000BF3968012211F4806160
:1036600082EA912101D10BE00021FA6863686FF0D2
:103670000F0622F0730206EB03131A431043F8609F
:1036800011B1012001B0F0BD386820F080603860D1
:10369000FCF782FF064600BF3868000106D5FCF73C
:1036A0007BFF801B0228F7D944E000BF012D0DD01D
:1036B000F5B9386948F2FF01C0F2FF710840D4E95A
:1036C000021240EA012040EAC26022E048F2FF0113
:1036D0003869CFF6FF112269002301F1B461CFF6FA
:1036E000E0730840A16803EA0252A2F500120DE05F
:1036F000386948F2FF016269CFF6FF114FF07E434F
:103700000840A16803EA026202F17E4240EA012019
:1037100010433861386840F080603860FCF73CFF47
:10372000054600BF3868000108D4FCF735FF401B90
:103730000228F7D9032001B0F0BD00BFA0693969A4
:1037400008433861002001B0F0BD000040F21C00C9
:10375000C2F20000FDF72EBF0A46014640F21C00EF
:10376000C2F20000FF23FEF783B80000806A002148
:10377000A0F84610C187FDF71BBF00002DE9F047F8
:1037800082B000261F4690460D4681468DF80360A4
:10379000FCF702FF381A00EB0807FCF7FDFE40F2C9
:1037A0001001C2F20001096823225143090DD9F822
:1037B000004079430191A168294271D0824618F1F5
:1037C000010037D0B5F5C06F1CD100BF207B8DF84C
:1037D00003009DF80300FCF7DFFEA0EB0A00B842EF
:1037E00062D2019801990028A1F101010191D9F853
:1037F0000010896808BF074611F4C06FE6D10026A3
:103800004EE000BFFCF7C8FEA0EB0A00B8424BD266
:10381000019801990028A1F101010191D9F8001046
:10382000896808BF07462942ECD10026304602B01D
:10383000BDE8F0870026B5F5C06F25D1207B8DF857
:1038400003009DF80300A06810F4C06FEDD0207B4A
:103850008DF803009DF80300A06810F4C06FE4D059
:10386000207B8DF803009DF80300A06810F4C06F62
:10387000DBD0207B8DF803009DF80300A06810F4D6
:10388000C06FDBD10CE000BFA0682842CDD0A0689B
:103890002842CAD0A0682842C7D0A0682842F3D1E5
:1038A000304602B0BDE8F087D9E900014268B1F5C1
:1038B000827F22F0E00242600BD1D9F80810B1F506
:1038C000004F02D0B1F5806F03D1016821F04001B3
:1038D0000160D9F82810B1F5005F07D1016821F423
:1038E00000510160016841F400510160012089F834
:1038F0005D00002089F85C000326304602B0BDE878
:10390000F0870000F0B581B015460E460446FCF77E
:1039100043FE281A8719FCF73FFE40F21001C2F25D
:1039200000010968C1F3CB317943009121688A68AD
:10393000120622D50546701C15D000BFFCF72CFEE0
:10394000401BB8421CD2009800990028A1F1010147
:1039500000912168896808BF07460806EED40CE08C
:103960008868000609D58868000606D588680006BC
:1039700044BF88685FEA0060F2D4002001B0F0BD67
:10398000D4E900014268B1F5827F22F0E002426092
:103990000AD1A168B1F5004F02D0B1F5806F03D113
:1039A000016821F040010160A16AB1F5005F07D113
:1039B000016821F400510160016841F40051016087
:1039C000012084F85D00002084F85C00032001B031
:1039D000F0BD000070470000FCF7E4BD4EF68850D3
:1039E000CEF20000016841F47001016070470000F0
:1039F00080B5416ACA070DD18A0716D44A071FD479
:103A00000A0728D4CA0631D48A063AD44A0658D5B9
:103A100042E000BF0268D0F828C0536823F40033A6
:103A200043EA0C0353608A07E8D50268D0F82CC03B
:103A3000536823F4803343EA0C0353604A07DFD50D
:103A40000268D0F830C0536823F4802343EA0C03A3
:103A500053600A07D6D50268D0F834C0536823F4FF
:103A6000004343EA0C035360CA06CDD50268D0F880
:103A700038C0936823F4805343EA0C0393608A06AA
:103A8000C4D50268D0F83CC0936823F4005343EADD
:103A90000C0393604A0614D50268D0F840C05368FE
:103AA000BCF5801F23F4801343EA0C03536008D154
:103AB000D2F804C0D0F844E02CF4C00343EA0E036B
:103AC0005360090658BF80BD0168806C4A6822F4C3
:103AD00000221043486080BD806A0021A0F85A107F
:103AE000A0F85210FEF700B8B0B5054605F108047D
:103AF0001ECC0068194341EA0403D5F81CE00468B1
:103B000046F6F311CEF6FF712140194341EA0E014A
:103B10000160416848F2000C21F4405111434160BA
:103B2000AA69C4F2000C60451CBF296A0A43816877
:103B3000102321F430611143816047F6FF71C4F214
:103B40000001884212DC44F20041C4F200018842C4
:103B50001CD044F60001C4F2000188422CD141F28D
:103B60008801C4F2020109680B091DE0604515D007
:103B700043F60001C4F2010188421DD141F28801DF
:103B8000C4F202010B6860A212E000BF41F288019A
:103B9000C4F2020109688B0806E000BF41F2880107
:103BA000C4F2020109688B0A4DF6C032C0F6030266
:103BB00003F0030152F82130604542F20040C0F2A8
:103BC000F40015D0BEF5004F22D1082B4FF00101B3
:103BD00000F29580DFE803F00654609358939393C6
:103BE0005E0000BFFDF76EF8002855D14FE000BF22
:103BF000082B4FF0010100F28280DFE803F005801E
:103C000023801B8080802100FDF75CF8D0B914E090
:103C1000082B4FF0010100F27280DFE803F005533A
:103C20005F70577070705D00FDF74CF8002855D13B
:103C30004FE000BFFDF772F820B900215FE000BF40
:103C40004FF400406A6802EB420188424FF00101E4
:103C500055D31303984252D8010E000210EB5200C4
:103C600041F100010023FCF7ADFA4FF60052A0F538
:103C70004071C0F20F0291423BD301213FE000BFEF
:103C8000FDF736F840B902E0FDF748F820B9002109
:103C900035E000BF4FF4004069684A0802EB40007D
:103CA000B0FBF1F04FF6EF72A0F11001914207D88E
:103CB0004FF6F0710140C0F34200084419E000BF24
:103CC00001211CE0FDF714F840B902E0FDF726F8E9
:103CD00020B9002113E000BF4FF4004069684FF69F
:103CE000EF7200EB5100B0FBF1F0A0F11001914236
:103CF00004D82968C860002101E000BF012100222A
:103D000008466A66AA66B0BD010000000400000013
:103D100002000000080000002DE9F04104460068A0
:103D20001546C2690E461140891BB1FA81F1490955
:103D3000A94240F0A080DDF81880B8F1000F29D02A
:103D400018F1010140F08080C1693140891BB1FA4E
:103D500081F14909A94240F08E80C1693140891B37
:103D6000B1FA81F14909A94240F08580C169314029
:103D7000891BB1FA81F14909A9427CD1C16931405D
:103D8000891BB1FA81F14909A942DDD00020BDE8C3
:103D9000F08100BFFCF700FC206850E8000F2168AC
:103DA00020F4D07041E80002BAB3206850E8000F58
:103DB000216820F4D07041E8000272B3206850E816
:103DC000000F216820F4D07041E800022AB3206877
:103DD00050E8000F216820F4D07041E80002002A6A
:103DE000DAD11AE0206850E8020F216820F00100C3
:103DF00041E80202DAB1206850E8020F216820F0A1
:103E0000010041E8020292B1206850E8020F2168E7
:103E100020F0010041E802024AB1206850E8020F98
:103E2000216820F0010041E80202002ADAD12020B6
:103E3000A06704F17C0020210160002084F8740058
:103E40000320BDE8F08100BF1F4600BFFCF7A4FBC4
:103E5000C01B4045A0D820680168490744BFC1691C
:103E60005FEA01510AD4C0693040801BB0FA80F08B
:103E70004009A842EAD00020BDE8F0814FF400617B
:103E8000016200BF206850E8000F216820F4D07064
:103E900041E80002BAB3206850E8000F216820F41E
:103EA000D07041E8000272B3206850E8000F21682A
:103EB00020F4D07041E800022AB3206850E8000FD7
:103EC000216820F4D07041E80002002ADAD11AE01B
:103ED000206850E8020F216820F0010041E802024A
:103EE000DAB1206850E8020F216820F0010041E8B3
:103EF000020292B1206850E8020F216820F0010010
:103F000041E802024AB1206850E8020F216820F01F
:103F1000010041E80202002ADAD12020A067E06710
:103F200004F1800087E7000040F28000C2F2000048
:103F3000FDF7DCBDFEE7000080B582B08DF807001C
:103F400040F28000C2F200000DF1070101224FF69D
:103F5000FF73FEF763F9002002B080BD98B0FCF754
:103F60002FFB07A804302421FCF779F94FF40070E7
:103F7000FCF7C6FB20B1EFF3108072B6FEE700BF7E
:103F800010206021079001200F9102210D90CDE9B2
:103F9000111013902820149007200024CDE915015A
:103FA00007A80E941791FCF71BFF28B1EFF31080C0
:103FB00072B600BFFEE700BF0F2002900320CDE9DC
:103FC000030402A80421CDE90544FCF73DFD28B116
:103FD000EFF3108072B600BFFEE700BF40F60004AA
:103FE000C4F60004FFF7A6F9FFF7F4F9FFF71AFA91
:103FF0003BA000F0ADF8FEF7A1FB20270FF21C1B41
:104000004FF018080FF224190FF22C1A4DA600BF1A
:104010000020FEF709FA05200A21F022202335A509
:1040200000970195FFF74CF9102000900A203221EB
:10403000F022102333A50195FFF742F90A204A2107
:10404000F0221823CDF80080CDF804B0FFF738F93E
:104050000A206A21F02220230097CDF80490FFF770
:104060002FF90A20962152460023FFF7A3FA304683
:1040700000F096F820464FF400510122FCF786FA32
:104080004FF47A70FCF796F91F20FEF7CDF97820EF
:1040900078216422FEF71AFA782078215022FEF760
:1040A00015FA782078213C22FEF710FA7820782142
:1040B0002822FEF70BFA782078211422FEF706FA60
:1040C000782078210122FEF701FA20464FF40051B2
:1040D0000022FCF75BFA4FF47A70FCF76BF997E774
:1040E00057656C636F6D20746F2053544D33324CA1
:1040F00034210000426561725069204C434454658C
:104100007374000057656C636F6D6520746F204990
:104110006F5420436C75422100000000746F2049E9
:104120006F5420436C75622100000000496F5420D9
:10413000436C75422100000048696D6D656C626CCE
:104140006575000048696D6D656C626C65750D0084
:10415000014A024900F013B8393F0008000000206E
:1041600002E008C8121F08C1002AFAD17047704740
:10417000002001E001C1121F002AFBD170472DE988
:10418000F04116460F460446002503E03946B04785
:10419000641C6D1C20780028F8D12846BDE8F08109
:1041A00010B5044601E0FFF7C7FE14F8010B0449FF
:1041B0000028F8D1BDE810400A20FFF7BDBE00007E
:1041C00000000020000000000000000001020304C5
:1041D0000607080900000000010203040000F77E42
:1041E0009504950496749654955495549554F554A5
:1041F00097740404040404040414040800007BFEFF
:1042000048085008600853E84A284A284A286BE8BA
:1042100050084008400840084028401010401068EE
:10422000108411FE1084FD0011FC1220142013FED6
:1042300010201C50E0884106060400001040104089
:10424000108811FCFC04108014FC19203020D7FECB
:104250001020106010501088510E2604011001101B
:10426000F9108FFE891088008910891088A0F8A0A5
:10427000884000A001100218040E08040080008885
:10428000F10493FE9104920093FC9440F84097FE51
:10429000804000A001100208040E08040100008004
:1042A0007FFE00001FF0101010101FF012100538D4
:1042B00008E0184068300A1E0C080800104012443C
:1042C00022447A444BFC48004BF8780848084BF8E5
:1042D0004A087A004A02420201FE00000100008002
:1042E0003FFE2000A3F8620823F820006FBEA8A2BA
:1042F0002FBE20402444444447FC84040420FFFE95
:10430000042023F8120813F80208E3F8240027FC1D
:104310002C4434A42D1437E420140008401C43E03E
:10432000782053FE507090A8FD26126010402BFE9E
:1043300028904590407080D8070400000440044055
:10434000FFFE04400440082008300420044002809E
:104350000100028004400830300EC00401FCFD045E
:1043600011FC110421FC20007BFE6808A8082BFE2C
:1043700028082888384828482028001000F83F904E
:10438000121009203FFE220242003FFC040007F009
:104390000C200B4010C063308C0E300402107910DA
:1043A000492057FE6000611051084A0448006FF828
:1043B00055284528452845285FFE400028402820EC
:1043C000FFFE2904382010207C4055FE54487C888C
:1043D0001050FE2010501188160C100408000FFC1D
:1043E00010002FF800007FF8081004107FD04090D4
:1043F0000810FFD0190A060A0D067082020001009B
:104400003FFE2004440806000400FFFE08200820A8
:1044100008400680010006C01838E010108018809F
:1044200017FC212032106488BFF6249027F02490D6
:10443000249027F024822082207E0000104010204B
:10444000102013FEFE04104014401BFE3088D110D3
:10445000119010601058118E56042000004000206A
:104460007BFC4910489048A07FFE480049F8490865
:1044700079F84908010801F801080000008010845B
:1044800010841FFC00003FFE20002FFC20802080B5
:104490003FFE208020804080808000800040782087
:1044A0004BFE4A044C8878C048804BFC7888490809
:1044B000489048604850488C690692040200010008
:1044C0003FFC220804407FFC0C8003801E6001201A
:1044D0007FFE03400D30710E0104010000403C20BE
:1044E000242027FE3C0024F024903C90249024902B
:1044F0002490249044925492890E02001FF81008D0
:104500001FF810081FF80000060038FC20842084E3
:104510002884309420880080008000800100010001
:104520001FF011101110FFFE0280044008303FFE02
:10453000D294129012901290FFFE000000007C7C3A
:104540004444444444444444444447C44004400430
:10455000400440047FFC4004400400000820083070
:104560007F2008403E7E08C8FF48104810281E28BB
:10457000121022102228424E8B84040010407E60CC
:1045800010447EFE1088FF8811503E30243024589D
:104590005C8E8904288824446666422210007DDCF3
:1045A00044447C4446647D541154FE4428CC455414
:1045B0009264FE4410441044115410884000307836
:1045C00023C00040F840084013FC144038A056A017
:1045D00094901110110812061204140012101A18E7
:1045E00017D0221027BE6224AFE424142414278895
:1045F0002488249428942BA63144000002003FF81C
:104600002108292825483FF8238825682928010002
:104610007FFE028004400830300EC004204020801D
:1046200027FC2554B4E4AFF4A4C4256426542040E8
:104630002FFE204020A023102C0E200040802100BF
:1046400027F806A885C857F814C825A826A82488DE
:10465000DFFE40C041204610580E000004400440D8
:10466000FFFE044004401FF01110111011101FF044
:1046700010001004100410060FFC0000200223C2DA
:104680002242224AFA4A23CA290A310A67CAA14A9F
:10469000214A224222422442A94A408410001000AA
:1046A00010101090FC90109018903090D1101108BC
:1046B000110812081204540628040000004000608B
:1046C000F940894089408940892089208A20FA1050
:1046D0008A10040804080806100420000000FBFEED
:1046E0008A228A228A228A228BFE8A02FA008A0081
:1046F000820002000202020201FE000020403F7E12
:104700004850448885083FFC2084208420843FFC56
:1047100020002002200220021FFE000000000040B6
:1047200004600640044004400440082008201010A3
:1047300010102008400E80040000000001000080DE
:104740001FFE1000900057FC54441444344457FC9E
:10475000940024002402440243FE800000003FF83D
:1047600021082108210821083FF820082000200006
:1047700020002004200420061FFC00001080109060
:104780001088FC8013FE108014FC18883148D1502A
:10479000113012201250148E5B04200000407C5017
:1047A0004448444847FE7C4010FC10845C8850C854
:1047B00051505D207250C48C09060204240024FC70
:1047C000FEA424A43CA410A47CFC548054807C80CF
:1047D0001080FE8210821082107E1000100011FCEA
:1047E00011241124FD24112415FC19003100D100DD
:1047F000110011001102110250FE200010001000E3
:104800007DFC11247D2411241124FDFC3900350088
:10481000570055009102110210FE1000100011FC0B
:10482000110411241124FD24112411241124112414
:1048300014501850E0884086010402003FF801003F
:104840007FFE695415280000247CFF44247C7F44AB
:10485000497C7F440844FF84089409083FFC2444B1
:1048600024443FFC210401003FF801000100FFFE49
:104870000200042008103FF8101000000420081067
:10488000142C2244018002600C1E3FF4D110111040
:104890001FF01000100410040FFC000002000200C2
:1048A00004003FF820082008200820083FF82008CE
:1048B0002008200820083FF82008000010201020C1
:1048C0001040FDFC110431043904350455FC510439
:1048D000910411041104110411FC11040000FFFEE5
:1048E000030002001FF01010101010101FF0101025
:1048F00010101010101010101FF01010100013FCEA
:104900001294FE94129413FC14401BFC3040D040CF
:1049100017FE10801108120457FE200410001BFE21
:1049200010403040208063FCA204220423FC2204B7
:104930002204220423FC22042204000000403E60E2
:10494000224022802AFE2B882A882A882A50085052
:104950001420122023502288410E0204060078FE03
:104960000810087C3E100810087C7F10081008FE14
:104970001010101020104010801000100C207040FB
:1049800011FC1124FD2411FC3924354455FC50A0A0
:10499000912017FE10201020102010200000FA7E19
:1049A00021102FD024902490FA90237C2110219064
:1049B000229022903490C81030FE00000100F97E51
:1049C0002110211021102510FD7E25102910211005
:1049D00021103A10C21004FE080010002100223CF1
:1049E00027A4FCA426A42DA634C06FFEA4A226945E
:1049F00025942488289828A6B2C44100200023FCCE
:104A000022002200FA0023FC2B0832886290A25078
:104A1000222024602498290EB6044000080010F8D3
:104A20003C88248834882C882506FE0025FC3488A0
:104A30002C90246024604490550E8A04100029FEB6
:104A40002420244042FC4284BCA414A414A414A432
:104A500024A424A42450548C8B040000101C11E0C6
:104A600011001100FD0011FC3984354855485230C1
:104A7000921012301448108E11040000001C49E0FE
:104A8000490049007F0041FC4188798849504950DC
:104A900049204A304A504488890E02041040104090
:104AA0001060FCA0111015081A0635F8D08810887F
:104AB00010881108110812085428201010401040C6
:104AC0001248FD4C115013FC184010403040D7FEE6
:104AD0001040104010401040504020400840084016
:104AE0001448134C225077FCA040204020402FFE59
:104AF000204020402040204020400000401020C89E
:104B0000FB3E158455941594FD7E25482548757EF9
:104B10002548252849A849189008000001002110BF
:104B200019180D20094001083FFC01000100010493
:104B30007FFE0100010001000100010002000200EF
:104B400002207FF002200220223024282424442640
:104B500088240820102020A04040000010201020B1
:104B6000112420A420A849FCF0201020202043FE7E
:104B7000F820002000201C20E02000200800087EF3
:104B8000FF44084808487E5008480844FF4208424D
:104B900008421052104C20404040004004003FBEEC
:104BA00004243FA804287FA4043208AC10A02FF8E6
:104BB0004888088808A80890008000801100111E0D
:104BC000111217D2FD1411143BD83518511457D2B5
:104BD0009112121A121414101810101010401020F4
:104BE00013FCFC90106033FE3A44542053FC904078
:104BF00010781088108811081228141000407820AE
:104C00004BFE488878504BFE4A4448207BFC488045
:104C100048F8488848884908A92892101100111EB0
:104C200027D221124914F11417D821144112F7F296
:104C30000112011A3214C210041008102040204042
:104C400027FC2040FBF8208077FE6920A258ADF6B3
:104C5000204027FC204020402040204000407C2075
:104C600013FC1108109023FE3E426420A7FC248010
:104C700024F824883D082508225004201020102004
:104C800010207FFE5220522053FE7E20522053FEE1
:104C9000142012201F20F22040200020104010205D
:104CA0003DFC20884050BBFE12441020FDFE104009
:104CB00010781088148819281210000010801840ED
:104CC00017FC2210212467FEA484284827FC210019
:104CD00021F82108220822282410000040802040CA
:104CE00037FC2108009007FEE884204027FC208044
:104CF00020F821082908320824280810044004401C
:104D0000FFFE144010001FF8200820085F8810885C
:104D10001F881028101210020FFE0000008078C0BB
:104D2000490049FC7A044C0449E44924792449E4C3
:104D30004904491C490A490248FE980008000C0031
:104D400008081FFC100820085FC8904810481FC8BA
:104D500010081028101210020FFE000001007FFE44
:104D600010001BF0321063F0A0402FFE20E0235013
:104D70002D4C03100CA078600C1C080800047F0464
:104D800001043F240124FFA4042424A415240E2498
:104D90001524E4A444840404141408080440FFFE09
:104DA0000450444837FE204083F8724853F81248B4
:104DB00023F8E2483FFE2110211020301FF80100A7
:104DC0007FFE41041D7001001C7008001FF82008C0
:104DD0005F8810A81F9210020FFE000010001BF841
:104DE00012082208320863F8A0402FFE20E021605C
:104DF00021502258244E28442040000010001BF867
:104E0000120823F87040AFFE20E02150224E2444C7
:104E100001003FFC01000100FFFE00001080108037
:104E200020803EFC25044A0451E49124112411E41D
:104E3000110C11001502190210FE00000200010001
:104E40007FFE400480083FF80100010001001FF8C8
:104E500001400120013001207FFE000011001100FF
:104E6000110011FCFE04120417E41A243224D3E4C6
:104E7000121412081202120251FE200011FC110439
:104E80001104FD141108150019FC3184D148114892
:104E9000113011101138114E518421001FF01010E3
:104EA0001FF010101FF004407FFC0440FFFE044080
:104EB0000920355EC38409201110030008400C60EE
:104EC0001040237ED48218822942CC22123226221C
:104ED000CA0212022202C2021414080820403C40F6
:104EE000244048FC7C84D5F456947C9454F4548437
:104EF0007C9400881C82E082007E000023FC220457
:104F00002BFC2A04B3FCA090A7FCA0902FFE3248F3
:104F10002D5448E25150864801400080100017FE91
:104F20001020FC201040304038C054D051489244EA
:104F300014461042104010401040104000207E40A7
:104F400011FC1124112421FC3D246544A5FC24A05E
:104F5000252027FE3C20242020200020044004405F
:104F60007C7C04403C7804407C7E0440044001008A
:104F7000088028842812681207F00000010002004F
:104F80003FF821083FF8210821083FF822080C804B
:104F9000FFFE00800080008000800080044004400C
:104FA00004400444044E7C5804600440044004401F
:104FB0000C403442E4424442043E000004407C7C05
:104FC00004403C7804407C7E054002007FFC048065
:104FD0000FF800807FFE008000800080048004982D
:104FE0007CE004841C84E47C40001FF010101FF05F
:104FF000101010101FF010101050102000001FF0A3
:10500000101010101110111011101110111011109A
:10501000111002800460181860080000200021FCB4
:105020003D04210441047D24A1242124FD242124C4
:105030002124245028483184260600020880084094
:1050400017FE121031185190112017FE100013F89E
:1050500012081208120813F812080000040045FC98
:105060002904112431244924892419242924492478
:1050700089440850088C09065202240008000FF0E9
:10508000082014202240418002400C30301EDFF402
:1050900011101FF0111011101FF01010040007F074
:1050A0000C201240018006607FFE09100FF00910ED
:1050B0000FF001002884281267F200001040102031
:1050C00013FC100015045888505097FE100011FC76
:1050D00019042504210441FC810400002020102033
:1050E0001020FFFE0A240A2012F836885A889650AB
:1050F00012501220125012481286150402000200AB
:105100007FFE0440092011182FE6C1040920082061
:10511000FFFE082010201020202040200420042022
:10512000FFFE042001007FFC0380054005200910DC
:1051300011082FF641048100010001000100010067
:105140000100FFFE038003400540052009101118EF
:105150002FEEC104010001000100000020403E7E4E
:1051600050904908890801047FFE05400520092068
:1051700011182FEE410481000100010001002108F7
:105180003FF800003E7822483E48227822483E48B8
:105190002278224842884AA885100000100013BCDB
:1051A00022A422A44BBCFAA412A422A443BCFAA4B5
:1051B00004A434A4CAA411542088000000047FFE73
:1051C00001800F60F11C01063FF821083FF821081B
:1051D0003FF821082108410841288010FFFE020005
:1051E00004000FF03410C41007F001007D0C05B06E
:1051F000094009201118210EC504020000207A225E
:105200004A224BFE48007B9E1292139E5E9252925F
:10521000539E52927C92C4A20AAA11444208218849
:10522000311027FC01100110F1101FFC111011109A
:10523000121012101410281047FE8000000027FCE6
:10524000100013F8020803F8700017FC144417FC50
:10525000144417FC1000280047FE000002001FF055
:10526000189014501FF000003FF821083FF8210863
:105270003FF80000FFFE082008201020208020803A
:105280002080208020803E8E20F020802080208082
:105290002080248228823082207E00003F00213E30
:1052A00021223F240824FFA808247FA240A25EA256
:1052B00052B25EAC40A07FA040A000202040204021
:1052C0003EFE51208A1001F87E00020003F07E00AD
:1052D000020003FEFE000204020401FC102018205C
:1052E000202043FE92241A2032F86288A28822509D
:1052F0002250222022502488250E2A0400207EFCE1
:1053000008843CFC088408847EFC00007FFE0400C6
:1053100008001FF8280848080FF808080440FFFE96
:10532000044008003FF82448238824483FF82080A0
:1053300020983EE020802682387E20000440FFFE38
:105340000440086049302A207F7E49445DC45B28C0
:105350006B28691049104D284A460084208020801F
:10536000208C3EF0208024822882317E01000100C2
:10537000FFFE0100010001000100010020802098D3
:105380003EE020842684387C0000FFFE10401F4C45
:105390003270544008423042C03E000020802080DD
:1053A0003E8C20F020822482287E320001200920B9
:1053B000284428824B120C10F7F0000000FC7F00FC
:1053C000010001003FF821082108210821082108D7
:1053D00021082128211001000100010001000080A6
:1053E0003FFE2000244024402444274E24702440C3
:1053F0002440244045424E42843E0000008000404C
:105400001FFE100097FC544457FC144437FC500016
:105410009FFE1110211021104210841020001BFC4F
:1054200008042084208420842FF420842184228472
:105430002C842084228421042014200800000820C9
:1054400049302B201C7E7F4449C459445D286F2875
:1054500049104910492849484986430408204920F1
:105460002A7E7F4449A45D186B28494643040820DE
:10547000FFFE082008201020102020200400021029
:10548000019801100C20082028502848288449063B
:105490004A040C0818082FF8C000000000407C20C7
:1054A00045FE440044847C48400041FE7C2064204A
:1054B000A5FEA420BC20A4200020002000407C20C9
:1054C00045FE44887C5043FE7C2065FE7C20A42061
:1054D00001003FF801000100FFFE00003C2025FE16
:1054E0003C8821FE7C20A5FE3C2000201FF01010EF
:1054F0001FF010101FF010101050102000204F103F
:10550000297C29480F280810E8FE2F102D102D7C2B
:1055100035102710201050008FFE000002207A2046
:105520004A2C53B0522062A253224A1E484068407F
:1055300053FC4040404040404FFE4000488048FE01
:10554000FE904910797C13547D7C55547D7C11105C
:105550001110FD5011301128114E1104408020808F
:105560003080208007F80088F08810881108110822
:10557000120814701020280047FE00001080184008
:1055800023FC22044A04FBFC120023FC7B5403543A
:1055900005FC3554C5540954110C000000007C3C36
:1055A00045C054405430542055FC540854105420E5
:1055B0005440288025804640843E00000100008041
:1055C0001FFC10041FFC100010001FFE19222922CE
:1055D0002FFE292249224922892A080408000FFEA9
:1055E000184017FC344467FCA444244427FC24409E
:1055F0002240218020C02130220E2C040200018094
:105600007FFE024012501A4C224642449FF0042072
:105610000420024001800660181EE008020001809C
:105620000100FFFE01000100010001400120011006
:1056300001180110010001000100010020901088F4
:10564000FEFE008446C62AA8FE8012FE10907C90C2
:10565000117E21102210421084100810221011888F
:10566000FD7E40042B462934FD28117E11087D085B
:1056700011BE110820082008400800002010100862
:105680007D7E09044AA62B94FD3E12081788FC3E35
:10569000100811C8270822084008800800804040F0
:1056A00027F8240807F80400E7F826A827F82AA80E
:1056B0002AA832A8221850008FFE0000100011FC0A
:1056C00010001000FC0013FE38203420552851240F
:1056D000922614221022102010A0104008040F86D9
:1056E000080C7F9848A04E48780C49104724404643
:1056F0004F0849104922510290FEA00000007BFE95
:1057000048904BFC7A944BFC480049FC78004BFED7
:105710004820492849A44A26ACA490400100010031
:105720003FFC01001FF801007FFE030006880C8C7F
:105730003850C82009100A0E0C04080049202A20FD
:105740007F3E49485DC86B30492847C608803FF016
:1057500051101FF011101FF00000FFFE082049201B
:105760002A207F7E49445DA45B18691849264B4472
:10577000000029042882681207F0000000043F049A
:105780002124212421243F24292408247F2409249E
:105790001124110421042704421C800801003FFE4B
:1057A0002080A7F864482528248827F86488A16009
:1057B00026183A6623804208420881F8110411062F
:1057C000110C11087BD0110433863B4C55505564A5
:1057D0009546110C111811201140110000102018CD
:1057E00013D4FC1007FE08904A902A902AF01290D9
:1057F00012902A8A4AEA8706000200004200227EAE
:105800002A100BA08A7C5FC422542A544AD452D452
:10581000C154411042284C46718200004040202073
:1058200027FE8404403801C0110011FC2110211012
:10583000C7FE40004010410842044C0401000080B3
:105840003FFE40044FE8080008000FF808400840F9
:10585000FFFE04400E301818200C400810401020A5
:1058600013FEFE02123815C0190031FCD1101110C0
:1058700017FE11101108120C5404200000700F8044
:10588000080008000FFC0840084008400840FFFEE0
:10589000042006100C08180C30064004004040405C
:1058A000204020480F4C0258226022602450C450EF
:1058B000484848465044614040800000100013FEB4
:1058C0001020FC20102033FE3A22562252229252FF
:1058D000128A130A12021212120A120400007FFE28
:1058E000010001003FFC2104210421042284224400
:1058F00024342824200420142008000000103FF83D
:105900000100FFFE01003FF80108FFFE01083FF81B
:105910000388054009203118C10E010421042084A8
:1059200020483DFE44884888A088208823FE20889F
:10593000208824882908310822080008100013FE56
:1059400014201420582053FC5244924412641A9498
:1059500026942304420442048214020801000080B9
:105960001FFE10009FFC5040504017F8344854A8C8
:1059700094A8251826082408442884101010081814
:10598000061004207FFC0420042004207FFE042055
:1059900004200420082008201020202000200020BF
:1059A000FC2011FE112211247D2011FC1288128886
:1059B0001A50F42044500888110E02040440044098
:1059C000FFFE0440204017FE4444344827F81510D9
:1059D0001510E4A0244028B0290E3204203C27C032
:1059E0002248F95027FE20E02950324E6FFCA24891
:1059F000224823F822482248A3F84208204022489F
:105A00002244FA4023FE2040288030F8E0882150CC
:105A10002150222024502988A60640002020202042
:105A20003E20202043FC7C20A07020B0FCA8212830
:105A300021FC22222820302020200020204010405D
:105A4000104007FE84445440544017F82508249021
:105A5000E490246028602898310E260420502048C5
:105A600027FC204023F8FA4823F8224823F822583C
:105A70002FFE2210219021102050202008200820E5
:105A80007F2008207F7C412482247E2404240B2450
:105A90001C44E8440884089429081000104817FEA4
:105AA0001040FBFC124417FC1A4433FCD24410088B
:105AB00017FE110810881008502820101010101020
:105AC00020203EFE40827C82908210FEFE82108268
:105AD00010821282148218FE1082000020403F7E45
