:020000040800F2
:10000000F0040020A10100082D2D00083929000866
:10001000292D000811080008013400080000000024
:10002000000000000000000000000000A12E0008F9
:100030001508000800000000312D0008A52E00085A
:10004000BB010008BB010008BB010008BB010008A0
:10005000BB010008BB010008BB010008BB01000890
:10006000BB010008BB010008BB010008BB01000880
:10007000BB010008BB010008BB010008BB01000870
:10008000BB010008BB010008BB010008BB01000860
:10009000BB010008BB010008BB010008BB01000850
:1000A000BB010008BB010008BB010008BB01000840
:1000B000BB0100080000000000000000BB010008B8
:1000C000BB010008BB010008BB010008BB01000820
:1000D000BB010008F5330008BB010008BB010008A4
:1000E000BB010008BB010008000000000000000088
:1000F0000000000000000000000000000000000000
:1001000000000000BB01000800000000BB01000867
:100110000000000000000000BB010008BB01000857
:10012000BB010008BB010008BB010008BB010008BF
:10013000BB010008000000000000000000000000FB
:10014000BB010008BB010008BB0100080000000063
:10015000BB010008BB010008BB010008BB0100088F
:10016000BB010008BB010008BB0100080000000043
:10017000BB010008BB0100080000000000000000F7
:10018000BB010008BB010008BB010008DFF80CD070
:1001900000F01AFB0048004729340008F004002052
:1001A0000648804706480047FEE7FEE7FEE7FEE711
:1001B000FEE7FEE7FEE7FEE7FEE7FEE7A92E000802
:1001C0008D0100082DE9F05F0546002092469B4610
:1001D00088460646814640241BE02846414647465D
:1001E000224600F0F8F853465A46C01A914110D3FF
:1001F00011461846224600F0DFF82D1A67EB010879
:100200004F4622460120002100F0D6F817EB0009E6
:100210004E41201EA4F10104DFDC484631462A4647
:10022000434600F000B830BCBDE8C09FD2B201E048
:1002300000F8012B491EFBD270470022F6E710B5EB
:1002400013460A4604461946FFF7F0FF204610BD44
:100250002DE9F04D81EA030404F0004B21F0004544
:1002600014464FF0000A23F0004150EA050220D066
:1002700054EA01021DD0C5F30A570246C5F3130321
:10028000C1F31300C1F30A5640F4801543F4801300
:10029000A7EB0608101BD64608F2FD3873EB0500E5
:1002A00002D308F1010801E092185B41B8F1000F98
:1002B00003DA00200146BDE8F08D00204FF48011E4
:1002C000064684460EE0171B73EB050705D3121B89
:1002D00063EB050306434CEA010C49084FEA300082
:1002E00092185B4150EA0107EDD152EA030012D0A7
:1002F00082EA040083EA0501084305D0101BAB41E4
:1003000006D20122002306E000224FF0004302E063
:100310006FF0010253101AEB06004CEB085110EB82
:100320000A0041EB0B01BDE8F04D00F09BB800F076
:10033000004230F000400AD0C10D01F56071C0F3F9
:10034000160042EA0151C2084007114370470020DD
:100350000146704701F0004330B421F0004150EAFB
:10036000010206D00A0DA2F56072C1F31301002A42
:1003700002DC30BC00207047440F44EAC104C100D5
:10038000E01830BC00EBC25000F035B830B50B4679
:10039000014600202022012409E021FA02F59D42B5
:1003A00005D303FA02F5491B04FA02F52844151E89
:1003B000A2F10102F1DC30BD202A04DB203A00FA70
:1003C00002F1002070479140C2F1200320FA03F3AC
:1003D000194390407047202A04DB203A21FA02F0AA
:1003E0000021704721FA02F3D040C2F1200291406F
:1003F0000843194670470029A8BF7047401C4900B0
:1004000008BF20F00100704710B4B0FA80FC00FA79
:100410000CF050EA010404BF10BC704749B1CCF1A4
:10042000200421FA04F411FA0CF118BF0121214330
:100430000843A3EB0C01CB1D4FEA00614FEA1020EB
:1004400042BF002010BC704700EBC350104400298D
:10045000A4BF10BC7047401C490008BF20F0010039
:1004600010BC704710B5141E73F1000408DA401C6C
:1004700041F1000192185B411A4301D120F00100C3
:1004800010BD2DE9F04D92469B4611B1B1FA81F2B3
:1004900002E0B0FA80F220329046FFF78DFF04466A
:1004A0000F4640EA0A0041EA0B0153465A46084308
:1004B00013D0114653EA010019D0C8F1400250464A
:1004C000FFF789FF05460E46504659464246FFF75C
:1004D00073FF084305D0012004E020463946BDE8FB
:1004E000F08D0020054346EAE0762C4337430A9816
:1004F0006305E40AA0EB08000022FD0A44EA475421
:100500000A3002D500200146E9E7010510196941CA
:10051000DDE9084500196941BDE8F04DA2E72DE984
:10052000FE4F804681EA0300C00F0C46009021F088
:10053000004123F00045B8EB0200A94105D2404636
:10054000214690461C460B46024623F000401043CD
:1005500047D0270DC7F30A00C3F30A510290401A8F
:10056000019040286BDAC3F3130040F4801B00981D
:10057000924620B10023D2EB030A63EB0B0B0198E8
:100580005946C0F140025046FFF716FF06460D4699
:1005900050465946019A00F029F910EB08006141D4
:1005A000002487EA115284EAE7731A4340D0009A84
:1005B00062B3019A012A4FEA075215DC001B61EB76
:1005C00002014FF0004202EA0752CDE90042001C4E
:1005D00041F5801132462B46FFF753FF03B000F080
:1005E00045B840462146F9E7001B61EB0201001CBB
:1005F00041F5801300185B412018A2F5001747EB66
:10060000030140EAD570B6196D4111E06D084FEA5B
:10061000360645EAC0754FEA0752001B61EB02013E
:10062000001C41F5801149084FEA30000019514182
:1006300032462B4603B000F01CB8FFF713BF0098FA
:10064000012240000023D0EB020263EBE07300982C
:1006500021464FEAE074B8EB000061EB0401E9E7E2
:1006600083F000435BE781F0004158E730BCBDE810
:10067000C08F30BCBDE8C04FFFF7DFBF2DE9FE4F94
:1006800081EA030404F0004421F0004100944FF09B
:10069000000B23F0004350EA01045ED052EA030449
:1006A0005BD0C3F30A54C1F30A552C44A4F2F334CB
:1006B0000194A0FB0254C1F3130141F48011C3F370
:1006C000130343F4801301FB024400FB034E840A2E
:1006D000970A44EA815447EA8357A4FB07680295C6
:1006E0008D0A05FB07854FEA932C04FB0C54270564
:1006F000029D4FEA065847EA1637B5EB08056EEB40
:10070000070C870E920E47EA811742EA8312A7FB75
:100710000201B6EB0B0164EB00042B0D43EA0C3332
:100720005E1844EB1C50DA465146E7FB0201C5F364
:1007300013044FEA0B3343EA14534FEA0432019C8B
:1007400043EA0603A4F10C040294009CCDE900B432
:10075000FFF797FE03B000F003B800200146F9E769
:1007600030BCBDE8C08FC1F30A52C1F3130140F29F
:10077000FF3341F480119A4202DA002001467047AB
:1007800040F233439A42A2F2334202DC5242FFF774
:1007900022BEFFF711BE000030B5041E71F1000447
:1007A00004DB4FF00044404264EB0101141E73F17E
:1007B000000405DB1C464FF00043524263EB040388
:1007C000994208BF904230BD064C074D06E0E068F4
:1007D00040F0010394E8070098471034AC42F6D388
:1007E000FFF7D8FCE83E0008083F0008202A06DB97
:1007F000CB17203A41FA02F043EAE07306E041FAEF
:1008000002F3D040C2F120029140084319467047DC
:10081000FEE7000070470000EFF3108072B600BFE3
:10082000FEE70000014690F82500022818D108686C
:10083000D1E910C3026822F00E020260026822F0C1
:100840000102026003F01C00012202FA00F0CCF861
:100850000400002081F82520002281F82420704720
:100860000420C8630120002281F824207047000082
:1008700080B590F82510022922D10168D0F838E01F
:10088000D0E910C30A68BEF1000F22F00E020A6020
:100890000A6822F001020A6003F01C014FF0010215
:1008A00002FA01F1CCF804104FF0000180F8252085
:1008B00080F8241001D0F0470021084680BD00BF19
:1008C0000421C163012080BDB0B5044600F006F9E3
:1008D000054640F20400C2F200000078611C18BF17
:1008E000044400BF00F0FAF8401BA042FAD3B0BDA8
:1008F0002DE9F04F84B08E4641F20002C4F60002AA
:10090000DEF8004007219042019008BF0421002C2E
:10091000009100F0D7800198002500F138424FEA9D
:10092000B2230098012700264FF00008042B38BF9F
:1009300018460090CDF808E00EE000BFDEF8004059
:1009400008F1010834FA07F106F1020607F1010780
:1009500005F1040500F0B680A7F1010A012000FAB4
:100960000AF314EA0309E9D0DEF804C00CF0030B23
:10097000ABF10104012C17D8019874468168032259
:10098000E468B2409143B4402143816041684FEA3A
:10099000480E9943CCF3001303FA0AF30446D043FC
:1009A000194361600CE000BF0321B140019CC843C2
:1009B000BBF1030FB64603D1B6464FF0030B23E05D
:1009C000E168029A01409368BBF1020F03FA0EF34B
:1009D00041EA0301E16017D16FF0030101EA5A0116
:1009E000214405F01C040F23D1F820C003FA04FBB6
:1009F00013692CEA0B0CA34043EA0C03019C0B6225
:100A0000D2F804C00CF0030B21680BFA0EF201407F
:100A100011432160DDF808E01CF4403F8ED041F224
:100A20006000C4F20200016840F2004C41F0010194
:100A300001600168C4F2010C01F001010391039906
:100A40002AF003014FF6084A6144CFF6FF7A05F019
:100A50000C030F2051F80A2000FA03F40098A24377
:100A600000FA03F31A4341F80A20DCF80810DEF814
:100A7000042041EA090340F20C40D40258BF21EAA5
:100A80000903CCF80830C4F201000168940241EA7D
:100A9000090358BF21EA09030360DCF8041094033A
:100AA00041EA090358BF21EA0903CCF80430DCF815
:100AB0000010D20341EA090358BF21EA0903CCF828
:100AC00000303BE704B000F000B830BCBDE8C08F98
:100AD0001823002A08BF2823C150704740F2E800BD
:100AE000C2F200000068704790F84120202A03D12C
:100AF00090F84020012A01D102207047242280F87A
:100B000041200268136823F001031360136823F483
:100B100080531360136819431160116841F001019B
:100B20001160202180F84110002180F84010084613
:100B30007047000090F84120202A03D190F840200F
:100B4000012A01D102207047242280F84120026846
:100B5000136823F001031360136823F4706343EAFE
:100B600001211160116841F001011160202180F81C
:100B70004110002180F8401008467047002804BF4B
:100B80000120704710B5044690F8410028B90020B4
:100B900084F84000204600F04BFA242084F84100FD
:100BA00094E80910E2680168012A21F0010101605E
:100BB00023F070610161816821F40041816003D1FB
:100BC0004CF40041816007E04CF40441022A81604A
:100BD00004BF4FF400614160416804F1100C41F022
:100BE000007141F400414160C16821F40041C160DD
:100BF0009CE80E10114341EA0321C160216A41EAD9
:100C00000C010160016841F0010101600020202118
:100C1000606484F84110206384F8420010BD000035
:100C20002DE9F04F81B0044690F84100202803D10F
:100C300094F84000012803D1022001B000F0EEB882
:100C40000120984617460E4684F84000FFF746FFFD
:100C5000216805468A6912040AD500BFFFF73EFFE6
:100C6000401B192800F2CA80216888690004F5D465
:100C7000222084F84100102084F8420000206064A3
:100C80006762A4F82A806063628D49F6000040F232
:100C90000008CFF60040B2F5807FC0F2FF180BD3FA
:100CA00051F8042F6FF39F2602EA000308F510574E
:100CB000FF22B3460DE000BF628D51F8047F6FF351
:100CC0009F26D3B2B34646EA034307EA000608F577
:100CD000923733433B430B602285618D0A9E002986
:100CE0005CD006F101094FF0FF0A00F580670FE0C4
:100CF000618D4FF00073218550F8042FC9B24BEA83
:100D000001413A40114319430160608D002845D0EC
:100D1000204631462A4601F0BDFE00285AD12068FF
:100D2000616A406A0870606A218D01306062481E05
:100D30002085618D01396185618D0029E5D0000430
:100D4000E3D12068816909060ED4B9F1000F17D0EC
:100D5000002E51D0FFF7C2FE401BB0424ED8206893
:100D600081690906F6D500BF618DB1F5807FBFD3DB
:100D7000A4F828A050F8041F5A4639404346C1E75A
:100D800081690906F0D4816909065CBF81695FEA5F
:100D90000161E9D481690906F2D5E5E786B100BFB2
:100DA00020688169890619D4204631462A4601F017
:100DB000C5FD78B9FFF792FE401BB042F0D91DE0A7
:100DC00020688169890609D4204600212A4601F05D
:100DD000B5FD88B1012001B000F020B82021C1612B
:100DE00042684EF60003CFF600631A4042600020CE
:100DF00084F841100AE000BFFFF770FE606C40F01D
:100E000020006064202084F841000120002184F843
:100E1000421084F8401001B000F000B830BCBDE8CA
:100E2000C08F00002DE9F04F81B0044690F84100DA
:100E3000202803D194F84000012803D1022001B0FA
:100E400000F0F2B80120984617460E4684F840009C
:100E5000FFF744FE216805468A6912040AD500BFDF
:100E6000FFF73CFE401B192800F2CE8021688869FC
:100E70000004F5D4212084F84100102084F84200B9
:100E8000002060646762A4F82A806063608D49F680
:100E9000000C40F20008CFF6004CB0F5807FC0F2A5
:100EA000FF180BD30B4653F8040F6FF39F2600EA8D
:100EB0000C0708F50050FF22B3460DE0628D0B468B
:100EC00053F8040F6FF39F26D7B2B34646EA07479D
:100ED00000EA0C0608F59030374338431860228545
:100EE000608D0A9E00285DD006F101090CF5806A2C
:100EF00012E000BF608D4FF000772085C2B2084637
:100F000050F8043F4BEA024203EA0A031A433A4309
:100F10000260608D002845D0204631462A4601F007
:100F200019FE00285BD1606A216810F8012B8A62E3
:100F30006062608D01386085208D01382085628D6A
:100F4000002AE6D00004E4D1886900060ED4B9F185
:100F5000000F19D0002E55D0FFF7C0FD401BB04246
:100F600052D8216888690006F6D500BF608DB0F5BB
:100F7000807FBFD3FF202085084650F8042F5B46B2
:100F800002EA0A024746C1E788690006EED488698A
:100F900000065CBF88695FEA0060E7D488690006E4
:100FA000F2D5E3E7886900F020008EB1E0B900BF18
:100FB000204631462A4601F0C1FC80B9FFF78EFD7C
:100FC000401BB04220D8216888698006F0D50BE02C
:100FD00050B9204600212A4601F0B0FC90B1012012
:100FE00001B000F021B800BF2020C8614A684EF669
:100FF0000003CFF600631A404A6084F841000020E5
:101000000AE000BFFFF76AFD606C40F020006064FA
:10101000202084F841000120002184F8421084F847
:10102000401001B000F000B830BCBDE8C08F000037
:1010300010B59EB0044602A804305821FFF7FDF811
:10104000206845F20041C4F20001884202D01EB07F
:1010500010BD00BF402002904FF400500E9002A837
:1010600000F026F9002818BFFFF7D6FB41F24C0428
:10107000C4F20204206819A940F002002060206830
:1010800000F0020019901998C020199012201A90AF
:1010900000201B9003201C9004201D9040F2004073
:1010A000C4F60000FFF724FCE06840F40010E060A4
:1010B000E06800F40010019001981EB010BD00001F
:1010C00040F2040040F2E801C2F20000C2F2000166
:1010D00000780A68104408607047000080B503205B
:1010E00000F088F80F2000F009F800281CBF01204C
:1010F00080BD00F029F8002080BD000070B540F2EE
:101100000406C2F200063178E1B1044640F20C0058
:10111000C2F200004FF47A720068B2FBF1F1B0FB4A
:10112000F1F000F0D1FF0F2C4FF0010508D838B9CD
:101130004FF0FF3021460022002500F02FF87460A8
:10114000284670BD012070BD82B041F25800C4F243
:101150000200816841F001018160816801F00101B4
:1011600001910199016841F080510160006800F02F
:1011700080500090009802B070470000002848BFDF
:10118000704700F01F01012202FA01F14EF2001235
:101190004009CEF2000242F82010704710B54EF61A
:1011A0000C5CCEF2000CDCF80030C3F3022E8EF0A3
:1011B0000704042C28BF0424BEF103034FF0FF3EB4
:1011C0000EFA04F438BF0023A14399400EFA03F34A
:1011D0009A43114300F00F02043A624409010C32B1
:1011E00000F16043B0F1FF3FC8BF03F564421170E6
:1011F00010BD00004EF60C51CEF200010A684FF609
:10120000FF031A4060F30A2242F0806040F0FD7054
:101210000860704747F20001C4F200010A68B0F5A7
:10122000007F02F4C06031D1B0F5007F2CD0086897
:10123000012262F34A20086040F20C00C2F2000072
:101240000068322250434DF68362C4F21B32A0FB89
:101250000202900C4A69520511D5421C0FD04A690E
:1012600052050CD558B14A69520508D5012806D057
:101270004A69520503D50228A0F10400EAD1486961
:10128000400544BF0320704700207047B0F5806FD1
:10129000FAD00868022262F34A20086000207047F2
:1012A00047F20000C4F20000006800F4C06070471C
:1012B0002DE9F04381B00446407841F288070007E9
:1012C000C4F2020721D5606C80B1B0F5400F15D093
:1012D000B0F5000F40F02A8157F87C0C40F48030C4
:1012E00047F87C0C4FF400000AE000BF201D0021ED
:1012F00001F020FD814650B9606C01E04FF44000E0
:10130000396821F44001084338604FF00009A078A3
:10131000800751D557F8300C10F080580BD157F892
:10132000300C40F0805047F8300C57F8300C00F08B
:1013300080500090009847F20005C4F2000528682C
:1013400040F480702860FFF7C9FB06462868C00596
:1013500008D4FFF7C3FB801B0228F7D94FF003091D
:1013600021E000BFB9F1000F1DD1B86810F4407042
:1013700011D0A16D88420BD0B868B96820F44070D4
:1013800041F48031B960B96821F48031B960B86046
:10139000C00740F0D380B868A16D20F440700843C6
:1013A0004FF00009B860B8F1000F05D157F8300CC4
:1013B00020F0805047F8300C2168C80712D1880708
:1013C00018D448071ED4880624D488052AD4480592
:1013D00030D4480636D408063CD4C80542D40803A5
:1013E00048D459E03868226A20F00300104338607E
:1013F0008807E6D53868626A20F00C001043386030
:101400004807E0D53868A26A20F030001043386001
:101410008806DAD53868E26A20F440601043386004
:101420008805D4D53868E26B20F44020104338603A
:101430004805CED53868226C20F44010104338603F
:101440004806C8D53868226B20F4405010433860F5
:101450000806C2D53868626B20F4404010433860FB
:10146000C805BCD53868A26B20F440301043386002
:10147000080311D53A68A06C22F040620243B0F133
:10148000806F3A601ED0B0F1006F05D157F87C0C28
:1014900040F4801047F87C0C480327D53A68E06C8C
:1014A00022F040620243B0F1806F3A6016D0B0F192
:1014B000006F1BD157F87C0C40F4801047F87C0C6F
:1014C00014E000BF201D012101F034FC2168002838
:1014D00018BF81464803E1D408E000BF201D012168
:1014E00001F028FC2168002818BF8146480410D567
:1014F0003868226D20F040501043B2F1805F3860B0
:1015000007D1201D022101F015FC2168002818BF19
:101510008146080405D53868616D20F08040084395
:101520003860484601B0BDE8F08300BF4FF00109C4
:10153000A07880073FF5EEAE3EE700BFFFF7CEFA9A
:10154000064641F288354FF0030900BFB8688007AE
:101550003FF521AFFFF7C2FA801BA842F6D922E778
:101560002DE9F04381B000286BD042F20008C4F2AC
:1015700002080446D8F800000D4600F00700884233
:101580000CD2D8F8000020F007002843C8F800006B
:10159000D8F8000000F00700A84252D1206841F2BC
:1015A000080910F00201C4F202090DD0A268D9F8AE
:1015B000003003F0F0039A4206D9D9F8003023F046
:1015C000F0031A43C9F80020C2072DD169B1A16800
:1015D000D9F8002002F0F002914206D2D9F800209A
:1015E00022F0F0021143C9F80010D8F8001001F001
:1015F0000701A9420CD9D8F8001021F007012943AE
:10160000C8F80010D8F8001001F00701A94218D15D
:1016100041071BD4000723D4D9F80000D9F80410DF
:1016200010F00C002CD131E0606800285ED0022858
:1016300000F07E80032840F0818059F8081C890161
:1016400058D4012001B0BDE8F08300BFD9F80010E4
:10165000E26821F4E0611143C9F800100007DBD50E
:10166000D9F80000216920F4605040EAC100C9F8AF
:101670000000D9F80000D9F8041010F00C0005D0D3
:101680000C2829D101F00301012925D159F8081CA2
:10169000090703D4D9F88C10090A02E059F8081C8C
:1016A000090943F6A86201F00F01C0F6000252F8E2
:1016B000211000280A4618BF00220C2871D1D9F841
:1016C000040000F00300022846D0032804BF41F2C2
:1016D0000021C0F27A0143E0042857D008285BD1EA
:1016E00041F20022C0F27A025BE000BF59F8081C08
:1016F0008907A6D5D9F8001021F003010843C9F8DD
:101700000000FFF7EBF9064641F28837D9F80000F0
:10171000616800F00C00B0EB810F15D0FFF7DEF927
:10172000801BB842F2D9032001B0BDE8F08300BFAE
:1017300059F8081C89037FF584AFDBE759F8081CCA
:1017400049057FF57EAFD5E7206800F0020100294A
:101750007FF43DAF49E700BF42F20041C0F2F4011F
:10176000D9F80400D9F80420C0F30210C2F306220D
:101770005143D9F804200130B1FBF0F0C2F34161CC
:10178000022202EB4101B0FBF1F20AE042F2004218
:10179000C0F2F40205E000BF002200210C283FF453
:1017A0008EAFD9F8000043F69061C0F30310C0F685
:1017B0000001085C00F01F0022FA00F140F208006E
:1017C000C2F2000040F20C020068C2F20002116096
:1017D00001B0BDE8F043FFF791BC000040F20C00FF
:1017E00041F20801C2F20000C4F202010068096877
:1017F00043F6A062C1F30221C0F60002515C01F081
:101800001F01C8407047000040F20C0041F208017F
:10181000C2F20000C4F202010068096843F6A06247
:10182000C1F3C221C0F60002515C01F01F01C840A3
:101830007047000041F20C01C4F2020151F8040C9F
:1018400010F00C02086805D00C2A29D100F0030022
:10185000012825D151F80C0C000703D4D1F88800D9
:10186000000A02E051F80C0C000943F6A86300F0EE
:101870000F00C0F6000353F82030002A184618BFA6
:1018800000200C2A18BF7047086800F003000228E7
:1018900010D0032804BF41F20023C0F27A030DE008
:1018A000042A1FD0082A23D141F20020C0F27A0076
:1018B000704700BF42F20043C0F2F40308680A68B0
:1018C000C0F30210C2F30622096801305A43B2FB8A
:1018D000F0F0C1F34161022202EB4101B0FBF1F0F3
:1018E000704700BF42F20040C0F2F400704700BFF2
:1018F00000200023C5E700002DE9F04383B0002855
:1019000000F0388341F200060446C4F20206B068D3
:10191000F168227800F00C09D00601F003081DD40C
:101920002078C00700F08180B9F1080F76D0B9F1B6
:101930000C0F08BFB8F1030F70D06068B0F5803F9E
:1019400007D0B0F5A02F40F04B82306840F48020E3
:101950003060306840F4803030604CE2B9F1000F04
:101960001ED0B9F10C0F08BFB8F1010F18D0A16952
:101970003068002900F0968140F001003060FFF7E8
:10198000ADF805463068800700F19E81FFF7A6F8A4
:10199000401B02284FF00300F4D903B0BDE8F083E8
:1019A0003068800703D5A069002800F0E382256A2B
:1019B0003068000700F13E81D6F89400000900F07D
:1019C000F000854200F23C813068B9F1000F40F030
:1019D00008003060306820F0F00040EA0500306018
:1019E0007068E16920F47F4040EA0120706040F0B7
:1019F000AF82B06DC00000F14B82B06D40F08050FE
:101A0000B065B06D00F0805002900298FFF748FC7E
:101A1000B16D21F08051B1653CE200BF30688003B8
:101A200003D56068002800F0A582207880072DD5B6
:101A3000B9F1040F1CD0B9F10C0F08BFB8F1020FB7
:101A400016D0E1683068002900F0E48140F480702D
:101A50003060FFF743F80546306840050FD4FFF7C4
:101A60003DF8401B02284FF00300F5D995E700BF71
:101A70003068400503D5E068002800F07B8270687C
:101A8000216920F0F85040EA01607060207800077A
:101A900060D42078400775D42078800600F1AE80AD
:101AA000A06A002800F00C83022840F01F81F06833
:101AB000E16A00F003028A4240F03081226B6FF04D
:101AC0000F0300F0700103EB0212914240F02681F7
:101AD000616B00F4FE42B2EB012F40F01F81A16B5D
:101AE00000F07842B2EBC16F40F01881E26B002346
:101AF000CFF6E07303EB025200F4C0016FF314025F
:101B0000914240F00B81216C4FF07E4202EB01616B
:101B100000F0C06001F07E41884240F0FF803068F4
:101B2000800100F1CD82306840F080703060F06854
:101B300040F08070F060FEF7D1FF0446306880010D
:101B400000F1BE82FEF7CAFF001B02284FF003001F
:101B5000F4D922E76169D6F89400002900F08C805E
:101B600040F00100C6F89400FEF7B8FF054600BF3C
:101B7000D6F8940080078CD4FEF7B0FF401B0228F3
:101B8000F6D929E1B06D10F0805808D1B06D40F061
:101B90008050B065B06D00F080500090009847F222
:101BA0000007C4F200073868C00513D4386840F451
:101BB00080703860FEF792FF054600BF3868C005A8
:101BC00008D4FEF78BFF401B02284FF00300F5D925
:101BD000E3E600BFA068012808D0052840F0DE80B9
:101BE000D6F8900040F00400C6F89000D6F89000B7
:101BF00040F00100C6F89000DFE000BF616AD6F84F
:101C00009800002900F0B48040F00100C6F8980068
:101C1000FEF764FF054600BFD6F8980080073FF541
:101C20003FAFFEF75BFF401B02284FF00300F3D9E4
:101C3000B3E600BF306800F0F00085427FF6C4AE26
:101C4000B06DC00000F18680B06D40F08050B0658E
:101C5000B06D00F0805001900198FFF721FBB16D4D
:101C600021F08051B165B0F5007F79D0802D40F230
:101C7000E3800320EBE000BF20F00100C6F89400F1
:101C8000FEF72CFF054600BFD6F8940080077FF5CD
:101C900000AFFEF723FF401B02284FF00300F3D9EB
:101CA0007BE600BF20F001003060FEF717FF05461D
:101CB000306880077FF534AEFEF710FF401B022826
:101CC0004FF00300F4D968E6306840F00800306057
:101CD0003068D4E9072120F0F000084330607068D4
:101CE00020F47F4040EA0220706019E6B9F10C0F41
:101CF00000F04081306820F080703060FEF7EEFE2A
:101D0000044600BF3068800140F1EE80FEF7E6FE39
:101D1000001B02284FF00300F4D93EE6B9F10C0F86
:101D200000F028813068400100F12481306820F003
:101D300080703060FEF7D2FE05463068800140F1C9
:101D40008181FEF7CBFE401B02284FF00300F4D93F
:101D500023E600BFFFF7A4FAB0F5007F7FF486AF5B
:101D6000812D73D30120A02D88BF02206FE000BF1A
:101D700020F00100C6F89800FEF7B0FE054600BF4F
:101D8000D6F8980080077FF58BAEFEF7A7FE401BC4
:101D900002284FF00300F3D9FFE500BFD6F89010FA
:101DA000002821F00101C6F89010D6F8901021F01B
:101DB0000401C6F8901000F07B80FEF78FFE054608
:101DC00041F28837D6F89000800700F18380FEF753
:101DD00085FE401BB842F5D9032003B0BDE8F0836F
:101DE0003168002821F480313160316821F480218C
:101DF000316000F08580FEF771FE05463068800393
:101E00003FF513AEFEF76AFE401B64284FF0030057
:101E1000F4D9C2E520F480703060FEF75FFE05461D
:101E2000306840057FF532AEFEF758FE401B0228B1
:101E30004FF00300F4D9B0E5A5F17000B0FA80F0DE
:101E40004009802D08BF022001E000BF002042F2BF
:101E50000001C4F202010A6822F0070202440A608B
:101E6000096801F00701814240F08480306840F049
:101E7000080030603068D4E9072120F0F000084302
:101E80003060706820F47F4040EA022070605FE0BC
:101E9000FFF706FAB0F5007F06D1812D40D301206F
:101EA000A02D88BF022045E0802D3BD9032041E0D2
:101EB000FEF714FE054641F28837D6F890008007F9
:101EC00008D5FEF70BFE401BB8424FF00300F4D9D3
:101ED00063E500BFB8F1000F7FF4DEADB06D20F018
:101EE0008050B065D8E500BFF0684FF6FC71CFF6C2
:101EF000EE610840F060002003B0BDE8F08300BF51
:101F0000FEF7ECFD0546306880037FF58EADFEF7E9
:101F1000E5FD401B64284FF00300F4D93DE500BF08
:101F2000002007E0A5F17000B0FA80F04009802D94
:101F300008BF022042F20001C4F202010A6822F046
:101F4000070202440A60096801F00701814211D1C9
:101F5000B068F16810F00C0005D00C282AD101F00F
:101F60000301012926D13168090707D4D6F8941056
:101F7000090A05E0012003B0BDE8F08331680909D2
:101F800043F6A86201F00F01C0F6000252F82110DA
:101F900000280A4618BF00220C2837D1F06800F04C
:101FA0000300022810D0032804BF41F20021C0F230
:101FB0007A010DE004281FD0082823D141F2002225
:101FC000C0F27A0222E000BF42F20041C0F2F40106
:101FD000F068F268C0F30210C2F306225143F268BF
:101FE0000130B1FBF0F0C2F34161022202EB41018A
:101FF000B0FBF1F20AE000BF42F20042C0F2F4028C
:1020000004E000BF002200210C28C7D0B06843F6CE
:102010009061C0F30310C0F60001085C00F01F00DF
:1020200022FA00F140F20800C2F2000040F20C0275
:102030000068C2F200021160FFF760F800287FF428
:10204000ACAC6DE4F06848F28C01C0F29D1104F173
:102050002C0700EA010C8ECF6FF00F00D4E90F546B
:1020600000EB02100022CFF6E07241EA0C0102EB15
:10207000055208436FF314024FF07E4540EA0320F7
:1020800005EB0465104305F07E4540EAC760284330
:10209000F060306840F080703060F06840F0807030
:1020A000F060FEF71BFD04463068800108D4FEF79F
:1020B00015FD001B02284FF00300F5D96DE400BFA9
:1020C000002003B0BDE8F083411E0020B0EB116F8B
:1020D0001CBF012070474EF21002CEF20002516088
:1020E0004EF62351CEF20001F0230B7007219060D1
:1020F0001160704770470000704700007047000093
:10210000B0B501680446C8690D6840F62F028B68B7
:102110000240202A05F0200E0AD1BEF1000F07D0A0
:10212000616E00293CD02046BDE8B040084700BFA2
:1021300040F60F02104209D040F22012C0F20042D5
:1021400003F0010C2A4012EB0C0215D1226E012A79
:1021500005D110F0100218BF15F0100222D1C202F2
:1021600014D513F4800211D04FF4801220460A6275
:10217000BDE8B040FFF7C0BFC20718BF15F48072BA
:1021800040F09681820700F19D81A6E1020640F1B0
:10219000998015F0800200F09580A16E0029C2D1CF
:1021A000B0BD00BF102008628868400600F1C28000
:1021B000B4F85800B4F85A20B4F85A30002B1CBFB9
:1021C000801A5FEA0042EBD001E000BF216851E8CD
:1021D000001F226821F4907142E80013DBB12168EE
:1021E00051E8001F226821F4907142E8001393B176
:1021F000216851E8001F226821F4907142E8001321
:102200004BB1216851E8001F226821F4907142E827
:102210000013002BDAD1216851E8021F226821F057
:10222000010142E80213DBB1216851E8021F226874
:1022300021F0010142E8021393B1216851E8021F25
:10224000226821F0010142E802134BB1216851E8F4
:10225000021F226821F0010142E80213002BDAD1AB
:102260002021E167002121666166216851E8001F95
:10227000226821F0100142E80013002B00F01181C8
:10228000216851E8001F226821F0100142E8001384
:10229000002B00F00681216851E8001F226821F020
:1022A000100142E80013002B00F0FB80216851E888
:1022B000001F226821F0100142E80013002BD4D146
:1022C000EFE000BF40067FF56BAF15F0400008BFA0
:1022D000B0BD51E8000F00BF216820F0400041E888
:1022E0000002002A00F0E281206850E8000F216817
:1022F00020F0400041E80002002A00F0D781206869
:1023000050E8000F216820F0400041E80002002A58
:1023100000F0CC81206850E8000F216820F04000D8
:1023200041E80002002A00F0C181206850E8000F57
:10233000D2E700BF206F0268536898B200283FF4CC
:102340002FAFB4F858C06045BFF42AAFA4F85A3094
:102350001068800600F1A18051E8000F216820F488
:10236000807041E80002FAB1206850E8000F21684F
:1023700020F4807041E80002B2B1206850E8000FFC
:10238000216820F4807041E800026AB1206850E8BA
:10239000000F216820F4807041E8000222B120681B
:1023A00050E8000FDAE700BF206850E8020F21680C
:1023B00020F0010041E80202BAB3206850E8020FA1
:1023C000216820F0010041E8020272B3206850E861
:1023D000020F216820F0010041E802022AB32068C0
:1023E00050E8020F216820F0010041E80202002AB3
:1023F000DAD11AE0206850E8020F216820F040008E
:1024000041E80202DAB1206850E8020F216820F0AA
:10241000400041E8020292B1206850E8020F2168B2
:1024200020F0400041E802024AB1206850E8020F63
:10243000216820F0400041E80202002ADAD1202081
:10244000E06700202066206850E8000F216820F037
:10245000100041E80002DAB1206850E8000F21685E
:1024600020F0100041E8000292B1206850E8000F0F
:10247000216820F0100041E800024AB1206850E8CD
:10248000000F216820F0100041E80002002ADAD194
:10249000206FFEF7C7F9B4F858C0B4F85A00ACEB97
:1024A000000081B22046BDE8B040FFF723BE00BF68
:1024B00001220A62D4F8802042F00102C4F8802090
:1024C00082070AD5BCF1000F07D002220A62D4F8B5
:1024D000802042F00402C4F8802042070AD5BCF1F3
:1024E000000F07D004220A62D4F8802042F00202D2
:1024F000C4F8802002070AD55EEA0C0207D0082241
:102500000A62D4F8802042F00802C4F88020020554
:102510000BD515F0806208D04FF400620A62D4F83F
:10252000802042F02002C4F88020D4F88020002AC5
:102530003FF436AE10F0200018BFBEF1000F40F09F
:10254000BF80D4F880008A6800F0280002F04002C2
:10255000801807D12046FFF7D1FD0020C4F8800085
:10256000B0BD00BF51E8000F216820F4907041E831
:102570000002D2B3206850E8000F216820F4907068
:1025800041E800028AB3206850E8000F216820F477
:10259000907041E8000242B3206850E8000F2168C3
:1025A00020F4907041E80002FAB1206850E8000F72
:1025B000DAE700BF206850E8020F216820F0010030
:1025C00041E80202DAB1206850E8020F216820F0E9
:1025D000010041E8020292B1206850E8020F216830
:1025E00020F0010041E802024AB1206850E8020FE1
:1025F000216820F0010041E80202002ADAD1206EB1
:10260000012824D1206850E8000F216820F0100034
:1026100041E80002DAB1206850E8000F216820F09C
:10262000100041E8000292B1206850E8000F2168D4
:1026300020F0100041E800024AB1206850E8000F85
:10264000216820F0100041E80002002ADAD12020A1
:102650000021E0672166206861668168490649D5E6
:1026600050E8020F216820F0400041E802027AB3EE
:10267000206850E8020F216820F0400041E8020283
:1026800032B3206850E8020F216820F0400041E892
:102690000202EAB1206850E8020F216820F04000F1
:1026A00041E80202A2B12068DAE700BF2020002141
:1026B000A0672046A166BDE8B04000F03BB900BF6E
:1026C000626E002A3FF43DAF20469047216838E70C
:1026D000206F78B142F6A571C0F600018163FEF764
:1026E000C7F800283FF45CAD206F816BBDE8B040B7
:1026F000084700BF2046BDE8B040FFF7FFBC000020
:10270000B0B582B0A0B10446806F28B9002084F82B
:102710007400204600F056F82420A0672068016865
:1027200021F001010160204600F044FC012803D1A2
:10273000012002B0B0BD00BF606A10B1204600F0B9
:10274000BDFB2068416821F490414160816821F01F
:102750002A018160016841F0010101600020C4F894
:102760008000FEF7BBF9216805460A6812070CD500
:102770006FF07E4C20464FF4001100222B46CDF81E
:1027800000C000F02FFD78B92168086840070FD518
:102790006FF07E4C20464FF4800100222B46CDF88E
:1027A00000C000F01FFD18B1032002B0B0BD00BF93
:1027B0002020A067E0670020206684F8740002B043
:1027C000B0BD000010B59CB00446684604305821E6
:1027D000FDF733FD206843F60001C4F20101884291
:1027E00002D01CB010BD00BF012000906846FEF76B
:1027F0005FFD002818BFFEF70FF841F24C00C4F24D
:102800000200416941F480414161416901F4804124
:1028100017911799016841F001010160006817A93B
:1028200000F00100179017984FF4C0601790022035
:1028300018900020199003201A9007201B904FF049
:102840009040FEF755F8252000210022FEF7A6FC57
:102850002520FEF793FC1CB010BD00002DE9F043CD
:1028600081B00446806F20280BD10E4600294FF01E
:1028700001005CD01746002A59D094F87400012852
:1028800004D1022001B0BDE8F08300BF012084F82C
:1028900074004FF0000921201D46C4F88090A06705
:1028A000FEF71CF9A4F85070A4F85270A16807460E
:1028B000B1F5805F08D1206900281CBF30464E4624
:1028C000B046064602E000BF4FF0000884F874905E
:1028D00009E000BF16F8010B21680885B4F8520022
:1028E0000138A4F85200B4F8520088B12046802183
:1028F00000223B46009500F075FC88B9002EE9D116
:1029000038F8020B21686FF35F2008850026E5E7A1
:102910002046402100223B46009500F063FC18B1A0
:10292000032001B0BDE8F0832020A067002001B0A3
:10293000BDE8F08370470000FEE700002DE9F0439A
:1029400081B0036804469869C00605D400200021C0
:102950009A69D70560D465E01020D861986980062F
:1029600053D48846481C46D016464FF0200900250F
:1029700006E000BF0027986900F02000384335D1F9
:10298000FEF7ACF82368B8F1000F02D0801B404579
:10299000F0D9596894F842009A6912040CD511F4E0
:1029A000804109D1202807D0586840F48040586001
:1029B000FEF794F8236806469869002702E000BFF6
:1029C000236898698006D6D4FEF788F8801B1A28F9
:1029D000F6D3606C012740F02000606484F84190D9
:1029E00084F8425084F84050EAE700BF7FB90CE019
:1029F0009869800609D49869800606D4986980068B
:102A00005CBF98695FEA8060F2D52020D86101211F
:102A100004209A69D70505D54FF4807140F0010074
:102A2000D9610121570507D492050BD479B900204B
:102A300001B0BDE8F08300BF08304FF4806192051B
:102A4000D96104D540F002004FF40071D961996951
:102A5000890744BF002199629969C90703D199691F
:102A600041F00101996159684EF60002CFF600620B
:102A700011405960616C08436064202084F8410073
:102A8000002084F8420084F84000012001B0BDE835
:102A9000F083000070B515460446A9B10E4600BF8C
:102AA0002068806940071DD4204631462A46FFF73A
:102AB00045FFA8B920688169890627D4FEF70EF87A
:102AC000401BB042ECD915E020688069400744BF44
:102AD000002070BD204600212A46FFF72FFF18B1C5
:102AE000012070BD002070BD2068816989060DD469
:102AF000FDF7F4FF606C40F020006064202084F853
:102B00004100002084F84000012070BD8169490720
:102B100004D5218D00291CBF002070BD82694EF6AE
:102B20000006D2064FF0000242BF1022C26104220A
:102B300062642022C2614368CFF600660021334000
:102B4000436084F8412084F84210002084F840005B
:102B5000012070BD70B5044600688069800710D4FC
:102B600015460E4611B3701C17D100BF20464FF01A
:102B7000FF312A46FFF7E2FEF0B92068806980073E
:102B8000F4D5002070BD00BFFDF7A8FF401BB04288
:102B900016D8206880698007F3D4204631462A463B
:102BA000FFF7CCFE0028EFD006E000BF2046002152
:102BB0002A46FFF7C3FE08B1012070BDFDF78EFF66
:102BC000606C40F020006064202084F84100002008
:102BD00084F8420084F84000012070BD2DE9F043E4
:102BE00087B0002741F24C000697C4F2020001684A
:102BF00040F2004941F0040101600168C4F6000997
:102C000001F0040101910199016809F5806541F025
:102C1000010101600168002201F0010101910199A7
:102C200001684FF4005641F00201016000684FF462
:102C3000005100F00200019001982846FDF748FF7E
:102C400048464FF4007100224FF40078FDF740FF32
:102C5000029602AE012428463146CDE90347059786
:102C6000FDF746FE48463146CDE90284CDE90477BA
:102C7000FDF73EFE07B0BDE8F083000080B540F2EE
:102C8000100045F20041C2F20000C4F2000143F618
:102C90005B520023C0F230024FF0010C80E80E10AE
:102CA000C0E90433C0E906330362FDF767FF00287B
:102CB00018BFFDF7B1FD40F21000C2F20000002184
:102CC000FDF712FF002818BFFDF7A6FD40F2100027
:102CD000C2F200000021FDF72DFF002808BF80BDD3
:102CE000BDE88040FDF798BD80B540F2640043F632
:102CF0000001C2F20000C4F2010100234FF00C0CED
:102D00004FF4E13280E80E00C0E90333C0E905C3A7
:102D1000C0E907334362FFF7F3FC002808BF80BD1A
:102D2000BDE88040FDF778BDFEE70000FEE700004B
:102D300070470000F0B581B041F20007C4F202070D
:102D4000FA680D469107044614D0F868216800F02F
:102D5000030088424FF0010040F09F80002900F0FE
:102D60009C80F8686168C0F302100130884232D15B
:102D700034E000BF206803280CD0022816D00128B8
:102D800029D13968012211F0020182EA510116D1DC
:102D900020E000BF3968890310D43968012211F49A
:102DA000802182EA91410AD114E000BF39680122F2
:102DB00011F4806182EA912101D10BE00021FA68CF
:102DC000636822F073026FF00F0606EB03131043E3
:102DD0001843F86011B1012001B0F0BD386820F04F
:102DE00080603860FDF77AFE064600BF3868000153
:102DF00006D5FDF773FE801B0228F7D944E000BF1B
:102E0000012D0DD0F5B9386948F2FF01C0F2FF710C
:102E10000840D4E9021240EA012040EAC26022E000
:102E200048F2FF013869CFF6FF112269002301F152
:102E3000B461CFF6E0730840A16803EB02526FF370
:102E400014020DE0386948F2FF016269CFF6FF1104
:102E50004FF07E430840A16803EB026202F07E421D
:102E600040EA012010433861386840F080603860E3
:102E7000FDF734FE054600BF3868000108D4FDF7B1
:102E80002DFE401B0228F7D9032001B0F0BD00BF82
:102E9000A069396908433861002001B0F0BD000025
:102EA00070470000FEF70CB94EF68850CEF20000D5
:102EB000016841F4700101607047000080B5416A0B
:102EC000CA070DD18A0716D44A071FD40A0728D487
:102ED000CA0631D48A063AD44A0658D542E000BF21
:102EE0000268D0F828C0536823F4003343EA0C0387
:102EF00053608A07E8D50268D0F82CC0536823F4E1
:102F0000803343EA0C0353604A07DFD50268D0F8E8
:102F100030C0536823F4802343EA0C0353600A074C
:102F2000D6D50268D0F834C0536823F4004343EA8E
:102F30000C035360CA06CDD50268D0F838C0936838
:102F400023F4805343EA0C0393608A06C4D50268D5
:102F5000D0F83CC0936823F4005343EA0C03936019
:102F60004A0614D50268D0F840C05368BCF5801FEB
:102F700023F4801343EA0C03536008D1D2F804C051
:102F8000D0F844E02CF4C00343EA0E035360090672
:102F900058BF80BD0168806C4A6822F4002210434B
:102FA000486080BD806A0021A0F85A10A0F8521035
:102FB000FFF7A4B8B0B505462A69D5E90213006841
:102FC0000A436969D5F81CE01143026846F6F31418
:102FD000CEF6FF7441EA0E012240114301604168C0
:102FE00048F2000C21F4405119434160AA69C4F22F
:102FF000000C60451CBF296A0A438168102321F434
:1030000030611143816047F6FF71C4F200018842CC
:1030100012DC44F20041C4F2000188421CD044F6A4
:103020000001C4F2000188422CD141F28801C4F2AF
:10303000020109680B091DE0604515D043F6000147
:10304000C4F2010188421DD141F28801C4F202019B
:103050000B6860A212E000BF41F28801C4F20201D5
:1030600009688B0806E000BF41F28801C4F2020142
:1030700009688B0A43F6D862C0F6000203F0030128
:1030800052F82130604542F20040C0F2F40015D001
:10309000BEF5004F22D1082B4FF0010100F29580C0
:1030A000DFE803F006546093589393935E0000BFEB
:1030B000FEF794FB002855D14FE000BF082B4FF0DE
:1030C000010100F28280DFE803F0058023801B808D
:1030D00080802100FEF782FBD0B914E0082B4FF06E
:1030E000010100F27280DFE803F005535F70577052
:1030F00070705D00FEF772FB002855D14FE000BFF5
:10310000FEF798FB20B900215FE000BF4FF40040BC
:103110006A6802EB420188424FF0010155D3130364
:10312000984252D8010E000210EB520041F100010A
:103130000023FDF747F84FF60052A0F54071C0F2AA
:103140000F0291423BD301213FE000BFFEF75CFB41
:1031500040B902E0FEF76EFB20B9002135E000BF68
:103160004FF4004069684A0802EB4000B0FBF1F000
:103170004FF6EF72A0F11001914207D84FF6F071AF
:103180000140C0F34200084419E000BF01211CE0E7
:10319000FEF73AFB40B902E0FEF74CFB20B90021F4
:1031A00013E000BF4FF4004069684FF6EF7200EB88
:1031B0005100B0FBF1F0A0F11001914204D8296850
:1031C000C860002101E000BF0121002208466A66B4
:1031D000AA66B0BD0100000004000000020000006B
:1031E000080000002DE9F041044600681546C26958
:1031F0000E461140891BB1FA81F14909A94240F0FC
:10320000A080DDF81880B8F1000F29D018F1010175
:1032100040F08080C1693140891BB1FA81F14909D0
:10322000A94240F08E80C1693140891BB1FA81F119
:103230004909A94240F08580C1693140891BB1FA32
:1032400081F14909A9427CD1C1693140891BB1FA98
:1032500081F14909A942DDD00020BDE8F08100BF1D
:10326000FDF73CFC206850E8000F216820F4D07086
:1032700041E80002BAB3206850E8000F216820F44A
:10328000D07041E8000272B3206850E8000F216856
:1032900020F4D07041E800022AB3206850E8000F03
:1032A000216820F4D07041E80002002ADAD11AE047
:1032B000206850E8020F216820F0010041E8020276
:1032C000DAB1206850E8020F216820F0010041E8DF
:1032D000020292B1206850E8020F216820F001003C
:1032E00041E802024AB1206850E8020F216820F04C
:1032F000010041E80202002ADAD12020A06704F18F
:103300007C0020210160002084F874000320BDE8C7
:10331000F08100BF1F4600BFFDF7E0FBC01B40452A
:10332000A0D820680168490744BFC1695FEA01511C
:103330000AD4C0693040801BB0FA80F04009A8422E
:10334000EAD00020BDE8F0814FF40061016200BFC7
:1033500050E8000F216820F4D07041E80002C2B3A9
:10336000206850E8000F216820F4D07041E8000286
:103370007AB3206850E8000F216820F4D07041E84B
:10338000000232B3206850E8000F216820F4D070AA
:1033900041E80002EAB12068DAE700BF206850E89F
:1033A000020F216820F0010041E80202DAB1206832
:1033B00050E8020F216820F0010041E8020292B1BA
:1033C000206850E8020F216820F0010041E8020265
:1033D0004AB1206850E8020F216820F0010041E85E
:1033E0000202002ADAD12020A067E06704F1800001
:1033F00087E7000040F26400C2F20000FEF780BEE2
:10340000FEE7000080B582B08DF8070040F264004E
:10341000C2F200000DF1070101224FF6FF73FFF722
:103420001DFA002002B080BD98B0FDF757FE07A836
:1034300004302421FCF701FF4FF40070FDF7EAFE91
:1034400020B1EFF3108072B6FEE700BF12200790A4
:103450004FF480700A90102060210B9001200F9192
:1034600002210D90CDE9111013902820149007200F
:103470000024CDE9150107A80E941791FEF73CFA38
:1034800020B1EFF3108072B6FEE700BF0F2002906C
:103490000320CDE903044FF48060CDE9050402A8C0
:1034A0000421FEF75DF828B1EFF3108072B600BF7B
:1034B000FEE700BFFFF792FBFFF7E0FBFFF714FC0E
:1034C0009FED2D0B40F2100440F200464FF0FF0B31
:1034D000C2F200040DF108080DF11C0955EC107B37
:1034E0000FF29C0AB0EE008AC4F6000611208DF897
:1034F00008000020ADF81C0020464621424601236A
:10350000CDF800B0FDF78EFCB420FDF7DDF92046C4
:1035100047214A460223CDF800B0FDF781FBBDF8F4
:103520001C00000400BA00EE100AB8EEC00A10EE4B
:10353000100AFCF7FCFE3A462B46FCF789FEFCF726
:1035400009FF09EE100AFCF7F2FE024650460B4650
:1035500000F01EF8B4EE489A002230464FF4007195
:10356000F1EE10FAB8BF0122FDF7B2FA4FF47A700B
:10357000FDF7AAF9BAE700BF333333333333F33FF0
:103580004248313735303A252E32660D0A000000A8
:103590000FB4054B10B503A9044A029800F0DEF8F9
:1035A00010BC5DF814FB000005340008000000208A
:1035B00002E008C8121F08C1002AFAD170477047FC
:1035C000002001E001C1121F002AFBD1704700005A
:1035D0002DE9FF5F82B00021DDE90430020DDDF846
:1035E00040B0034318D044F61050A2F2FF324243D9
:1035F0001514119801281FD0A5EB0B00401C5FEAA1
:10360000000A4FF000064E4FDFF83891B0465046A2
:1036100015D5CAF1000413E0119801244AA301282A
:1036200001D16FEA0B010298119AC0E90031C0E99B
:10363000024206B000F08EB8CBF10000DFE704468E
:103640000021404A491842EB0450CDE9001012E035
:10365000E00707D032463B4640464946FDF70EF8A4
:103660008046894632463B4610461946FDF706F825
:1036700006460F466410002CEAD1DDE90401DDE9BD
:103680000023BAF1000F06DAFCF7F8FF42464B467A
:10369000FCF7F4FF05E0FCF7DBFD42464B46FCF788
:1036A000D7FD04460E460022284BFDF775F803D8D7
:1036B0004FF0FF30014607E00022254B20463146FF
:1036C000FCF72DFFFDF74FF8102409E0002C0ADB72
:1036D0000A220023FCF776FD039B30321A55641E44
:1036E00050EA0102F2D1641C039AC4F1110314449C
:1036F000119A012A03D0012208430DD10AE00843A0
:1037000004D000204FF0110B119072E7A3EB0B05D2
:103710006D1E0DE05B4504DD4FF0000205F1010573
:1037200004E003DA4FF00002A5F10105002AECD015
:1037300002981199C0E90231C0E9004579E700001B
:10374000000014400000F03F300000000000F04393
:103750000000E03F30BCBDE8C09F00002DE9FF4FF6
:1037600095B09B468946064600250FE2252877D16D
:1037700000242746F84A0121059400E0044316F886
:10378000013F203B01FA03F01042F7D130782A289C
:1037900011D06FF02F033078A0F13002092A16D82B
:1037A000059A44F0020402EB820203EB4202104449
:1037B000761C0590EFE759F8042B0592002A03DAEE
:1037C000504244F40054059044F00204761C3078D2
:1037D0002E2816D116F8010F44F004042A280DD023
:1037E0006FF02F023078A0F13003092B09D807EBD6
:1037F000870302EB4303C718761CF3E759F8047BF1
:10380000761C30786C280FD006DC4C2817D068283E
:103810000DD06A2814D104E0742810D07A280FD172
:103820000DE044F400140AE044F4801401E044F490
:1038300040147278824202D104F58014761C761C02
:10384000307866280BD013DC582877D009DC0028A4
:1038500075D04528F6D04628F4D047281AD19DE1E6
:1038600018E0632835D0642879D0652812D195E115
:10387000702873D008DC6728F1D069286FD06E28D3
:103880000DD06F2806D1B5E073282CD0752875D0DF
:10389000782874D05A46179990476D1C75E1C4F387
:1038A0000250022809D003280DD0D9F800100428AE
:1038B0000DD00D6009F1040967E1D9F80010EA178D
:1038C000C1E90052F6E7D9F800100D80F2E70D705B
:1038D000F0E719F8041B8DF8001000208DF80100A6
:1038E000EA46012003E059F804AB4FF0FF306107CE
:1038F0004FF0000102D40DE008F101018846B94201
:103900000FDA8045F8DB1AF808100029F4D108E036
:1039100008F1010188468142FADB1AF808100029F3
:10392000F6D105985B46A0EB080721463846179A62
:1039300000F097FA284400EB080507E04DE029E184
:103940000DE01AF8010B5A4617999047B8F1010893
:10395000F7D25B4621463846179A13E142E00A2225
:103960000092C4F302524FF0000A022A08D059F81C
:1039700004CB032A4FEAEC710AD00DE029E02AE0DB
:1039800009F1070121F00702F2E802C1914609E0BE
:103990000FFA8CFC4FEAEC71042A03D14FFA8CFC2D
:1039A0004FEAEC71002907DA0A460021DCF1000C2D
:1039B00061EB02012D2202E0220504D52B228DF8B5
:1039C0000420012203E0E20701D02022F7E790461D
:1039D00059E00A2102E010220DE010214FF0000A08
:1039E00000910BE010224FF0000A44F00404082775
:1039F000009203E008224FF0000A0092C4F3025242
:103A0000022A05D059F804CB0021032A08D009E086
:103A100009F1070121F00702F2E802C1914605E031
:103A20001FFA8CFC042A01D10CF0FF0C4FF00008A7
:103A3000220728D5702806D0009B83F0100353EA94
:103A40000A0305D00EE040228DF80420012208E090
:103A50005CEA010206D030228DF804208DF80500C2
:103A600002229046009B83F0080353EA0A030AD11E
:103A70005CEA010201D1620705D530228DF80420ED
:103A80004FF001087F1E582804D034A003900EA8E0
:103A900002900DE036A0F9E753466046009AFCF725
:103AA00091FB84460398825C0298401E029002704B
:103AB0005CEA0100F0D1029806A9081A00F1200A78
:103AC000600702D524F4803400E00127574502DD69
:103AD000A7EB0A0000E0002000EB0A010090059827
:103AE0004144401A0590E00306D45B462146179AEC
:103AF000059800F0B6F90544002706E001A85A46EB
:103B0000C05D179990476D1C7F1C4745F6DBE003AD
:103B10000CD55B462146179A059800F0A2F905449A
:103B200004E030205A46179990476D1C0099481EB2
:103B300000900029F5DC08E0029802995A460078C6
:103B4000491C0291179990476D1CBAF10001AAF126
:103B5000010AF1DC65E1000009280100303132334F
:103B600034353637383961626364656600000000B9
:103B700030313233343536373839414243444546A3
:103B80000000000000F05BF90544761C3078002846
:103B90007FF4ECAD19B0284600F04EB9620700D4AE
:103BA000062709F1070222F0070CFCE80223E14690
:103BB00003F000485FEA080C02D00FF2702C0DE011
:103BC0005FEA045C02D50FF2682C07E05FEAC47C70
:103BD00002D00FF2602C01E0AFF2700C4FF0FF3812
:103BE00023F00043CDF850C065280CD006DC4528F2
:103BF00009D046281DD047283DD13DE0662818D081
:103C000067287ED138E00021112F01DB112000E070
:103C1000781CCDE9000106A90EA8FFF7D9FCDDE963
:103C20000F010E9A03910021009207F1010A0491FD
:103C30004DE04FF000400097CDE9011006A90EA815
:103C4000FFF7C6FCDDE90F0203920E9B11990022DB
:103C5000DDF80CA00093049211B9791C00EB010A65
:103C6000B7EB0A0004D4C0F1FF3007F1010A049059
:103C7000AAEB0700019044E0012F00DA01270021A0
:103C8000112F01DD112000E03846CDE9000106A921
:103C90000EA8FFF79DFCDDE90F010E9A03910021AC
:103CA00004910092BA4621070CD40399514500DAD9
:103CB0008A46BAF1010F05DD009AAAF10101515CB3
:103CC000302908D0B84202DA10F1040F06DA0121D7
:103CD000CDE9011015E0AAF10101E9E7002805DCB2
:103CE000049901440491AAEB000102E0411C5145F2
:103CF00000DD8A460499401A401C01904FF00040B4
:103D00000290200704D40198504501DBCDF80480CF
:103D100000208DF84F0002980DF14F07B0F1004FD1
:103D200025D02B200E9002984FF0020800280CDAC4
:103D3000404202902D200E9007E00A210298FCF7E5
:103D400025FB3031029007F8011DB8F10001A8F100
:103D50000108F2DC02980028EFD1791E0E98087055
:103D6000307800F0200040F0450007F8020D12A85E
:103D7000C01B00F107081498007800B1012000EB87
:103D80000A01019801EBE07105984144401A401E78
:103D90000590E00306D45B462146179A059800F08B
:103DA00060F805441498007818B15A46179990475E
:103DB0006D1CE00324D55B462146179A059800F058
:103DC00050F805441CE00498002807DBDDE90301F6
:103DD000884203DD0098405C179901E01799302074
:103DE0005A469047049805F10105401C049001983B
:103DF000401E019004D12E205A46179990476D1C01
:103E0000BAF10001AAF1010ADDDC05E017F8010BA7
:103E10005A46179990476D1CB8F10001A8F10108A6
:103E2000F4DC5B462146179A0598ABE62D000000AE
:103E30002B0000002000000030BCBDE8C08F2DE941
:103E4000F041044600251E461746880404D405E0C8
:103E500039462020B0476D1C641EF9D52846BDE8C0
:103E6000F0812DE9F041044600251E469046C80326
:103E700001D5302700E02027880404D505E041461D
:103E80003846B0476D1C641EF9D52846BDE8F08160
:103E900000000000000000000102030406070809FA
:103EA0000000000001020304A0860100400D030091
:103EB000801A060000350C0040420F0080841E006E
:103EC00000093D0000127A000024F40000366E0163
:103ED0000048E801006CDC02000000000400000063
:103EE0000200000008000000083F00080000002059
:103EF00010000000B0350008183F00081000002036
:103F0000E0040000C03500080000000001000000CF
:083F10001000000000093D0053
:040000050800018D61
:00000001FF
