:020000040000FA
:1000000002005000000080FB12005FB900030200F4
:100010004AE4900200780379018002F0A3D8FCD969
:10002000FA900202AA82AB8390006278E77901809D
:1000300015E493A3AC82AD838A828B83F0A3AA825A
:10004000AB838C828D83D8E9D9E71213A412000305
:1000500075D0007581BF7510007511020200087916
:100060000122735F6D656173757265206572726FD1
:1000700072006572726F7200000080C054E3253D0B
:10008000A2E73BB60AD7233CACC5A7380AD7233C26
:10009000000020C20000C8C10100C8420000C842E0
:1000A000CDCCCC3D0000F040CD4C6D433928293FEC
:1000B000000000C0392829BF25660074656D703ABC
:1000C000002068756D693A000D0A00F304353F00A1
:1000D0000080BF0000803F1872313F2292D43EDD85
:1000E0009B2A3F040000400100000000000000D8EF
:1000F0005BDE3E30313233343536373839414243B6
:1001000044454600286E756C6C20706F696E74658E
:100110007229003031323334353637383961626311
:10012000646566003F3F3F00F9021550B743BA517E
:100130000000204100E7DB2E0000A040100000007E
:10014000080000000A000000E066701008A3E066E6
:10015000700A08A3E066700408A3E06622C3E7966D
:100160000809E7960809E7960809E796A2D265D03C
:100170003322080808E630E7111209AE12018A0896
:100180000808C64480C618181822181818E9799E5D
:10019000C608CAC608CBC608CCC6C370207996CAA2
:1001A000CBCC7019798ECBCC70137986CC700EF9CC
:1001B000802ACA33CACB33CBCC33CC331930E7F2E5
:1001C000CCCBCA3350147004EA30E00DE4CA3ACA0A
:1001D000CB3BCBCC3CCC500209C3E913C6CC182393
:1001E00013C6CB18C6CA18C6F92212022A20F01468
:1001F00030E72B74FFFCFBFA747F8022E4FCFBFAEF
:100200007480801AB48008BC00F2BB00EF800F50ED
:10021000EBF9E4C39AFAE49BFBE49CFCE499C6CCBA
:1002200018C6CB18C6CA18C6F922E4C9C608CAC679
:1002300008CBC6D3330308CCC63392F0C3947F40B7
:100240002E94184019C9B90704CACBCC225025C333
:1002500009CA33CACB33CBCC33CC33D9F422F460C4
:100260000DC9CCC313CB13CBCA13CAD9F6CC22E425
:10027000FCFBFA2214FCFBFA22E6C33318461846AC
:10028000184622E7C3331947194719472218181887
:10029000E6084608700AE608C3337005E633F42220
:1002A0000822191919E7094709700AE709C33370C9
:1002B00005E733F4220922E6084608C3134608334B
:1002C0006002E633F422E7094709C31347093360A4
:1002D00002E733F4221202B760251202C660201230
:1002E00002797003020283080808E7667010181983
:1002F000E766700A1819E76670041819E76622F4B1
:10030000221202B7601C1202C6601712027970072F
:100310001202837001D322C0D01202837006D0D0A3
:10032000B322C32233D0D0501430E0F6C3E796088E
:1003300009E7960809E7960809E796B32220E0D571
:10034000E6970809E6970809E6970809E697B322B1
:100350001202B7601B1202C66016120279700712F1
:100360000283600CB322C0D01202837005D0D02269
:10037000C32233D0D0501330E0EBC3E7960809E72F
:10038000960809E7960809E7962220E0E4E6970830
:1003900009E6970809E6970809E69722001202B7CE
:1003A000604F1202C66012E7548066F612028D702A
:1003B00011120283703B090909F4F618F618F618B1
:1003C000F6221202A2701512027908080860EAE605
:1003D000447FF618768018E4F618F6221202796047
:1003E000161202837012E4F608F608F608E6548046
:1003F000F609090918181822EAC0E0EBC0E0ECC0C1
:10040000E0EDC0E0E687F0A4FBACF008E687F0A4DE
:100410002CFCE435F0FA1809E687F0A42C4B6002B6
:100420007401CA35F0FCE433FB09E687F0D2F7A487
:100430002CCB35F0FC1908E687F0A42BCC35F0FB6B
:10044000E433FD0819E687F0D2E7A42C4ACB35F057
:10045000CD3400FC09E687F0D2E7A42DCC35F0FDC1
:10046000E433FA0918E687F0D2F7A42CCD35F0CAA8
:100470003400FC08E687F0D2E7D2F7A42ACC35F0A6
:100480007A7E20E70B0ACB33CBCD33CDCC33CC33C4
:10049000CB3350147004ED30E00ED2F1E4CD3DCDFD
:1004A000CC3CCC3B5005DA05C2F1EB547FC6330897
:1004B000E63392F0FBE73309E733C39A502D2B70F4
:1004C000190C0D4C4D70151806E608C333700D203D
:1004D000F10AA2F013F6E418800B4024E4F630F0A1
:1004E00002768018F618F618F68024D33B145010C4
:1004F00074FFA2F013F6187680E418F618F6800F51
:10050000A2F013F618E63303F618ECF618EDF6D061
:10051000E0FDD0E0FCD0E0FBD0E0FA221202C660A1
:10052000461202B7603DE9687008F618F618F6182A
:10053000F622748067F7120550090909748067F77D
:10054000221202B7601D1202C67005191919801A0D
:1005500012028D701F1202A2C37003E667331919CD
:100560001940071818182208080874FFF618F6181A
:10057000F618F6221202A26017120283702192F07E
:100580001202797019501720F01408080809090997
:10059000E7F61819E7F61819E7F61819E7F6221220
:1005A000027960E6E869701F0808E62480F608E42E
:1005B00036F618547FB47F0CE654806007F6E418D2
:1005C000F618F622181822E9C6CC08C6CD08C6CE01
:1005D00008C6CFC0E0E8C0E0EAC0E0EBC0E009E94F
:1005E000F809E7FA09E7FBE6F918E6F8C3EC98ED35
:1005F00099EE9AEBC2E7F5F0EFC2E795F0500E6086
:100600000CEBCFFBEACEFAE9CDF9E8CCF8EAA2E7A9
:10061000D2E7FAEB33FB13F5F0EEA2E7D2E7FEEFF9
:1006200033FFC5F013A2E730E601B313C5F0C3C032
:10063000E0C0F07F00C39BFB605B9418600C401A25
:10064000D0E023F9D0E0F802071F8AF0E948600300
:10065000D2F0E4AFF0FAF9F8803BEB30E40D89F02A
:10066000EA6003D2F0E4AFF0F9CAF8EB30E30D88AA
:10067000F0EF6002D2F0AFF0E4CAC9F8EB540760C3
:1006800014FBC3EA13FAE913F9E813F8EF13500265
:10069000D2E0FFDBEDD0E0C0E030E739C3E49FFFFC
:1006A000F5F0EC98FC42F0ED99FD42F0EE9AFE4236
:1006B000F0D0E0F9D0E0F8E5F0607AE923F9EE2037
:1006C000E742D8028067C3EF33FFEC33FCED33FD24
:1006D000EE33FE80EAEC28FCED39FDEE3AFED0E088
:1006E00023F9D0E0F84002801BC3EE13FEED13FDAA
:1006F000EC13FCEF135002D2E0FF08B800067F7F36
:1007000074FF802EEF3350178CF020F00260100C35
:10071000BC000C0DBD00080EBE000408E860DFE957
:1007200033E813FFEE2313FE4F4D4C8008E954804D
:10073000FFE4FEFDFCEE33EF33F47004FCFD7E803D
:10074000D0E0FBD0E0FAD0E0F8D0E0CFC618CEC6BB
:1007500018CDC618CCC6F9221202B77004181818A2
:10076000221202C6700D74FFF61819F61819F61841
:1007700019F622E7548066F6120279700F1202838E
:1007800070F014F608F608F608F680D112028370AD
:100790000CF608F608768008E6447F80EC1202A585
:1007A000700C12029060BFE65480F6E480BB120227
:1007B00090700519191980A5E869700C763F1876B4
:1007C0008018F618F6E8F922E6CDC0E018ECC0E093
:1007D000E633CD33CDD313F6E719FCE7191933CC43
:1007E00033C3947F400ECD9D502408E65480F6E438
:1007F00018F6800FF4043D14501408E6447FF618F0
:100800007680E418F618F6D0E0FCD0E0FD22CCD3D8
:1008100013CCFD18E4C6CBC0E018E4C6CAC0E0089B
:1008200008ED08C633E613F618E433C675F003C3C3
:10083000CA97CA09CB97CB199C40047D08802EBD6E
:10084000000302090116B6FF050606081618C3CAFA
:1008500033CACB33CB33CA27CA09CB37CB193CC3F6
:100860007D08803E187D0820E75CC633C6CA33CABF
:10087000CB33CB33DDF1D5F0EB30E77BCA97CA0938
:10088000CB974ACB199C406F4B7025E620E0218026
:1008900066187D08C3CA97CA09CB97CB199CD3C6E3
:1008A00033C6CA33CACB33CB3350C9DDE7D5F0E109
:1008B000D3E4C636C608C636C608C636C608C63627
:1008C000C61818188031C3CA97CA09CB97CB199C90
:1008D000B34097C633C6CA33CACB33CB33DD34D526
:1008E000F02EC6A2E0C640C8CA27CA09CB37194AAB
:1008F00070BECB3CB480B90808E63308E633601F0D
:10090000181818D0E0FAD0E0FBD0E0FCD0E0FD22CF
:10091000187D08CA27CA09CB37CB193CD38080136E
:10092000F618E4B67F11F618B6FF0EF618C6047076
:10093000D20808768080CAF618F618F680C5E4CF8B
:10094000C0E0E4CEC0E0E4CDC0E0E4CCC0E075F0AF
:1009500020C3E633F608E633F608E633F608E63356
:10096000F6181818EC33FCED33FDEE33FEEF33FFD1
:10097000C3EC9709ED9709EE9709EF9719191940FC
:100980000FFFEC97FC09ED97FD09EE97FE1919068C
:10099000D5F0BEECF709EDF709EEF709EFF71919F5
:1009A00019D0E0FCD0E0FDD0E0FED0E0FF22181826
:1009B00018E4C396F608E496F608E496F608E4967A
:1009C000F622E0F608A3E0F608A3E0F608A3E0F6B6
:1009D00022E6F008A3E6F008A3E6F008A3E6F0227A
:1009E000CAC0E0E6F0A308DAFAD0E0FA22CAC0E012
:1009F000E0A3C582CCC582C583CDC583F0A3C582E3
:100A0000CCC582C583CDC583DAE6D0E0CA22C3E473
:100A100098F8E499F9120A4F8026C3E49AFAE49B05
:100A2000FBE920E7E9120A4FE498F8E499F922C3B8
:100A3000E498F8E499F9120A4FE498F8E499F9C3B4
:100A4000E49AFAE49BFB22EB20E7CFE920E7E0B948
:100A50000010BB0008E88AF084F8AAF022E4FBC882
:100A6000FA22EB70227B10C833C8C933C933500750
:100A7000C39AC3DBF280069A50012ADBEAC833F43A
:100A8000C8C933F4C9FA2275F008E4C833C8C933B9
:100A9000C933C99AC99B5004C92AC93BD5F0ECFB9C
:100AA000C833F4C8E4C9FA22251010AF08F5104085
:100AB0000215118008F51040021511D2AF22C0D0E6
:100AC000251010AF08F510500205118008F51050E0
:100AD000020511D2AFD0D0222510F58210AF08F553
:100AE00010400215118008F51040021511D2AF8593
:100AF0001183222510F582E43511F58322E4732554
:100B000010C582C0E0E51134FFC583C0E0E510C325
:100B1000958224F9F8E4C5A8858311858210C5A8BB
:100B2000E8CEF0A3E520F0A37808E608F0A3DEFA0B
:100B3000EFF0A3E58124FBF8E608F0A3E608F0A3B4
:100B40000808E608F0A3E608F0A315811581D0E0B7
:100B5000FED0E0F815811581E8C0E0EEC0E0228506
:100B60001183851082E0A3FEE0A3F5207808E0A3BE
:100B7000F608DFFAE0A3FFE0A3C0E0E0A3C0E0E0F6
:100B8000A3C0E0E0A3C0E0E4C5A88582108583117E
:100B9000C5A8D083D08222740280027401C0E0F420
:100BA00004120AD8D0E01209E0227404800474020E
:100BB0008000CCC0E0EDC0E0E510C39CCCAD11508E
:100BC000011D10AF068C108D1180068C108D11D276
:100BD000AF1209EDD0E0FDD0E0FC22D083D082C579
:100BE000F0E493A3C5F0C395F0F5F0E493A3C395A7
:100BF000F04005E5F0048001E475F002A42582F5DB
:100C000082E5F03583F583E493A3C0E0E493C0E08C
:100C100022D083D082CCC0E0E493A36006120C3BC8
:100C20001470FAE493A36006120C5A1470FAD0E020
:100C3000FCE493A3C0E0E493C0E022C0E0E493A30B
:100C4000D39C5010E493A3C39C400AD0E0D0E0D0E2
:100C5000E0020C2EA3A3A3D0E022C0E0E493A36C97
:100C60007009D0E0D0E0D0E0020C2EA3A3D0E022A7
:100C70007586C053F1FE53BEFBE59DA2E650FA0017
:100C800078007900800900E82401F8E93400F9C30C
:100C9000E894F8E9940140EE75C600E59E70FC43C7
:100CA000BE0443FE0143FE0243FE10438F01E5F103
:100CB000A2E0500743F430E5F4800543F30CE5F37C
:100CC000740355C6240AF5C575C2D843868043C44B
:100CD00082E5C4D2E922E9FA740A6A7007A2E950EF
:100CE000FC75C10DA2E950FCC2E9EAF989C1227480
:100CF000F5120AFFEAFEEBFF750800801785080A67
:100D0000750B00EE250AF582EF350BF583E0F9123D
:100D10000CD6050885080A750B00EE250AF582EF4A
:100D2000350BF583E070D67F04020B5F7800790005
:100D30008008E82401F8E93400F9C3E89464E994F0
:100D400000A2D265D03340EA2274F8120AFFE9FE0D
:100D50007F808015C281D280120D2C120D2C120DB5
:100D60002CC28075F002EF84FFEFC394014008EEBF
:100D70005F60E1D28180DFD28153FDFD538FFD534F
:100D8000F7DFD280A281E492E0F943FD02538FFDA8
:100D900053F7DFC2807F01020B5FC008750800D2E5
:100DA0008153FDFD538FFD53F7DF7A808011D28090
:100DB000A2815003EA4208C28075F002EA84FAEA8E
:100DC000C3940150E943FD02538FFD53F7DFE960FF
:100DD00004C2818002D281D280120D2C120D2C12FD
:100DE0000D2CC280D281A908D00822D281C28012E3
:100DF0000D2CD280120D2CC281120D2CC280120D2E
:100E00002C120D2C120D2CD280120D2CD281120D11
:100E10002CC28022EEC0E0D281C2807E00800BD244
:100E200080120D2CC280120D2C0EEEC3940940EFDF
:100E3000120DEBD0E0FE2274F4120AFF8A088B092F
:100E40008C0A8D0B890C7E007F00120DEBE50C12D5
:100E50000BDB00017A0E5A0E6B0E7903120D49E975
:100E6000F87900EE28FEEF39FF800F7905120D4961
:100E7000E9F87900EE28FEEF39FF53FDFD538FFDB1
:100E800053F7DF780079008008E82401F8E934009E
:100E9000F9C3E894FFE994FF5004A28140EB780085
:100EA00079008008E82401F8E93400F9C3E894FFE8
:100EB000E994FF5004A28140EB780079008008E8B3
:100EC0002401F8E93400F9C3E894FFE994FF5004E1
:100ED000A28140EB780079008008E82401F8E93429
:100EE00000F9C3E894FFE994FF5004A28140EBA20B
:100EF000815008EE2401FEEF3400FF74006E700391
:100F000074006F6009C2917A027B02120CEF43FDFC
:100F100002538FFD53F7DF7901120D9AE98508829C
:100F2000850983A3F07901120D9AE9850882850964
:100F300083F07900120D9AE9850A82850B83F0EE21
:100F4000F97F05020B5F7C007D008017E82401F823
:100F5000E93400F9C3E89AE99B40F1EC2401FCED87
:100F60003400FDC3EC9405ED940050067800790040
:100F700080E22253F3FCE5F343FD03E5FD538FFDCF
:100F800043FD02538FFD53F7DFC28143FD01C28051
:100F9000120E147A147B00120F462274F1120AFF0B
:100FA00074F4120AA88A828B8378081209C2851009
:100FB0008285118378081209D18C828D837808127A
:100FC00009C290022C780C1209C27808790C12031D
:100FD0009C900230780C1209C27808790C120541F5
:100FE0007404120AF378081209D1900220780812CA
:100FF00009C2851082851183780C1209C27808799C
:101000000C12039C851082851183780C1209C2781A
:1010100008790C12039CC008C009C00AC00B9002DA
:101020001C780C1209C28510828511837808120978
:10103000C2780C790812039CD00BD00AD009D008D2
:101040007808790C120541900218780C1209C278C0
:1010500008790C1205417408120AF378081209D1B4
:101060007404120AF378081209C2900234780C1240
:1010700009C27808790C120541C008C009C00AC02D
:101080000B90022878081209C28510828511837896
:101090000C1209C27808790C12039C900224780C77
:1010A0001209C27808790C120541D00FD00ED00D6C
:1010B000D00C780C790812039C7408120AF3780893
:1010C0001209C2780C79081205419002387808128A
:1010D00009C2780C7908120301500890023C780C80
:1010E0001209C290024078081209C2780C790812DD
:1010F00003505008900240780C1209C27404120A7E
:10110000F378081209C28C828D8378081209D18A7B
:10111000828B83780C1209D1740C120ABE7F0802EC
:101120000B5F74F1120AFF74F8120AA87404120A11
:10113000F3EAF0A3EBF0A3ECF0A3EDF07417120ABE
:10114000F378081209C2900244780C1209C2780898
:10115000790C12039CC008C009C00AC00B74171296
:101160000AF3780C1209C290024878081209C27872
:101170000C7908120541D00BD00AD009D0087808A4
:10118000790C12075890024C780C1209C278087931
:101190000C120541C008C009C00AC00B7404120A31
:1011A000F378081209C2AA08AB09AC0AAD0B1216F3
:1011B000D28A0C8B0D8C0E8D0F900250780812097C
:1011C000C2780C7908120541D00BD00AD009D0089A
:1011D0007808790C120541851082851183780812F0
:1011E00009D185108285118378081209C2900254B2
:1011F000780C1209C27808790C12054190024878DF
:101200000C1209C27808790C12039CC008C009C0EE
:101210000AC00B750C84750D92750E02750F418511
:10122000108285118378081209C2780C790812059A
:101230001CD00BD00AD009D0087808790C120758B6
:10124000AA08AB09AC0AAD0B7408120ABE7F0802EB
:101250000B5F74F1120AFF74F3120AA88A0C8B0D4B
:101260008C0E8D0F7E007901851082851183AC82F2
:10127000AD837405120AF3AA82AB83120E37E92EEE
:10128000FE7900851082851183AC82AD83740112D2
:101290000AF3AA82AB83120E37E92EFEEE60141217
:1012A0000E147A127B02120CEF7A507BC3120F4697
:1012B0000213987405120AF3E0F508A3E0F509E4B7
:1012C000F50AF50B780812018D7405120AF3E5088A
:1012D000F0A3E509F0A3E50AF0A3E50BF074011211
:1012E0000AF3E0F508A3E0F509E4F50AF50B780840
:1012F00012018D7401120AF3E508F0A3E509F0A3C9
:10130000E50AF0A3E50BF07401120AF3AC82AD8399
:101310007405120AF3AA82AB83120F9B7401120A9E
:10132000F3120BAA7409120AF378081209C2AA0868
:10133000AB09AC0AAD0B1211227404120ABE8A0862
:101340008B098C0A8D0B7409120AF3E508F0A3E5EA
:1013500009F0A3E50AF0A3E50BF07405120AF3788F
:10136000081209C2850C82850D83E508F0A3E50902
:10137000F0A3E50AF0A3E50BF07401120AF3780874
:101380001209C2850E82850F83E508F0A3E509F0F6
:10139000A3E50AF0A3E50BF0EEF9740D120ABE7F87
:1013A00008020B5F74E4120AA8C290120C70120FAC
:1013B00073851082851183AC82AD837404120AF3A5
:1013C000AA82AB83121252E970E77404120AF31274
:1013D0000BAA7C587D02740C120AF3AA82AB83120A
:1013E00017707404120ABE851082851183120BAA2D
:1013F0007C587D027416120AF3AA82AB831217700E
:101400007404120ABE7A5B7B02120CEF7412120A89
:10141000F3AA82AB83120CEF7A617B02120CEF7499
:1014200008120AF3AA82AB83120CEF7A687B0212CD
:101430000CEF7A507BC3120F467A507BC3120F46D3
:101440007A507BC3120F46B2910213B174F1120AA3
:10145000FF8A088B098C0A8D0B740F120AF3E0F8CF
:10146000A3E0F9E8FAE9FB90028B780C1209C27844
:1014700008790C1202D5700E8A828B83E4F0A3F0F7
:10148000FAFBFCFD8022EC33ED332482F83395E047
:10149000F98A828B83E8F0A3E9F0AA08AB09ED543E
:1014A00080443FFDECC2E7FC7F08020B5F74F11241
:1014B0000AFF74F6120AA8851082851183EAF0A348
:1014C000EBF0A3ECF0A3EDF0851082851183780892
:1014D0001209C2900287780C1209C27808790C129E
:1014E0000350503385108285118378081209C29009
:1014F000028B780C1209C27808790C1202D590027E
:1015000000700A74221216C77DFF0216BD742112E4
:1015100016C77D7F0216BD7404120AF38582088502
:1015200083097808120B977402120AF378081209DB
:10153000C2AA08AB09AC0AAD0B12144C7402120A11
:10154000BE8A088B098C0A8D0B85108285118378E1
:10155000081209D185108285118378081209C2907A
:10156000026B780C1209C27808790C1203505032C1
:1015700085108285118378081209C27401C3131380
:10158000250AF50AE4350BF50B8510828511837861
:10159000081209D17404120AF3E024FFF0A3E03426
:1015A000FFF085108285118378081209C290026FBE
:1015B000780C1209C27808790C120541C008C009DC
:1015C000C00AC00B851082851183780C1209C29065
:1015D000027378081209C2780C7908120541D00B01
:1015E000D00AD009D0087808790C120758851082E3
:1015F00085118378081209D18510828511837808B6
:101600001209C2851082851183780C1209C27808EC
:10161000790C12039C7406120AF378081209D1742B
:1016200004120AF3E0F5083395E0F509F50AF50B25
:101630007808120172900277780C1209C278087942
:101640000C12039CC008C009C00AC00B7406120A21
:10165000F378081209C290027B780C1209C278084C
:10166000790C12039C90027F780C1209C2780879D9
:101670000C1205417406120AF3780C1209C278089C
:10168000790C12039C900283780C1209C2780879B5
:101690000C120541851082851183780C1209C278DD
:1016A00008790C12039CD00FD00ED00DD00C780C02
:1016B0007908120541AA0CAB0DAC0EAD0F740A12DD
:1016C0000ABE7F08020B5FF0A3E4F07AFF7BFF7C89
:1016D0007F2274F1120AFF8A088B098C0A8D0B9005
:1016E0000287780C1209C27808790C120350502630
:1016F00090028B780C1209C27808790C1202D590EE
:1017000002007009742212173D7DFF802B74211294
:10171000173D7D7F80221214AD8A088B098C0A8DBB
:101720000B90028F780C1209C27808790C12039C76
:10173000AA08AB09AC0AAD0B7F08020B5FF0A3E46B
:10174000F07AFF7BFF7C7F22C082C0838A828B83FA
:101750001217DDE9F08A828B83E02401F8A3E034DC
:1017600000F98A828B83E8F0A3E9F0D083D082224B
:1017700074F7120AFF74FC120AA87402120AF3EA40
:10178000F0A3EBF0ECFAEDFB740D120AF3A882A9BA
:1017900083851082851183E8F0A3E9F085108285A6
:1017A00011838582088583097808120B97740412C7
:1017B0000AF38582088583097808120B977C487D97
:1017C00017121CB37404120ABE7402120AF3121721
:1017D000DDE4F07404120ABE7F02020B5FE0F8A39E
:1017E000E0F58388822274F1120AFF74FD120AA8C0
:1017F0007402120AF3E9F08A088B098C0A8D0B74C3
:1018000014120AF3E0FEA3E0FF851082851183E441
:10181000F0A3F0900273780C1209C27808790C12C8
:10182000030150030218C390028B780C1209C2788E
:1018300008790C1202D560030219177416120AF304
:10184000E07003021959851082851183C082C0831C
:101850007412120AF31226D1D083D082121C48507F
:101860002B851082851183C3E094FCA3E094FFA232
:10187000D265D03340167402120AF3E41227B6740C
:1018800012120AF3C3E098F0A3E099F07412120A5E
:10189000F3121C827417120AF3E0700302195674D3
:1018A00016120AF3E40219589002C8780C1209C201
:1018B0007808790C120758851082851183E0240A74
:1018C0001227D79002CC780C1209C27808790C1232
:1018D000030140D49002D0780C1209C27808790C28
:1018E000120301400302183B9002D0780C1209C287
:1018F0007808790C1207581227CE80D89002C87841
:101900000C1209C27808790C12039C85108285118B
:1019100083E024F6121C859002D4780C1209C27858
:1019200008790C12035040D4900273780C1209C24B
:101930007808790C120350400302183B9002D078CB
:101940000C1209C27808790C12039C85108285114B
:1019500083121C8280D27401F07402120AF3E060D8
:10196000077A007B00021A51121C5B506D121C7327
:10197000120AF3E0FCA3E0FDEC7001ED70087417AF
:10198000120AF3E0600B742E8E828F83F0A30EAFE9
:10199000837A007B008009121C73120AF3121C82E6
:1019A000EA24FF1AEB34FFFB851082851183121C99
:1019B00038500C7412120AF3E07002A3E070D8855C
:1019C000108285118374FFC39CF874FF9DF9121C6B
:1019D000485003021B237A0180891226CBC3E49866
:1019E000FAE499FB806B85080C85090D850A0E8544
:1019F0000B0F780C1201EAAC0CE50D3395E0F50EF7
:101A0000F50F780C1201727808790C12051C9002FF
:101A1000D0780C1209C27808790C12039CEC121CC5
:101A200066EAF8EBF97401280AE439FBE87001E989
:101A3000701F7412120AF3E07002A3E070087417AA
:101A4000120AF3E0600B742E8E828F83F0A30EAF28
:101A5000837412120AF3121C38508B9002D8780C3F
:101A60001209C27808790C1203014003021B237C7F
:101A700001EE24FFF8EF34FFF97414120AF3E0F5D5
:101A800008A3E0F50988828983E0642E6010E02CC9
:101A9000F0643A70077430F07C0180027C00E8FA50
:101AA000E9FBEA24FF18EB34FFF9C3E5089AE509DE
:101AB0009B40D2EC7001E4606A7402120AF3E060A9
:101AC00039EEF8EF800DE088828983F0E824FF1872
:101AD000E934FFF9C3E50898E509995018121C1478
:101AE000E0642E70E1E824FEF582E934FFF583120C
:101AF0001C21F980D71227CE801E8E828F83A3AE41
:101B000082AF83EEF8EF8006121C14121C21F9C379
:101B1000E50898E5099940F07414120AF3121C566E
:101B20007431F07416120AF3E07005801A1EAF8348
:101B3000EE24FFF582EF34FFF583E0643060EEE0E1
:101B4000642E70031EAF837402120AF3E070030266
:101B50001C06121C68A3A983121C5B5018742D8EDE
:101B6000828F83F00EE9FF8510828511831227058D
:101B7000121C90800A742B8E828F83F00EE9FF7CFA
:101B8000007D00EE240AFEEF3400FFEC24010CED92
:101B90003400FD121C2A120A47EA121C66121C2A83
:101BA000120A47121C9C7002A3E070DFC3EC94027F
:101BB000ED121C4040D5ECFAEDFBC3E49CF8E49D2B
:101BC000F9EE28F582EF39F583E0C0E0C3E49AF836
:101BD000E49BF9EE28F8EF39F9EC28F8ED39F974BF
:101BE000F528F58274FF39F583D0E0F0EC24FF1C72
:101BF000ED34FFFDC3EC9401ED121C4050BCEE240B
:101C0000F6FEEF34FFFFEEFAEFFB7403120ABE7F1D
:101C100008020B5FE824FFFAE934FFFB8A828B831A
:101C200022E088828983F018EB2285108285118357
:101C30001227817A0A7B0022C3E09AA3E09B8002EC
:101C40009400A2D265D03322C3E098A3E09980F239
:101C5000851082851183E012271A22851082851152
:101C600083C3A3E080DA24308E828F83F0A3AE8218
:101C7000AF832274308E828F83F0A3AE82AF8374E1
:101C80001222E024FFF0A3E034FFF022A882A9830F
:101C9000851082851183E8F0A3E9F0228510828502
:101CA0001183E8F0A3E9121CAA22F08510828511A5
:101CB00083E02274F1120AFF74AE120AA8740212B1
:101CC0000AF312278F7418120AF3ECF0A3EDF074E4
:101CD0000F120AF3E4F0A380227461120AF31226B1
:101CE000BB7404120AF3E0F97418120AF3121C56BA
:101CF000120AFD740F120AF31226A2F07402120ADD
:101D0000F3122710FA7402120AF3122758120AF378
:101D10001227C6120AF3EAF074256A6010E070B95F
:101D2000740F120AF31226BB7452021C0C740212B6
:101D30000AF31227106425701A7402120AF312278C
:101D400058120AF3121C967461120AF31226BB7918
:101D5000258095740E120AF3E4F0740D120AF3E470
:101D6000F0740C120AF3E4F07405120AF3E4F07450
:101D700020120AF3121C8C741E120AF37493F0A33F
:101D8000740280187405120AF3E070077405120AD1
:101D9000F3EAF07402120AF3E8F0A3E9F074021215
:101DA0000AF3122764120AF31226F8FA120C110031
:101DB0000520841D23CB1D2B8C1D2DC21D30CF1D56
:101DC000D31D740C120AF3E00480C7740D80F574FF
:101DD0000E80F17402120AF31226F8642A706074FD
:101DE00063120AF31226FDFB8A828B83E0FCA3E0D8
:101DF000FD740A120AF3ECF0A3EDF0EA24020A0AD9
:101E0000EB3400FB7463120AF3122787740A120A78
:101E1000F3121C61501F740A120AF31226BBC3E4AA
:101E20009AFAE49BFB740A120AF312278F740C12BD
:101E30000AF3E004F07402120AF3121C968058743C
:101E40000A120AF3E4F0A3803C740A120AF3122681
:101E5000D1E875F00AA4F8AAF075F00AE9A42AF905
:101E6000E82508F8E93400F974D028F874FF39F946
:101E7000740A120AF31227A1120AF3122764120A33
:101E8000F3E8F0A3E9F07402120AF31227224007E4
:101E9000E508C3943A40B2740C120AF3E060077488
:101EA0000E120AF3E4F07402120AF3122710642EE1
:101EB0006003021F487402120AF3122758120AF331
:101EC0001227A1120AF3122710642A7037746312C2
:101ED0000AF3122710F8A3E0F988828983E0FEA3B1
:101EE000E0FFE824020808E93400F97463120AF3F9
:101EF0001226EB1227A1120AF3122764120AF31218
:101F00001C9680487E007F007402120AF31227227A
:101F1000403AE508C3943A5033EE75F00AA4FEAA9D
:101F2000F075F00AEFA42AFFEE2508F8EF3400F967
:101F300074D028FE74FF39FF7402120AF31227646A
:101F4000120AF3121C9680C07EFF7FFF7A00740293
:101F5000120AF3122764120AF3E0FBA3E0F5838B65
:101F600082E0120C1100034C721F68731F6C721F09
:101F70007B1F0A7402120AF3121C967402120AF3EF
:101F8000122710FB7402120AF3122758120AF312D6
:101F900027C6120AF3EBF0120C110010004625457B
:101FA0001A2447F523582E21632E2064DB21651A5D
:101FB0002466132467F52369DB216ECE1F6F102181
:101FC000702E21736720752E217822215625746387
:101FD000120AF3122774120AF3121C96EA6035747F
:101FE0000F120AF3E0FCA3E0FD3395E0FE74061245
:101FF0000AF312272BECF0A3EDF0A3EEF0A3F0749C
:1020000063120AF3122732120AF31226EBE8F0A346
:10201000E9021CFB740F120AF31226D17406120A8D
:10202000F31226FDF5838A82E8F0A3E980D0746379
:10203000120AF312272BE0C0E07420120AF3D0E05A
:10204000F07463120AF3122732120AF31226EB120B
:102050001C967421120AF3A882A9837412120AF33F
:10206000E8F0A3E902256E7463120AF312277412D2
:102070000AF3121C967406120AF3122774120AF35A
:10208000E02402FAA3E03400FB7463120AF312277F
:1020900087121C90E87001E9700D8510828511830C
:1020A00074A4F0A37402F012269D50047E107F27C2
:1020B0007408120AF3E4F0A380087408120AF312F9
:1020C00026A21227B688828983A3AA82AB838510B1
:1020D0008285118312278F88828983E0600A7408C1
:1020E000120AF31226D540D21227447412120AF3B0
:1020F000121C967408120AF31227057412120AF3BE
:10210000E028F8A3E039F985108285118302206068
:10211000740D120AF3E0600AEE7001EF70047E01A4
:102120007F00741E120AF374B3F0A37402F0746398
:10213000120AF3122774120AF31227C6120AF3E0E6
:102140006470703C7406120AF312273A120AF312F2
:1021500027A9120AF3E024021226E2120AF3122639
:10216000EB121C969002DC78081209C2741A120A4B
:10217000F378081209D17405120AF3E4F002227808
:10218000EA60217406120AF3121C5678081209C27A
:102190007414120AF378081209D17406120AF3E0D3
:1021A000240480147406120AF312273A120AF31256
:1021B00027A9120AF3E024021226E2120AF31226D9
:1021C000EB1227C6120AF3E0646F70059002E080FC
:1021D00096E06475708E9002E4808C7463120AF34A
:1021E000122774120AF3121C96EA60187406120A77
:1021F000F3121C56780C1209C27406120AF3E0247A
:1022000004F8801F7406120AF3122710F50CA3E0DD
:10221000F50D3395E0F50EF50F7406120AF3E02480
:102220000208081226E3120AF31227BB120AF378F7
:102230000C1209D190028B78081209C27808790C27
:1022400012015D50217405120AF3742DF0741412FA
:102250000AF378081209C278081209B17414120A34
:10226000F378081209D19002E478081209C2741AAE
:10227000120AF378081209D17451120AF3121C8C55
:102280007412120AF31227BE120AF3C082C083909E
:10229000028B78081209C2D083D0827808120148D4
:1022A00060097411120AF3740180067411120AF3A2
:1022B000E4F0EE7001EF7006E0700302236612276F
:1022C000448510828511831227BE120AF3780C12FE
:1022D00009C2741A120AF378081209C2780C790834
:1022E00012093E741E120AF3E02508FAA3E035092C
:1022F0008A82F583E0C0E0121C50D0E0F074141222
:102300000AF3780C1209C2741A120AF37808120937
:10231000C2780C790812093E7414120AF3780C1270
:1023200009D17414120AF3C082C08390028B78081A
:102330001209C2D083D08278081201487080122618
:102340009D5023740E120AF3E0601B7405120AF309
:10235000E06004D2F08002C2F0740A120AF312267E
:10236000AB80031227DE1227447451120AF3C08295
:10237000C0838510828511831226BBD083D082E56D
:1023800082C39AFAE5839BFBC3EA9EEB1226DE40EA
:10239000D2740D120AF3E0700302256F7411120A51
:1023A000F3E0700302256F7404120AF3E0647860AE
:1023B00005E0645870258510828511831227C612A6
:1023C0000AF3E0C0E0121C50D0E0121CA612274F06
:1023D000121C9C121C57743002256EE0646F60035F
:1023E00002256F8510828511831226F864307003F0
:1023F00002256F80DB7408120AF37401F0A3E4F085
:102400007404120AF3E024FEF0EE7001EF70147E03
:102410000180177404120AF3E4F07408120AF3E45A
:10242000F0A3F012269D50047E067F007463120A0A
:10243000F3122774120AF3121C967406120AF3128E
:102440001C56780C1209C27406120AF3E024041216
:1024500026E2120AF31227BB120AF3780C1209D1F2
:1024600090028B78081209C2780C79081203505038
:10247000227405120AF3742DF07414120AF378080A
:102480001209C2E50BB2E7F50B7414120AF37808CF
:102490001209D1740A120AF31226D17420120AF317
:1024A000E58228F8E58339F9121C90740D120AF3BD
:1024B000E0F5087808120B9B7409120AF3E0F5089E
:1024C0007808120B9B7402120AF3120BAE8E088F5F
:1024D000097808120B97740A120AF3E0F9741A12B9
:1024E0000AF378081209C2AA08AB09AC0AAD0B12AC
:1024F00017E67406120ABE7412120AF312278F74BA
:102500000E120AF3E060687405120AF3E06004D268
:10251000F08002C2F0740A120AF31226AB7412128F
:102520000AF3C082C0831226CBD083D082E0C39846
:10253000F8A3E099F9C3E89EE91226DE503112278C
:10254000441227DE80D77402120AF312274A74025B
:10255000120AF3121C9685108285118374C4F0A3AD
:102560007402F07412120AF374C7F0A37402F074C8
:1025700012120AF3C082C0831226CBD083D082E02D
:10258000C398FEA3E099FF740A120AF31226D550ED
:102590000A7408120AF3E4F0A380327405120AF3F5
:1025A000E06004D2F08002C2F0740A120AF3E0C3C1
:1025B0009EF8A3E09FF9A2F0E492E0FAE8C39AF84B
:1025C000E99400F97408120AF3E8F0A3E9F0740C36
:1025D000120AF3E0702B80197461120AF31226C1FB
:1025E000120AF3121C56120AFD740F120AF3122774
:1025F000D47408120AF3122795120AF3121C6150C0
:10260000D77405120AF3E0604D7461120AF31226C2
:10261000BB7405120AF3E0F97418120AF3121C567F
:10262000120AFD80297461120AF31226BB851082FA
:10263000851183122710F97418120AF3121C56120E
:102640000AFD85108285118312276A121C90740F6F
:10265000120AF31227D4EE24FF1EEF34FFFFC31239
:102660001C4050C1740C120AF3E07003021CFC748D
:1026700008120AF3122795120AF3121C6150030282
:102680001CFC7461120AF31226C1120AF3121C56C2
:10269000120AFD740F120AF31227D480D2C3EF027C
:1026A0001C40E02401F0A3E0340022A2F0E492E018
:1026B000F8E0C398FEA3E09400FF22E0FAA3E0FB59
:1026C00022E0FAA3E0FB792074182285108285119C
:1026D0008312278122C3E09EA3E01226DE229F02FE
:1026E0001C42F8A3E03400F97463221226EF22E0C2
:1026F000FAA3E0F5838A82221226EFE0221226EF67
:10270000E0FAA3E022122781C3E498F8E499F922C1
:1027100012271422122719E022E0F8A3E0F583889B
:102720008222122714F508C394302212271412278C
:102730001A221227142402F880A912277AE8FAE94B
:10274000FB741422851082851183E012274F222406
:10275000FFF8A3E034FFF922E0240108A3E03400ED
:10276000F974022212276A740222E02401F8A3E01D
:102770003400F92212277A740622122719122781AF
:1027800022E0F8A3E0F922E0FCA3E0F5838C82EAE2
:10279000F0A3EBF022E024FFF0A3E034FFF0740894
:1027A00022E8F0A3E9F0740222EAF0A3EBF0A3E43C
:1027B000F0A3F07406221227F3F9221226EFE8F0B4
:1027C000A3E9F0741422E8F0A3E9F0740422851060
:1027D00082851183E02401F0A3E03400F02285100B
:1027E00082851183E8F0A3E91227F3F583888274C8
:0A27F00030F022121CAAF8A3E02228
:0400000500000050A7
:00000001FF
