:020000040800F2
:100000000000012009000008DFF81400016841F435
:100010007001016072B60348804703480047000042
:1000200088ED00E0C55B00082D000008DFF80CD06B
:1000300000F010FE004800472118010800000120D0
:1000400072B634483449026841EA0201016033481B
:100050004FF00101016032484168016001688A88FF
:100060004FF0100342EA03028A80D1F800C00CF17D
:10007000240C0CF1040CBCE8FF008CF309884FF051
:10008000020C8CF31488AE4662B63047EFF3108052
:1000900072B67047EFF3108062B6704780F3108835
:1000A000704720484FF0805101607047EFF3108C8B
:1000B00072B61D4A126822B12DE900509047BDE882
:1000C0000050EFF309801EF0100F08BF20ED108BD9
:1000D00040F804ED20E9F01F114D4FF010082E6894
:1000E0003060B78827EA0807B78068682860878883
:1000F00047EA08078780016800F018B851F804EB58
:100100001EF0100F08BF00F016B881F309888CF3B9
:100110001088704720ED00E00000FFFFBC040020C5
:100120008404002004ED00E0C004002030C9B1E8E0
:10013000C01FFFF7E3BFB1EC088BB1EC08CBFFF7B2
:10014000E4BF2DE9F05F0546002092469B468846B5
:100150000646814640241BE0284641464746224643
:1001600000F080FC53465A46C01A914110D3114604
:100170001846224600F04AF82D1A67EB01084F4650
:1001800022460120002100F041F817EB00094E4102
:10019000201EA4F10104DFDC484631462A464346CE
:1001A00000F000B830BCBDE8C09F2DE9F04100244C
:1001B000061B254671F1000605DA01240027D0EB65
:1001C000070067EB0101161E73F1000605DA002730
:1001D000D2EB0702012567EB0303FFF7B2FF864668
:1001E0000E4617469C46AC4204D00025D0EB050EC7
:1001F00065EB010624B10020D2EB000760EB030C95
:10020000704631463A466346BDE8F081202A04DB59
:10021000203A00FA02F1002070479140C2F1200319
:1002200020FA03F3194390407047000000487047DC
:100230009855020810B50446FFF7F8FF0068005D06
:1002400000F0010010BD10B5441A0346944209D2D3
:100250008418114403E011F8013D04F8013D521ED9
:10026000F9D210BD40EA0104A40703D009E010C987
:10027000121F10C3042AFAD203E011F8014B03F84D
:10028000014B521EF9D210BDD2B201E000F8012B91
:10029000491EFBD270470022F6E710B513460A4606
:1002A00004461946FFF7F0FF204610BD30B505465D
:1002B0002A460B4612F8010B13F8014B08B1A04275
:1002C000F8D01CB1002802D06D1CF1E7284630BDE3
:1002D00010B5044604E00B7800F8013B03B1491C5B
:1002E000521EF8D2204610BDCAB2401E10F8011F9F
:1002F0008A4202D00029F9D100207047421C10F830
:10030000011B0029FBD1801A704730B5044600203C
:10031000034600E05B1C934203D2E05CCD5C401BD3
:10032000F8D030BD30B505460020034600E05B1C28
:10033000934205D2EC5CC85C201A01D1002CF6D1A6
:1003400030BD0246C9B200E0401C0378002BFBD14F
:1003500002E003788B4203D0401E9042F9D2002085
:10036000704700000FB400B58DB010A909900B9034
:1003700000914FF0FF300A9000200C900548069045
:10038000054807906A4609A80F9900F0A1FB0DB037
:100390005DF814FBED0A00080B0B00082DE9FF5F68
:1003A0001D464FF0FF3BD5E9014691465F464FF0B1
:1003B0000008A9697F1C01988847296A82468847F6
:1003C0000028F6D1BAF1FF3F0CD024F4C064002E0F
:1003D00019DD600614D5BAF12B0F09D0BAF12D0F33
:1003E0000ED103E0584604B000F07EB844F48064B7
:1003F000A9697F1C01988847761E8246002E02DD7F
:10040000BAF1300F03D0B9F1000F26D032E0A9695C
:10041000761E44F400747F1C019888478246002EA3
:1004200005DDBAF1780F06D0BAF1580F03D0B9F153
:10043000000F10D01EE0B9F1000F02D0B9F1100F7B
:1004400018D1A969761E24F400747F1C019888478E
:100450008246102002E0082000E00A20814609E0E0
:1004600008FB0908A969761E44F400747F1C0198F2
:1004700088478246002E05DD4946504600F014FBB1
:100480000028EDDAE96901988847A00502D46FF0E9
:100490000100A8E7E00725D1600613D5600502D565
:1004A000C8F1000000E0404629680A1D2A6009687A
:1004B000220501D5087015E0220701D5088011E05A
:1004C00008600FE02868011D29600068210502D539
:1004D00080F8008006E0210702D5A0F8008001E046
:1004E000C0F8008038467EE730BCBDE8C09F2DE9EB
:1004F000FE4F804681EA0300C00F0C46009021F0B9
:10050000004123F00045B8EB0200A94105D2404666
:10051000214690461C460B46024623F000401043FD
:1005200047D0270DC7F30A00C3F30A510290401ABF
:10053000019040286BDAC3F3130040F4801B00984D
:10054000924620B10023D2EB030A63EB0B0B019818
:100550005946C0F140025046FFF758FE06460D4688
:1005600050465946019A00F08DFA10EB080061419F
:10057000002487EA115284EAE7731A4340D0009AB4
:1005800062B3019A012A4FEA075215DC001B61EBA6
:1005900002014FF0004202EA0752CDE90042001C7E
:1005A00041F5801132462B4600F006FB03B000F007
:1005B00045B840462146F9E7001B61EB0201001CEB
:1005C00041F5801300185B412018A2F5001747EB96
:1005D000030140EAD570B6196D4111E06D084FEA8C
:1005E000360645EAC0754FEA0752001B61EB02016F
:1005F000001C41F5801149084FEA300000195141B3
:1006000032462B4603B000F01CB800F0C6BA009882
:10061000012240000023D0EB020263EBE07300985C
:1006200021464FEAE074B8EB000061EB0401E9E712
:1006300083F000435BE781F0004158E730BCBDE840
:10064000C08F30BCBDE8C04FFFF7DFBF2DE9FE4FC4
:1006500081EA030404F0004421F0004100944FF0CB
:10066000000B23F0004350EA01045ED052EA030479
:100670005BD0C3F30A54C1F30A552C44A4F2F334FB
:100680000194A0FB0254C1F3130141F48011C3F3A0
:10069000130343F4801301FB024400FB034E840A5E
:1006A000970A44EA815447EA8357A4FB07680295F6
:1006B0008D0A05FB07854FEA932C04FB0C54270594
:1006C000029D4FEA065847EA1637B5EB08056EEB70
:1006D000070C870E920E47EA811742EA8312A7FBA6
:1006E0000201B6EB0B0164EB00042B0D43EA0C3363
:1006F0005E1844EB1C50DA465146E7FB0201C5F395
:1007000013044FEA0B3343EA14534FEA0432019CBB
:1007100043EA0603A4F10C040294009CCDE900B462
:1007200000F04AFA03B000F003B800200146F9E7F0
:1007300030BCBDE8C08F2DE9F04D81EA030404F020
:10074000004B21F0004514464FF0000A23F0004111
:1007500050EA050220D054EA01021DD0C5F30A5721
:100760000246C5F31303C1F31300C1F30A5640F464
:10077000801543F48013A7EB0608101BD64608F239
:10078000FD3873EB050002D308F1010801E092186F
:100790005B41B8F1000F03DA00200146BDE8F08D9F
:1007A00000204FF48011064684460EE0171B73EBC1
:1007B000050705D3121B63EB050306434CEA010C46
:1007C00049084FEA300092185B4150EA0107EDD129
:1007D00052EA030012D082EA040083EA05010843CA
:1007E00005D0101BAB4106D20122002306E00022F7
:1007F0004FF0004302E06FF0010253101AEB0600C5
:100800004CEB085110EB0A0041EB0B01BDE8F04D39
:1008100000F0C3B90EB5C10F80EAE0700844CA0702
:10082000002140F233438DE80E000A460B4600F0EB
:10083000C3F903B000BD0EB540F23341029100216F
:10084000CDE900110A460B4600F0B6F903B000BD31
:100850003EB5CA17CB0F002450405140C01861412B
:10086000DA0740F233430094CDE9012322462346C0
:1008700000F0A2F903B030BD0EB540F2334202924F
:100880000022CDE90022134600F096F903B000BD26
:1008900070B5C1F30A5201F000450024C1F3130101
:1008A00040F2FF3341F480119A4201DA002070BD1A
:1008B00040F233439A42A2F2334203DC524200F048
:1008C000D1F800E090402C43F1D0404270BDC1F31C
:1008D0000A5210B5C1F3130140F2FF3341F4801105
:1008E0009A4201DA002010BD40F233439A42A2F24C
:1008F000334203DC524200F0B5F810BD904010BD09
:1009000070B5C1F30A5201F000450024C1F3130190
:1009100040F2FF3341F480119A4202DA002001468E
:1009200070BD40F233439A42A2F2334203DC52429A
:1009300000F098F801E0FFF769FC2C43F0D00023A9
:10094000D0EB030063EB010170BDC1F30A52C1F3A8
:10095000130140F2FF3341F480119A4202DA002081
:100960000146704740F233439A42A2F2334202DC1E
:10097000524200F077B8FFF749BC00F0004230F077
:1009800000400AD0C10D01F56071C0F3160042EAC3
:100990000151C208400711437047002001467047CB
:1009A00030B5041E71F1000404DB4FF000444042F6
:1009B00064EB0101141E73F1000405DB1C464FF0CB
:1009C0000043524263EB04038B4208BF824230BDB6
:1009D00030B5041E71F1000404DB4FF000444042C6
:1009E00064EB0101141E73F1000405DB1C464FF09B
:1009F0000043524263EB0403994208BF904230BD6A
:100A000001F0004330B421F0004150EA010206D069
:100A10000A0DA2F56072C1F31301002A02DC30BC9A
:100A200000207047440F44EAC104C100E01830BC04
:100A300000EBC25000F07AB830B50B4601460020FA
:100A40002022012409E021FA02F59D4205D303FA90
:100A500002F5491B04FA02F52844151EA2F1010211
:100A6000F1DC30BD202A04DB203A21FA02F000211B
:100A7000704721FA02F3D040C2F1200291400843AE
:100A800019467047202A06DBCB17203A41FA02F0BC
:100A900043EAE07306E041FA02F3D040C2F12002DB
:100AA00091400843194670473A2800D2303820F068
:100AB0002002412A01D3A2F13700884201D34FF02E
:100AC000FF30704702681144137801601846704780
:100AD000D16004495161044911620021116111463C
:100AE00000F0CAB8C50A000835020008426842B1E1
:100AF000016811F8013B23B1521EC0E900121846EB
:100B000070470121C160881E704742685AB1C368AE
:100B1000016843B983688B4205D0491E521CC0E965
:100B20000012002070474FF0FF3070470029A8BF27
:100B30007047401C490008BF20F00100704710B406
:100B4000B0FA80FC00FA0CF050EA010404BF10BCBB
:100B5000704749B1CCF1200421FA04F411FA0CF1E8
:100B600018BF012121430843A3EB0C01CB1D4FEA21
:100B700000614FEA102042BF002010BC704700EB1C
:100B8000C35010440029A4BF10BC7047401C49004A
:100B900008BF20F0010010BC704710B5141E73F19F
:100BA000000408DA401C41F1000192185B411A432D
:100BB00001D120F0010010BD2DE9F04D92469B4679
:100BC00011B1B1FA81F202E0B0FA80F2203290461F
:100BD000FFF71CFB04460F4640EA0A0041EA0B01FE
:100BE00053465A46084313D0114653EA010019D020
:100BF000C8F140025046FFF735FF05460E46504605
:100C000059464246FFF702FB084305D0012004E0A5
:100C100020463946BDE8F08D0020054346EAE076DF
:100C20002C4337430A986305E40AA0EB080000222E
:100C3000FD0A44EA47540A3002D500200146E9E79C
:100C4000010510196941DDE9084500196941BDE850
:100C5000F04DA2E7064C074D06E0E06840F00103C6
:100C600094E8070098471034AC42F6D3FFF7E2F956
:100C7000245E0208545E02082DE9F34F8BB04FF05A
:100C8000000801F10C000C464FF0010B46460DF137
:100C9000080A01906269012101989047051E2DD034
:100CA000252D2CD0216A8847C0B1626901210198A5
:100CB0009047216A88470028F7D1411E6269019850
:100CC000904700E0761CA1690B988847216A884705
:100CD0000028F7D1E1690B988847DBE7A1690B98F9
:100CE00088470746A84201D1761CD3E7E1690B98F3
:100CF00088477F1C02D1B8F1000F6FD046E1002772
:100D000062693D463946019890472A2804D16269B4
:100D10000121019890470125DFF884926269012141
:100D200001989047A0F130010A290AD24F45E5DC2D
:100D300007EB870100EB4107303FDFD445F010059A
:100D4000ECE7E90601D46FF000476C280AD04C2884
:100D500014D0682815D06A280DD074281CD07A28A1
:100D60001AD01DE062690121019890476C2802D0D9
:100D700045F0040514E045F002050DE045F02005BE
:100D80000AE06269012101989047682802D045F085
:100D9000080505E045F40065626901210198904766
:100DA000C4E9015765283DD019DC58287AD00CDCFD
:100DB000452837D004DC252826D0412831D131E020
:100DC00046282FD047282CD12CE05B2877D06128EB
:100DD00028D063287CD0642823D15AE0D0E06F2843
:100DE00048D008DC66281DD067281BD0692821D090
:100DF0006E2816D127E0702845D0732868D0752852
:100E000047D078280DD14DE0A1690B988847054659
:100E100025283FF469AFE1690B9888476D1C3FF4C2
:100E20006AAFB3E023466A466FF001000B99AFF357
:100E300000809EE045F040006060A80723464FF028
:100E4000000236D43EE0E8077FF447AF2068011D7A
:100E500021600068290501D506701BE7290701D527
:100E6000068017E7A90703D5F117C0E9006111E76C
:100E700006600FE745F040006060A80723464FF08A
:100E8000080216D41EE040F60E0125EA010060605B
:100E900016E045F040006060A80723464FF00A02C4
:100EA00007D40FE045F040006060A80708D523464E
:100EB00010226FF001000B99AFF3008059E007E0BA
:100EC000234610226FF001000B99FFF767FA50E0FC
:100ED0004FF000094F464B46632802D05B2806D0EE
:100EE00040E0E80601D40120A06001273AE06269F1
:100EF0000121019890475E2805D14FF001096269F0
:100F0000494601989047216939B900210A4653465C
:100F100043F82120491C0829FADBB0B3216969B9DB
:100F2000C11700EBD16253110AEB830122F01F02BB
:100F3000821A01200B68904003430B606269012113
:100F4000019890475D28E8D1B9F1000F09D0002041
:100F5000514651F82020D24341F82020401C082857
:100F6000F7DB02AB224600976FF001000B99AFF35D
:100F7000008000280CDA401C08D1BBF1000F05D01E
:100F80004FF0FF300DB000F00DB8FFE74046F9E735
:100F9000E90701D108F1010806444FF0000B79E69A
:100FA000CCCCCC0C30BCBDE8C08F70B58C1810F820
:100FB000015B15F0070301D110F8013B2A1106D19E
:100FC00010F8012B03E010F8016B01F8016B5B1EB8
:100FD000F9D12B0705D40023521E0DD401F8013B93
:100FE000FAE710F8013BCB1A921C03E013F8015BFF
:100FF00001F8015B521EF9D5A142D8D3002070BD83
:101000000EB504F07DF808B900BFFEE701A804F0B2
:1010100057F8684604F0CEF8BDF90000084908808A
:10102000BDF804004880BDF8061005488180BDF871
:101030000810C1804FF4FA7000F004F80EBD0000F3
:101040000A07002070B5044600F085F906462546DB
:10105000681C00B16D1C00BF00F07DF9801BA84228
:10106000FAD370BDF0B50B4600210022002475E0D4
:1010700001258D4005EA0302002A6ED005684F0065
:101080000326BE4035430560CE0800F1200555F823
:1010900026504E07F70E0F26BE40B543CF0800F18D
:1010A000200646F8275085684F000326BE40B5430A
:1010B0008560466801258D40AE434660C5684F0097
:1010C0000326BE40B543C560274D8E0855F826401F
:1010D0008D072E0F0F25B5402C40B0F1904F01D158
:1010E000002514E0214DA84201D101250FE0204D3B
:1010F000A84201D102250AE01E4DA84201D10325D4
:1011000005E01D4DA84201D1042500E007258E070A
:10111000360FB540A54220D18D072E0F0F2505FAB9
:1011200006F4114D8E0855F82660A6438F0845F841
:101130002760124D2D689543104E3560351D2D6882
:101140009543361D3560351D2D689543361D356038
:10115000351D2D689543361D3560491C23FA01F570
:10116000002D85D1F0BD00000800014000040048BA
:1011700000080048000C004800100048000401402E
:1011800078B50346002200240020CBE001269640DB
:101190000D6805EA0604002C72D04D68022D02D0BD
:1011A0004D68122D13D1D60803F1200555F82600FD
:1011B0005507EE0E0F25B540A8435607F60E0D69EC
:1011C000B5402843D60803F1200545F826001868E5
:1011D00056000325B540A8430D7905F003055600D8
:1011E000B540284318604D68012D08D04D68022D88
:1011F00005D04D68112D02D04D68122D13D198687D
:1012000056000325B540A8435600CD68B540284395
:101210009860586801259540A8430D79C5F30015DD
:10122000954028435860D86856000325B540A84328
:1012300056008D68B5402843D8604D6805F080554C
:10124000B5F1805F6DD100BF394D2D6E45F00105C0
:10125000374E356635462D6E05F00105009500BF09
:1012600000BF4FEAB635960855F8260095072E0FB1
:101270000F25B540A843B3F1904F02D1002515E0EA
:101280004FE02C4DAB4201D101250FE02A4DAB427E
:1012900001D102250AE0294DAB4201D1032505E029
:1012A000274DAB4201D1042500E007259607360FF4
:1012B000B5402843234D960845F82600224D28685E
:1012C000A0434D6805F48035B5F5803F00D120433B
:1012D0001D4D28602D1D2868A0434D6805F400357C
:1012E000B5F5003F00D12043174D2D1D28602D1D61
:1012F0002868A0434D6805F48015B5F5801F00D11E
:101300002043114D083528602D1D2868A0434D68E5
:1013100005F40015B5F5001F00D120430A4D0C352A
:101320002860521C0D68D540002D7FF42FAF78BD8A
:10133000001002400004004800080048000C00486B
:101340000010004808000140000401400AB181611A
:1013500000E08162704710B503F0ACFE10BD02469C
:1013600092F8410020282DD100BF92F840000128BA
:1013700001D102207047012082F8400000BF2420E4
:1013800082F841001068006820F0010013681860BE
:101390001068006820F480501368186010680068B6
:1013A0000843136818601068006840F00100136873
:1013B0001860202082F8410000BF002082F8400021
:1013C00000BFD7E70220D5E710B502460B4692F8DA
:1013D000410020282AD100BF92F84000012801D105
:1013E000022010BD012082F8400000BF242082F8B6
:1013F00041001068006820F0010014682060106847
:10140000016821F4706141EA0321106801601068ED
:10141000006840F0010014682060202082F841003C
:1014200000BF002082F8400000BFDAE70220D8E7C2
:1014300010B5044624B94FF400706064012010BD5B
:10144000242084F841002068006820F00100216811
:101450000860204600F016FA0020606484F841001D
:10146000206384F8420000BF84F8400000BF00BF42
:10147000E5E7000010B5044624B94FF4007060643D
:10148000012010BD94F8410028B9002084F84000E4
:10149000204600F037FA242084F8410020680068D4
:1014A00020F0010021680860606820F07060216809
:1014B00008612068806820F4004021688860E06846
:1014C000012805D1A06840F400402168886004E04C
:1014D000A06840F4044021688860E068022802D1D6
:1014E00080022168486020684068144908432168E8
:1014F00048602068C06820F400402168C860D4E9D2
:1015000004010843A16940EA01202168C860D4E9C8
:1015100007010843216808602068006840F0010066
:101520002168086000206064202084F841000020C9
:10153000206384F8420000BFA3E70000008000029F
:101540002DE9FC5F0446894692469B46DDE90C780E
:101550000E9E94F8410020287ED117B1B8F1000FFB
:1015600005D14FF400706064012000F0B9B800BFED
:1015700094F84000012801D10220F6E7012084F808
:10158000400000BFFFF7E7FE054619230122D10303
:101590002046009502F06AF808B10120E5E7222014
:1015A00084F84100402084F84200002060646762B3
:1015B000A4F82A8060635B46524649462046CDE93E
:1015C000006501F0BDFF30B100BF002084F840008D
:1015D00000BF0120C9E7608DFF280CD9FF202085BE
:1015E0003D48009094F828204FF0807349462046EB
:1015F00002F022F80BE0608D20853748009094F8C7
:1016000028204FF000734946204602F015F800BF2D
:101610003346002204212046009502F027F808B145
:101620000120A2E72068406AC1B2626A501C606271
:101630001170208D401E2085608D401E6085608D5C
:1016400048B3208D38BB33460022802120460095C8
:1016500002F00CF818B100E03CE0012085E7608D55
:10166000FF280CD9FF2020850020009094F8282026
:101670004FF080734946204601F0DEFF0BE0608D9D
:1016800020850020009094F828204FF000734946F0
:10169000204601F0D1FF608D0028B9D12A4631469D
:1016A000204602F012F808B101205EE720202168F0
:1016B000C8612068406809490840216848602020C6
:1016C00084F84100002084F8420000BF84F8400004
:1016D00000BF4AE7022048E70024008000E800FE3F
:1016E0003CBCBDE8C09F00002DE9FC5F0446894674
:1016F00092469B46DDE90C780E9E94F84100202826
:101700007CD117B1B8F1000F05D14FF400706064BF
:10171000012000F0B3B800BF94F84000012801D1C7
:101720000220F6E7012084F8400000BFFFF713FE17
:10173000054619230122D1032046009501F096FFAA
:1017400008B10120E5E7212084F84100402084F819
:101750004200002060646762A4F82A8060635B46F0
:10176000524649462046CDE9006501F027FF30B1D9
:1017700000BF002084F8400000BF0120C9E7608D51
:10178000FF280CD9FF2020850020009094F8282005
:101790004FF080734946204601F04EFF0BE0608D0C
:1017A00020850020009094F828204FF000734946CF
:1017B000204601F041FF00BF2A463146204601F095
:1017C000AFFF08B10120A4E7616A481C6062087895
:1017D00021688862608D401E6085208D401E2085B6
:1017E000608D40B3208D30BB3346002280212046DF
:1017F000009501F03BFF10B101208AE73AE0608DCF
:10180000FF280CD9FF2020850020009094F8282084
:101810004FF080734946204601F00EFF0BE0608DCB
:1018200020850020009094F828204FF0007349464E
:10183000204601F001FF608D0028BDD12A463146C7
:10184000204601F042FF08B1012062E72020216814
:10185000C861206840680849084021684860202025
:1018600084F84100002084F8420000BF84F8400062
:1018700000BF4EE702204CE700E800FE3CBCBDE89C
:10188000C09F000010B504461949206888420AD15B
:101890001848806D20F4001016498865C02116484C
:1018A000FFF7E0FB22E01549206888420BD1114880
:1018B000806D20F480000F4988654FF488410E4800
:1018C000FFF7D0FB12E00E49206888420ED109488C
:1018D000806D20F400000749886580214FF090401A
:1018E000FFF7C0FB10210448FFF7BCFB10BD000050
:1018F000005400400010024000040048005800401E
:10190000005C004010B586B0044639492068884222
:101910001BD1C020019012200290012003900320CF
:1019200004900420059001A93248FFF729FC00BF6C
:101930003148806D40F400102F4988650846806D5D
:1019400000F40010009000BF4FE02C49206888424E
:101950001CD14FF488400190122002900120039086
:10196000032004900420059001A92248FFF708FCF9
:1019700000BF2148806D40F480001F4988650846FB
:10198000806D00F48000009000BF2EE01C492068AC
:1019900088422AD1802001901220029001200390D9
:1019A000032004900420059001A94FF09040FFF718
:1019B000E7FB1020019012200290012003900320E9
:1019C00004900420059001A90A48FFF7D9FB00BF45
:1019D0000948806D40F40000074988650846806D1D
:1019E00000F40000009000BF00BF06B010BD000072
:1019F000005400400004004800100240005800401D
:101A0000005C004010B5032000F06EF8002000F0EC
:101A100005F800F017F8002010BD000070B504466E
:101A2000074800684FF47A71B0FBF1F5284601F0E1
:101A3000DBFA00222146501E00F015F8002070BD90
:101A400000040020704701460846002809DB00F02A
:101A50001F0301229A4043099B0003F1E023C3F8CE
:101A6000002100BF70472DE9F05F80460D46164605
:101A7000002704F029FC074639462A46334601F080
:101A80000700C0F1070ABAF1040F02D94FF0040AA7
:101A900001E0C0F1070AD14600F1040ABAF1070FCC
:101AA00002D24FF0000A01E0A0F1030AD4464FF041
:101AB000010A0AFA09FAAAF1010A0AEA020A0AFA6A
:101AC0000CFA4FF0010B0BFA0CFBABF1010B0BEA1C
:101AD000030B4AEA0B042146404604F0FDFB00F0EC
:101AE00000B830BCBDE8C09F00BF00F00702064B45
:101AF00019684FF6FF031940044B0B4343EA0221D8
:101B0000014B196000BF70470CED00E00000FA05C2
:101B100000BF00BF00BF00BF00BFBFF34F8F00BFBB
:101B200000BF00BF0948006800F4E06008490843AE
:101B3000001D0649086000BF00BF00BFBFF34F8F04
:101B400000BF00BF00BF00BF00BFFDE70CED00E01D
:101B50000000FA0502460021B2F5007F29D11D4898
:101B6000006800F4C060B0F5007F31D0194800680B
:101B700020F4C06040F40070164B186016480068EE
:101B8000164BB0FBF3F0322300FB03F100E0491EDB
:101B900031B11048406900F48060B0F5806FF6D034
:101BA0000C48406900F48060B0F5806F10D10320CC
:101BB00070470848006800F4C060B0F5806F07D037
:101BC0000448006820F4C06040F48060014B186055
:101BD0000020EDE7007000400004002040420F00AC
:101BE0000248006800F4C0607047000000700040C8
:101BF0000348006840F480700149086070470000A5
:101C0000007000402DE9F84304460D461746FFF7E3
:101C1000A2FB8046A86900B100BFE86900B100BF1F
:101C2000286A00B100BF00BF94F84000012802D12B
:101C30000220BDE8F883012084F8400000BF94F83A
:101C40004100012828D100206064022084F841006E
:101C50004346002220212046009703F00BFD064654
:101C6000DEB900222946204603F0C2FB686A78B933
:101C70004346012202212046009703F0FBFC064662
:101C80005EB902202168C860012084F8410004E0A8
:101C9000012084F8410000E0022600BF002084F803
:101CA000400000BF3046C4E7F8B50446FFF753FBD9
:101CB00006460CB90120F8BD206A402800D000BFBC
:101CC00000BF94F84000012801D10220F3E7012071
:101CD00084F8400000BF94F8410050B9002084F817
:101CE0004000204600F04CF841F28831204600F0D8
:101CF000E8F82068006820F47061A068401E41EA9E
:101D0000002021680860A06C33460022202100904A
:101D1000204603F0AFFC054635BB2179E06840EA78
:101D20000160E1690843216A084321680968124A91
:101D30001140084321680860208A616941EA004037
:101D4000A1690843216849680C4A11400843216889
:101D500048602068006840F00100216808600020A9
:101D60006064012084F8410000BF002084F8400036
:101D700000BF28469FE700002FFFFF00FEF8E0FFAE
:101D800010B586B004461149206888421CD100BFB6
:101D90000F48006D40F480700D4908650846006DDD
:101DA00000F48070009000BF00BF40F60340019037
:101DB0000220029000200390032004900A20059046
:101DC00001A90448FFF7DCF906B010BD001000A01F
:101DD00000100240000400482DE9F84F04460E466A
:101DE00017460025FFF7B7FA80462068D0F818900C
:101DF000206800F1200A00BF94F84000012802D1B9
:101E0000022000F05BB8012084F8400000BF94F885
:101E1000410001284AD100206064002E40D02220D9
:101E200084F8410020680069401CA06320680069B4
:101E3000401C606326632068406920F0406040F0E9
:101E40008060216848612068C0F8189013E043461C
:101E5000012206212046009703F00CFC054605B13F
:101E60000CE09AF80000216B0870206B401C206386
:101E7000A06B401EA063A06B0028E8D100BF5DB935
:101E80004346012202212046009703F0F3FB05465A
:101E900015B902202168C860012084F8410006E0DD
:101EA000606C40F008006064012500E0022500BF7E
:101EB000002084F8400000BF2846A2E718BCBDE817
:101EC000E08F816470472DE9F84304460E461746BB
:101ED0000025FFF740FA8046206800F1200900BF86
:101EE00094F84000012802D10220BDE8F8830120C7
:101EF00084F8400000BF94F84100012845D100203B
:101F00006064002E3BD0122084F8410020680069F4
:101F1000401CE06220680069401CA0626662206884
:101F2000406920F040602168486113E04346012287
:101F300004212046009703F09DFB054605B10CE007
:101F4000606A007889F80000606A401C6062E06A9C
:101F5000401EE062E06A0028E8D100BF5DB9434658
:101F6000012202212046009703F084FB054615B9A3
:101F700002202168C860012084F8410006E0606CFE
:101F800040F008006064012500E0022500BF002049
:101F900084F8400000BF2846A7E700002DE9F84379
:101FA0000446002600270025A846208800F400608B
:101FB000B0F5006F26D1606C68B1B0F5000F03D0AA
:101FC000B0F5400F0ED10CE0D448C06840F480302A
:101FD000D249C86008E00021201D03F071FB0546CE
:101FE00002E001E0012500BF00BF55B9CB488830B1
:101FF000006820F44000616C0843C849C1F88800BB
:1020000000E0A846206800F40030B0F5003F74D12D
:102010004FF00009C148806D00F0805078B900BFD2
:10202000BE48806D40F08050BC4988650846806D90
:1020300000F08050009000BF00BF4FF00109B84889
:10204000006840F48070B6490860FFF784F90746DD
:1020500006E0FFF780F9C01B022801D9032505E03F
:10206000AF48006800F480700028F2D000BF7DBB4C
:10207000AA489030006800F44076CEB1A06DB0421E
:1020800016D0A6489030006820F44076A348D0F8D7
:10209000900040F48030A149C1F890000846D0F883
:1020A000900020F48030C1F890000846C0F890609D
:1020B00006F00100A8B1FFF74EF9074609E0FFF767
:1020C0004AF9C01B41F28831884202D9032507E052
:1020D00016E092489030006800F002000028EED030
:1020E00000BF5DB98D489030006820F44070A16D4C
:1020F00008438A49C1F8900003E00CE0A84600E0DC
:10210000A846B9F1010F05D18448806D20F08050B8
:102110008249886500BF207800F0010048B17F48FF
:102120008830006820F00300216A08437B49C1F829
:102130008800207800F00200022809D17748883012
:10214000006820F00C00616A08437449C1F88800F7
:10215000207800F00400042809D170488830006815
:1021600020F03000A16A08436C49C1F8880020784B
:1021700000F02000202809D168488830006820F449
:102180004060E16A08436549C1F88800208800F48E
:102190000070B0F5007F09D160488830006820F4F5
:1021A0004020E16B08435D49C1F88800208800F4B5
:1021B0008060B0F5806F09D158488830006820F4FD
:1021C0004010216C08435549C1F88800207800F080
:1021D0004000402809D151488830006820F4405020
:1021E000216B08434D49C1F88800207800F0800039
:1021F000802809D149488830006820F44040616B4C
:1022000008434649C1F88800208800F48070B0F582
:10221000807F09D141488830006820F44030A16BAC
:1022200008433E49C1F88800206800F40020B0F55A
:10223000002F1FD139488830006820F04060A16C21
:102240000843364988310860A06CB0F1006F06D1B0
:102250003248C06840F480103049C8600AE0A06C81
:10226000B0F1806F06D10121201D03F029FA054647
:1022700005B1A846206800F48020B0F5802F1FD15A
:1022800026488830006820F04060E16C084323490C
:1022900088310860E06CB0F1006F06D11F48C0685B
:1022A00040F480101D49C8600AE0E06CB0F1806F16
:1022B00006D10121201D03F003FA054605B1A84609
:1022C000208800F48040B0F5804F14D11348883046
:1022D000006820F04050216D0843104988310860A3
:1022E000206DB0F1805F06D10221201D03F0E8F9D6
:1022F000054605B1A846208800F40040B0F5004F1F
:1023000009D106488830006820F08040616D08439C
:102310000249C1F888004046BDE8F8830010024039
:102320000070004070B504460D460CB9012070BD28
:102330005348006800F00700A8420ED250480068D9
:1023400020F0070028434E4908600846006800F066
:102350000700A84201D00120E9E7207800F0010041
:10236000002840D06068032806D14648006800F085
:102370000070D8B90120DAE76068022806D1414828
:10238000006800F4003088B90120D0E7606830B9F7
:102390003C48006800F0020040B90120C7E7394816
:1023A000006800F4806008B90120C0E73548806803
:1023B00020F003006168084332498860FEF7CBFFD4
:1023C000064608E0FEF7C7FF801B41F288318842CD
:1023D00001D90320ABE72B48806800F00C0061684E
:1023E000B0EB810FEED1207800F00200022807D177
:1023F0002448806820F0F000A168084321498860E3
:102400001F48006800F00700A8420ED91C48006869
:1024100020F0070028431A4908600846006800F0C9
:102420000700A84201D0012081E7207800F00400D5
:10243000042807D11348806820F4E060E16808436D
:1024400010498860207800F00800082808D10D485D
:10245000806820F46050216940EAC1000949886021
:1024600000F03CF807498968C1F30311064A515C42
:10247000C840064908600020FFF7D0FA002056E760
:10248000002002400010024098F7010800040020DC
:1024900001480068704700000004002000B5FFF705
:1024A000F7FF04498968C1F30221034A515CC8401F
:1024B00000BD000000100240A8F7010800B5FFF7BA
:1024C000E7FF04498968C1F3C221034A515CC8404F
:1024D00000BD000000100240A8F70108F0B500217F
:1024E000002300240225022200203B4EB66806F09D
:1024F0000C065EB1384EB66806F00C060C2E1ED1E6
:10250000354EF66806F00306012E18D1324E3668B5
:1025100006F008062EB9304E94363668C6F303210D
:1025200003E02D4E3668C6F303112C4E56F82110E9
:10253000294EB66806F00C0686B908460EE0264E0F
:10254000B66806F00C06042E01D1254806E0224E9E
:10255000B66806F00C06082E00D122481E4EB6685A
:1025600006F00C060C2E36D11B4EF66806F003045E
:10257000194EF668C6F30216721C012C19D0022CF3
:1025800002D0032C14D109E0154EB6FBF2F6124F1F
:10259000FF68C7F3062706FB07F313E0114EB6FBEF
:1025A000F2F60D4FFF68C7F3062706FB07F309E0B5
:1025B00000BFB1FBF2F6084FFF68C7F3062706FB22
:1025C00007F300BF00BF044EF668C6F34166761CF1
:1025D0007500B3FBF5F0F0BD00100240B0F7010844
:1025E0000024F40000127A00F8B504460CB901206A
:1025F000F8BD207800F0100010286ED1F8488068EF
:1026000000F00C00002869D1F548006800F00200D5
:1026100018B1A06908B90120EAE7F148216A006809
:1026200000F0080020B1EE48006800F0F00005E07E
:10263000EB489430006800F47060000981421FD9B3
:10264000206A03F003F908B10120D1E700BFE44894
:10265000006840F00800E24908600846006820F081
:10266000F000216A0843DE49086000BF0846406860
:1026700020F47F40E16940EA0120D94948601EE02A
:1026800000BFD748006840F00800D54908600846F8
:10269000006820F0F000216A0843D149086000BFBB
:1026A0000846406820F47F40E16940EA0120CC49B7
:1026B0004860206A03F0CAF808B1012098E7FFF7E4
:1026C0000DFFC7498968C1F30311C64A515CC84070
:1026D000C54908600020FFF7A1F94AE0A06980B36E
:1026E000BF48006840F00100BD490860FEF733FEB6
:1026F000054606E0FEF72FFE401B022801D9032005
:1027000076E7B748006800F002000028F2D000BF6A
:10271000B348006840F00800B14908600846006806
:1027200020F0F000216A0843AD49086000BF084668
:10273000406820F47F40E16940EA0120A8494860F0
:1027400017E0FFE7A648006820F00100A4490860F0
:10275000FEF701FE054606E0FEF7FDFD401B0228E0
:1027600001D9032044E79E48006800F002000028D9
:10277000F2D1207800F00100002868D098488068E5
:1027800000F00C0008280BD09548806800F00C0081
:102790000C280ED19248C06800F00300032808D12D
:1027A0008F48006800F4003088B3606878BB01206F
:1027B0001EE700BF6068B0F5803F06D1884800681A
:1027C00040F48030864908601AE06068B0F5A02FB8
:1027D0000BD18348006840F4802081490860084696
:1027E000006840F4803008600AE07D48006820F40A
:1027F00080307B4908600846006820F4802008602B
:1028000000BF606890B1FEF7A6FD054607E01EE038
:10281000FEF7A1FD401B642801D90320E8E67048BB
:10282000006800F400300028F2D010E0FEF793FDBD
:10283000054606E0FEF78FFD401B642801D9032002
:10284000D6E66748006800F400300028F2D120780E
:1028500000F0020002285ED16148806800F00C00A0
:1028600004280BD05E48806800F00C000C2818D1BA
:102870005B48C06800F00300022812D15848006885
:1028800000F4806018B1E06808B90120B0E654484F
:10289000406820F0F850217C40EA016050494860CF
:1028A00039E0E06800B34E48006840F480704C495D
:1028B0000860FEF750FD054606E0FEF74CFD401BA4
:1028C000022801D9032093E64548006800F480609F
:1028D0000028F2D04248406820F0F850217C40EABD
:1028E00001603F49486016E03D48006820F4807070
:1028F0003B490860FEF72FFD054606E0FEF72BFD7D
:10290000401B022801D9032072E63548006800F414
:1029100080600028F2D1207800F00800082836D125
:102920006069D0B12E489430006840F001002C4915
:10293000C1F89400FEF70FFD054606E0FEF70BFD1B
:10294000401B022801D9032052E625489430006834
:1029500000F002000028F1D019E02148943000680E
:1029600020F001001E49C1F89400FEF7F4FC054672
:1029700006E0FEF7F0FC401B022801D9032037E6F1
:1029800017489430006800F002000028F1D1207848
:1029900000F0040004286ED100261148806D00F07C
:1029A000805070B900BF0E48806D40F080500C49D7
:1029B00088650846806D00F08050009000BF00BF21
:1029C00001260A48006800F48070F0B907480068E2
:1029D00040F4807005490860FEF7BDFC05460EE036
:1029E0000010024098F70108000400200070004029
:1029F000FEF7B1FC401B022801D90320F8E59D48F1
:102A0000006800F480700028F2D000BFA0680128A0
:102A100008D19948006840F0010097499039C1F801
:102A2000900021E0A06805280FD19348006840F08D
:102A3000040091499039C1F890000846D0F8900000
:102A400040F00100C1F890000EE08B48006820F0D3
:102A5000010089499039C1F890000846D0F89000EB
:102A600020F00400C1F8900000BFA068A0B1FEF7FC
:102A700072FC054609E02DE0FEF76DFC401B41F2BB
:102A80008831884201D90320B2E57B48006800F014
:102A900002000028F0D012E0FEF75DFC054608E0D9
:102AA000FEF759FC401B41F28831884201D90320CE
:102AB0009EE57148006800F002000028F0D1012E68
:102AC00007D16D489038806D20F080506A49903968
:102AD000886500BF207800F02000202838D1606A87
:102AE000D8B165480830006840F00100624990396B
:102AF000C1F89800FEF72FFC054606E0FEF72BFC18
:102B0000401B022801D9032072E55B4808300068A9
:102B100000F002000028F1D01AE0574808300068A1
:102B200020F0010054499039C1F89800FEF713FCD9
:102B3000054606E0FEF70FFC401B022801D90320E2
:102B400056E54D480830006800F002000028F1D139
:102B5000A06AE8B348489038806800F00C000C2860
:102B600074D0A06A022853D143489038006820F0FE
:102B70008070414990390860FEF7EDFB054606E09C
:102B8000FEF7E9FB401B022801D9032030E53A4853
:102B90009038006800F000700028F1D1206B401ED2
:102BA0000101606B41EA0020E16A0843A18F012224
:102BB000C2EB510140EA41514020005DC2EB5000A0
:102BC00041EA40613820005D41EAC0602A4900E0E6
:102BD0004EE09039C8600846006840F08070086098
:102BE0000846C06840F08070C860FEF7B4FB054638
:102BF00006E0FEF7B0FB401B022801D90320F7E4F2
:102C00001D489038006800F000700028F1D02FE0D7
:102C100019489038006820F0807017499039086092
:102C20000846006800F0006020B90846C06820F03F
:102C30000300C86010489038C068104908400E4929
:102C40009039C860FEF787FB054607E00EE0FEF707
:102C500082FB401B022801D90320C9E406489038B2
:102C6000006800F000700028F1D101E00120BFE40D
:102C70000020BDE40070004090100240FFFFEEFE17
:102C80002DE9F04104460D460026002700BF2079BB
:102C9000012802D10220BDE8F0810120207100BF8F
:102CA0006079012820D102206071FEF754FB0646AE
:102CB0000CE0FEF750FB801B022807D9042060714E
:102CC00000BF0020207100BF0320E4E720684068B7
:102CD00000F001000028ECD020688068E060E06827
:102CE00028600120607100E0012700BF00202071F2
:102CF00000BF3846CFE770B504460CB9012070BD5F
:102D0000606A00B900BF0021A16294F85D0028B993
:102D1000002084F85C00204600F04EF8022084F881
:102D20005D002068006820F0400021680860E068CD
:102D3000B0F5E06F01D9002501E04FF48055E0685F
:102D4000B0F5706F05D0E068B0F5E06F01D00021FC
:102D5000A162206B40B9E068B0F5E06F02D90221B2
:102D6000216301E001212163D4E9010108432169C4
:102D7000084361690843218B01F400710843E1694C
:102D80000843216A0843A16A0843216808600421B6
:102D9000A06901EA1040616A0843616B0843E16879
:102DA000084328432168486000202066012084F8F9
:102DB0005D000020A3E7000010B586B00446184966
:102DC000206888422AD100BF1648806D40F48040B8
:102DD000144988650846806D00F48040009000BF6B
:102DE00000BF0820019002200290002003900320E1
:102DF00004900520059001A90B48FEF7C1F94FF496
:102E000000500190022002900020039003200490C3
:102E10000520059001A90548FEF7B2F906B010BDDE
:102E2000003800400010024000080048000400483C
:102E30002DE9F84304460D4617461E464FF000089C
:102E4000C14600BF94F85C00012802D10220BDE811
:102E5000F883012084F85C0000BFFEF77CFA80460E
:102E600094F85D00012802D04FF00209B2E005B1EC
:102E700017B94FF00109ADE0032084F85D00002090
:102E80002066A563A787E7872064A4F84400A4F818
:102E900046002065E064A068B0F5004F05D12068C9
:102EA000006840F48040216808602068006800F0F5
:102EB0004000402805D02068006840F040002168AC
:102EC0000860E068B0F5E06F2AD9606810B1E08F63
:102ED000012806D128882168C860AD1CE08F401EFB
:102EE000E08719E02068806800F00200022807D11E
:102EF00028882168C860AD1CE08F401EE0870BE089
:102F00003EB1701C40B1FEF726FAA0EB0800B042BB
:102F100002D34FF003095DE0E08F0028E2D13FE0EB
:102F2000606810B1E08F012811D1E08F012807D926
:102F300028882168C860AD1CE08F801EE08706E00D
:102F400015F8010B21680873E08F401EE08724E02C
:102F50002068806800F00200022812D1E08F01286A
:102F600007D928882168C860AD1CE08F801EE087E3
:102F700013E015F8010B21680873E08F401EE0870D
:102F80000BE03EB1701C40B1FEF7E5F9A0EB080084
:102F9000B04202D34FF003091CE0E08F0028D7D1E4
:102FA00042463146204602F0AFFC08B120202066A0
:102FB000A06850B900BF002000902068C068009051
:102FC00020688068009000BF00BF206E08B14FF0FD
:102FD000010900BF012084F85D0000BF002084F8D3
:102FE0005C0000BF484632E770B504462546681EBF
:102FF000B0F1807F01D301200FE0681E4FF0E02187
:1030000048610F214FF0FF3003F066F900204FF0C8
:10301000E021886107200861002070BD10B50446DA
:103020000CB9012010BDA06900B100E000BF94F808
:10303000710028B9002084F87000204600F02AF8BA
:10304000242084F871002068006820F001002168C5
:103050000860204602F096FE012800D1E2E7606A8F
:1030600010B1204602F0D8FD2068406820F490405E
:10307000216848602068806820F02A002168886004
:103080002068006840F0010021680860204602F0D6
:103090003FFEC7E710B586B0044654492068884211
:1030A00024D100BF5248C06D40F001005049C865AE
:1030B0000846C06D00F00100009000BF00BF032073
:1030C0000190022002900020039003200490082029
:1030D000059001A94748FEF753F800221146462003
:1030E000FEF7C1FC4620FEF7AEFC7CE042492068BA
:1030F000884226D100BF3E48006E40F480403C49E3
:1031000008660846006E00F48040009000BF00BFD3
:103110004FF4C06001900220029000200390032031
:1031200004900720059001A94FF09040FEF728F881
:10313000002211462520FEF796FC2520FEF783FC91
:1031400051E02E492068884225D100BF2848806D73
:1031500040F40030264988650846806D00F4003050
:10316000009000BF00BF0C200190022002900020C0
:103170000390032004900720059001A94FF0904090
:10318000FDF7FEFF002211462620FEF76CFC2620EC
:10319000FEF759FC27E01A492068884223D100BF76
:1031A0001348806D40F48020114988650846806D81
:1031B00000F48020009000BF00BF3020019002206A
:1031C000029000200390032004900720059001A99D
:1031D0000848FDF7D5FF002211462720FEF743FCE3
:1031E0002720FEF730FC06B010BD00000080004034
:1031F0000010024000080048003801400044004030
:10320000004800402DE9F84304460D4616461F4687
:103210004FF0000994F87100202855D105B116B976
:103220000120BDE8F88300BF94F87000012801D1A7
:103230000220F6E7012084F8700000BF00206067DC
:10324000212084F87100FEF786F88146A4F85060CA
:10325000A4F8526021E04B460022802120460097CE
:1032600002F099FF08B10320DBE7A068B0F5805FAA
:103270000AD1206940B9A846B8F80000C0F3080098
:1032800021680885AD1C03E015F8010B216808854D
:10329000B4F85200401EA4F85200B4F852000028BE
:1032A000D9D14B46002240212046009702F073FFFF
:1032B00008B10320B5E7202084F8710000BF00208A
:1032C00084F8700000BFACE70220AAE71CB5FEF747
:1032D00099FB02F0F7FB01F0AFFF02F055F81B4835
:1032E00000680AF05BFC00F031FB4FF6FF7000F065
:1032F00099FA4FF478401649088016A018210B4619
:10330000F022CDE9001032210A2000F002FD16A0C3
:1033100010210B46F022CDE900105A21142000F0B4
:10332000F8FC18A010210B46F022CDE900108221F4
:10333000142000F0EEFC1AA010210B46F022CDE97B
:103340000010AA210A2000F0E4FC1CBD00040020AB
:103350003005002057656C636F6D6520746F2049E0
:103360006F54436C75422100426561725069204977
:103370006F5420446576656C6F7020426F61726493
:1033800000000000506F77657264206279204875F4
:1033900061776569204C6974654F53210000000016
:1033A000506C65617365207761697420666F722067
:1033B00073797374656D20696E6974000168896939
:1033C000C1F3400111B1002102689162016889696D
:1033D00001F0010129B90168896941F00101026820
:1033E0009161704770B504460D46164620688069A5
:1033F000C0F3001000283DD017E0681CA8B1FDF70D
:10340000AAFF801BA84200D87DB9606C40F0200064
:103410006064202084F84100002084F8420000BF4E
:1034200084F8400000BF012070BD20688069C0F3AF
:1034300040100028E1D010202168C86120202168B8
:10344000C8612046FFF7BAFF206840680A49084073
:1034500021684860606C40F004006064202084F8BB
:103460004100002084F8420000BF84F8400000BF03
:103470000120D9E70020D7E700E800FE10B5034897
:10348000FDF7D6FF02A002F0CDFE10BDF808002027
:103490004D505536303530204932432044656C61FB
:1034A00079EFBC81EFBC81EFBC81205265736574FC
:1034B000204932432E2E2E0A000000002DE9FE4343
:1034C00004460D4616461F46DDF828904FF00008CA
:1034D0000948006833462A462146CDE90079029022
:1034E0000648FEF72DF88046B8F1000F01D0FFF72F
:1034F000C5FF404600F004B834050020F80800205D
:1035000006BCBDE8F883000077B583B004460D46DD
:10351000002609480068012105AA0B46CDE90021D3
:1035200002902A4621460548FEF7DEF806460EB10F
:10353000FFF7A4FF06B070BD34050020F808002096
:103540002DE9F8430446894615461E46DDE908780C
:103550001948F2B2002349460090204600F06CF86A
:1035600042463946204600F0DBF810B10120BDE8A4
:10357000F883012E03D1E8B2216888620EE0C5F31A
:1035800007202168886242463946204600F0C8F884
:1035900008B10120EBE7E8B2216888623B460022CF
:1035A00040212046CDF8008000F060F808B10120ED
:1035B000DDE70020DBE70000002000802DE9F84374
:1035C0000446894615461E46DDE908781948F2B2D8
:1035D000C30249460090204600F02EF84246394684
:1035E000204600F09DF810B10120BDE8F883012EBF
:1035F00003D1E8B2216888620EE0C5F30720216894
:10360000886242463946204600F08AF808B1012017
:10361000EBE7E8B2216888623B4600228021204621
:10362000CDF8008000F022F808B10120DDE700208D
:10363000DBE7000000200080F0B5059C05686D68A0
:103640004FF4806606EA545666F0FC2646F4C046FF
:10365000B543C1F309064FF47F0707EA02473E432B
:103660001E432643354306687560F0BD2DE9F041E1
:1036700004460E4617461D46DDF8188019E0681C02
:10368000B8B1FDF768FEA0EB0800A84200D885B9E4
:10369000606C40F020006064202084F8410000202D
:1036A00084F8420000BF84F8400000BF0120BDE85C
:1036B000F081206880693040B04201D1012000E0F3
:1036C0000020B842DBD00020F1E770B504460D467B
:1036D00016461DE0324629462046FFF783FE08B114
:1036E000012070BDFDF737FE801BA84200D87DB9D0
:1036F000606C40F020006064202084F841000020CD
:1037000084F8420000BF84F8400000BF0120E8E7D1
:1037100020688069C0F340100028DBD00020E0E77B
:1037200070B504460D4616461FE03246294620462F
:10373000FFF758FE08B1012070BD681CA8B1FDF765
:103740000AFE801BA84200D87DB9606C40F02000C2
:103750006064202084F84100002084F8420000BF0B
:1037600084F8400000BF0120E6E720688069C0F3CC
:1037700040000028D9D00020DEE710B501F096FD0A
:1037800001F0CEFC00F002F810BD000000B587B0DB
:1037900000BF0D48C06C40F002000B49C8640846E9
:1037A000C06C00F00200019000BF00BF4FF44070F9
:1037B00002900120039000200490059002A9034884
:1037C000FDF7DEFC07B000BD001002400004004819
:1037D0002DE9F04104460D4616461F462A2000F00A
:1037E000C9FA201200F0D4FAE0B200F0D1FA301297
:1037F00000F0CEFAF0B200F0CBFA2B2000F0BAFACB
:10380000281200F0C5FAE8B200F0C2FA381200F04F
:10381000BFFAF8B200F0BCFA2C2000F0ABFABDE819
:10382000F0810000F8B505460020009028128DF8C0
:103830000000E8B28DF80100EF231A460021084687
:10384000FFF7C6FF00240DE09DF800000F4901F8C6
:1038500014009DF80100012101EB44010B4A505472
:10386000601C84B2B4F5107FEEDB012240210848D1
:10387000FDF76CFD002606E04FF49061034800F070
:1038800035F9701C86B2642EF6DBF8BD38100020C6
:103890000008004800B587B000BF2948C06C40F060
:1038A00002002749C8640846C06C00F0020001907D
:1038B00000BF00BF00BF0846C06C40F00400C864F1
:1038C0000846C06C00F00400019000BF00BF4FF438
:1038D000004002900120039004900220059002A96C
:1038E0001848FDF74DFC00224FF400411548FDF744
:1038F0002DFDC0200290012003900490022005902D
:1039000002A91148FDF73CFC0022C0210E48FDF73A
:103910001DFD00224FF400410A48FDF717FD00226B
:1039200080210948FDF712FD0C2009F0B1FD0122AC
:1039300080210548FDF70AFD01F0F2FC07B000BD4B
:1039400000100240000400480008004810B5FFF7CE
:10395000A1FF0C2009F09CFD112000F00BFA0C20B7
:1039600009F096FD362000F005FA002000F010FA6C
:103970003A2000F0FFF9652000F00AFAB22000F0CA
:10398000F9F90C2000F004FA0C2000F001FA0020F4
:1039900000F0FEF9332000F0FBF9332000F0F8F9D5
:1039A000B72000F0E7F9722000F0F2F9BB2000F038
:1039B000E1F93D2000F0ECF9C02000F0DBF92C200B
:1039C00000F0E6F9C22000F0D5F9012000F0E0F99E
:1039D000C32000F0CFF9192000F0DAF9C42000F07C
:1039E000C9F9202000F0D4F9C62000F0C3F90F2057
:1039F00000F0CEF9D02000F0BDF9A42000F0C8F905
:103A0000A12000F0C5F9E02000F0B4F9D02000F0CA
:103A1000BFF9042000F0BCF90D2000F0B9F9112025
:103A200000F0B6F9132000F0B3F92B2000F0B0F944
:103A30003F2000F0ADF9542000F0AAF94C2000F02E
:103A4000A7F9182000F0A4F90D2000F0A1F90B202F
:103A500000F09EF91F2000F09BF9232000F098F958
:103A6000E12000F087F9D02000F092F9042000F066
:103A70008FF90C2000F08CF9112000F089F9132047
:103A800000F086F92C2000F083F93F2000F080F947
:103A9000442000F07DF9512000F07AF92F2000F049
:103AA00077F91F2000F074F91F2000F071F9202031
:103AB00000F06EF9232000F06BF9212000F05AF994
:103AC000292000F057F9EF231A4600210846FFF796
:103AD0007FFE4FF6FF70FFF7A5FE0122D1030248DB
:103AE000FDF734FC10BD00000004004870B504462A
:103AF0000D462946204601F0F9FE70BD2DE9FE4F26
:103B000082468B4616461C46A6F12000C6B204EB40
:103B1000D4714910C1F1F001514503DBC4F1F0014A
:103B2000594501DA00F0F2B804EBD4700AEB6000FA
:103B3000401E82B20BEB0400401E83B25946504631
:103B40000094FFF745FE102C01D0202C4ED12046CA
:103B5000E31704EB5373DB1021464FEAE47C04EBDC
:103B60005C7C4FEAEC0CA4EBCC0CBCF1000F02D057
:103B70004FF0010C01E04FF0000C6344224604EBCF
:103B8000D27C4FEA6C0C03FB0CF303F0FF09002519
:103B900029E0102C04D1574800EB0610475D07E0E0
:103BA000202C04D1544800EBC610475D00E0B9E773
:103BB0004FF0000812E007F0800018B14F4800886D
:103BC000029002E04E4800880290029800F0EEF861
:103BD0007806070E08F1010000F0FF08B8F1080FA1
:103BE000E9DB681CC5B24D45D3DB80E00C2C45D128
:103BF0002046E31704EB5373DB1021464FEAE47CC5
:103C000004EB5C7C4FEAEC0CA4EBCC0CBCF1000F99
:103C100002D04FF0010C01E04FF0000C634422464B
:103C200004EBD27C4FEA6C0C03FB0CF303F0FF09AE
:103C3000002520E006EB4600324901EB8000475D9D
:103C40004FF0000812E007F0800018B12B48008800
:103C5000029002E02A4800880290029800F0A6F83C
:103C60007806070E08F1010000F0FF08B8F1060F12
:103C7000E9DB681CC5B24D45DCDB38E0182C36D1D9
:103C80002001C11700EB5171C1F3C70900252CE0D9
:103C900006EB46001C4901EB0010475D284605EB8A
:103CA000D0714910A5EB410111B90820019001E044
:103CB000042001904FF0000812E007F0800018B1D6
:103CC0000E480088029002E00D4800880290029899
:103CD00000F06CF87806070E08F1010000F0FF080C
:103CE00001988045E9DB681CC5B24D45D0DB00BFBB
:103CF00018E70000A0FD010860150208300500204B
:103D0000320500202CF90108900302081EBCBDE812
:103D1000E08F2DE9F04704460D4690469946DDE9CF
:103D2000086704F0FF0A08EB04001FFA80F809EBAB
:103D300005001FFA80F914E0444502DB5446A81937
:103D400085B24D4500DB12E03A78334629462046DD
:103D5000FFF7D4FE304606EBD07104EB61018CB264
:103D60007F1C38787E2802DC38782028E4DA00BF0F
:103D7000BDE8F08701B5002240210448FDF7E6FACE
:103D800001216846FFF7B2FE08BD000000080048A8
:103D900001B5012240210448FDF7D8FA0121684607
:103DA000FFF7A4FE08BD00000008004838B504462F
:103DB0000020009020128DF80000E0B28DF8010084
:103DC000012240210348FDF7C1FA02216846FFF7AE
:103DD0008DFE38BD0008004802465018401E904233
:103DE00004D95018401E4B1E98437047481E22EAC3
:103DF0000000FAE770B505460C4622460121284628
:103E000013F0B8FC70BD00002DE9F84305460C46E0
:103E100016461F46DDF820800A48006848B1094868
:103E2000CDF800803B4632462146D0F800C02846F7
:103E3000E0470548844202D00020BDE8F883002016
:103E4000FBE7000024050020F8C3B2A12DE9F047EC
:103E500004460D4691461E46089F16B92548BDE802
:103E6000F087F02C02D32348401EF8E7224904F1E2
:103E7000100051F820002149884202D01D48C01C82
:103E8000EDE7072D01DC002D02DA1A48001DE6E7F8
:103E9000FCF7FCF880461A49174A04F1100042F872
:103EA0002010184941F8206060B2002809DB00F0BA
:103EB0001F02012191404209920002F1E022C2F862
:103EC000001100BF60B22946002804DB0A07130E68
:103ED0000D4A135408E00A074FEA126C0B4A00F02F
:103EE0000F031B1F02F803C000BF4046FCF7D6F8C3
:103EF0000020B4E70109000200000020CD70010895
:103F0000AD710108380C002000E400E018ED00E07D
:103F100010B513F025FC2B482B49086013F082F9EB
:103F2000044654B100BF29A002F07CF9214629A023
:103F300002F078F900BF204610BD13F0E5F814F048
:103F40005FF804464CB100BF20A002F06BF928A036
:103F500002F068F900BF2046EEE714F0E5F813F030
:103F60006BFC04460CB12046E6E713F06BF90446FF
:103F70000CB12046E0E713F0B3FA04464CB100BFA1
:103F800012A002F04FF91FA002F04CF900BF20462A
:103F9000D2E713F0B3FD04464CB100BF0BA002F012
:103FA00041F91DA002F03EF900BF2046C4E714F01D
:103FB0002FFB13F0D1F804460CB12046BCE70020DB
:103FC000BAE70000E0260020280500205B45525299
:103FD0005D2000006F734D656D53797374656D4995
:103FE0006E6974206572726F722025640A00000089
:103FF0006F735461736B496E6974206572726F726E
:104000000A0000006F735175657565496E6974200B
:104010006572726F720A00006F735377546D724944
:104020006E6974206572726F720A000042684A609D
:104030000860426811604160704742684A600860E9
:10404000426811604160704742684A600860426897
:1040500011604160704742684A60086042681160C0
:1040600041607047D0E900121160D0E90021516031
:10407000002141600160704701464868884201D1D3
:10408000012070470020FCE701464868884201D1C2
:10409000012070470020FCE701464868884201D1B2
:1040A000012070470020FCE701464868884201D1A2
:1040B000012070470020FCE701464868884201D192
:1040C000012070470020FCE74060006070474060BE
:1040D000006070474060006070474060006070475B
:1040E00070B504460D4629462068FFF79FFF70BD56
:1040F00070B504460D46002604B10DB9304670BDBA
:104100002946204613F036FC064626B929462046A5
:1041100012F0F4FD06463046F1E770B504460D4650
:10412000164632462946204612F09FFE70BD70B5F5
:1041300004460D46002604B10DB9012070BD294684
:10414000204613F067FC0646012E04D0294620467F
:1041500012F0B8FE0646012E01D00120EEE7002045
:10416000ECE700002DE9F84F04460E464FF0010839
:1041700030480568D0F800900CB1502E02D80120CC
:1041800000F076B804F0030008B10120F8E7FBF76F
:104190007DFF824620E0A8684719AC4202D8A019EA
:1041A000A84204D8BC4215D2A019B84212D300BF0D
:1041B00021A002F037F8A8682844A2192B4621460E
:1041C00000901FA002F02EF800BF5046FBF766FFDC
:1041D0000120D5E7A946ED68002DDCD13146204607
:1041E00012F013FF8046B8F1000F04D15046FBF7E0
:1041F00055FF0120C4E7B6F5805F0BD3204613F0CE
:1042000046FC8046B8F1000F04D15046FBF746FF4C
:104210000120B5E70748006810B90648046001E0CE
:10422000C9F80C400020E0605046FBF737FF002043
:10423000A6E70000200500205B4552525D200000EB
:10424000706F6F6C205B25702C20307825782920CA
:10425000636F6E666C696374207769746820706F31
:104260006F6C205B25702C2030782578290A00009F
:1042700018BCBDE8E08F00002DE9F843064616B9EA
:104280001E48BDE8F883FBF701FF81461C48FFF795
:1042900003FF40B14846FBF701FF00BF174F7F1CEB
:1042A000DFF860801FE01648446800BFD4E90001D1
:1042B0000860D4E90010486000206060206000BF02
:1042C000A4F108056880012028700020A8822861D8
:1042D00005F10800FFF7FBFE686830604846FBF711
:1042E000DDFE0020CDE700BF002003463A464146F0
:1042F000009005A0FFF788FD3846C2E7021D0002C6
:10430000F0040020F8C3B2A16F735F756E7370651F
:1043100063696669635F66696C6500002DE9F8434F
:104320000746142F03D300BF1D4D1E4E2DE007EB93
:1043300047001D49096801EBC004FBF7A7FE804652
:10434000207830B94046FBF7A9FE00BF144D154E4A
:104350001BE004F10800FFF79FFE08B1608838B148
:104360004046FBF79BFE00BF0D4D08350D4E0CE09F
:1043700004F108010D48FFF760FE00202070404660
:10438000FBF78CFE0020BDE8F88300BF0020034649
:104390002A463146009006A0FFF736FD2846F2E790
:1043A000011D0002F8C3B2A1EC040020F0040020BB
:1043B0006F735F756E73706563696669635F666965
:1043C0006C6500002DE9F84307468846142F0BD38F
:1043D00000BF00200346494A4949009049A0FFF721
:1043E00013FD4648BDE8F88307EB47004A490968D2
:1043F00001EBC004FBF74AFE8146207868B94846C5
:10440000FBF74CFE00BF002003463C4A3C490090AD
:104410003CA0FFF7F9FC3948E4E712F0C3FE28B1ED
:104420004846FBF73BFE3548001DDBE73B48056887
:10443000608850B96088401C60802561E888A0824F
:104440004846FBF72BFE0020CCE72069A84207D1A5
:104450006088401C60804846FBF720FE0020C1E7D2
:10446000B8F1000F05D14846FBF718FE2348C01CE1
:10447000B8E72B48008850B1204E761D00BF29A018
:1044800001F0D0FE29A001F0CDFE00BF27E0EC61D5
:104490002069C088E988884203DDE988206913F033
:1044A0005BFE4246082104F1080013F0A1FF4846D4
:1044B000FBF7F4FD00F0CAF9287900F0400060B184
:1044C000FBF7E4FD8146A88820F04000A88048461C
:1044D000FBF7E4FD094EB61D05E0002082E74846E3
:1044E000FBF7DCFD00BF00BF002003463246044955
:1044F000009004A0FFF788FC304673E7011D00021E
:10450000F8C3B2A16F735F756E7370656369666996
:10451000635F66696C650000EC0400208404002081
:104520008C0400205B4552525D2000002121214C6B
:104530004F535F4552524E4F5F4D55585F50454E59
:10454000445F494E5F4C4F434B2121210A0000003C
:104550002DE9F843064606EB46003049096801EBB1
:10456000C004FBF793FD8046142E01D2207870B969
:104570004046FBF793FD00BF00200346284A294927
:10458000009029A0FFF740FC2548BDE8F8832B48A0
:104590000768608810B12069B8420DD04046FBF72B
:1045A0007DFD00BF002003461D4A1E4900901EA04D
:1045B000FFF72AFC1A48E8E76088401E80B2608056
:1045C00020B14046FBF76AFD0020DEE72069C08885
:1045D000A18A884203D0A18A206913F0BDFD04F1AD
:1045E0000800FFF759FD98B9E068A0F128050120FF
:1045F00060802561E888A0820020E86108212846C3
:1046000013F01CFF4046FBF749FD00F01FF902E0E4
:104610004046FBF743FD0020B7E70000EC04002014
:10462000011D0002F8C3B2A16F735F756E737065F0
:1046300063696669635F66696C65000084040020D5
:104640002DE9F05F0E469046DDF8289009F1040050
:104650001FFA80FAB8F1000F02D12E4800F060B8BE
:104660004FF6FB70814502DD2A480938F6E716B19E
:10467000B9F1000F02D12748401CEFE706FB0AF111
:1046800025480068FFF734FD074617B921480A3866
:10469000E4E7FBF7FBFC83462048FFF705FD50B13C
:1046A0005846FBF7FBFC39461B480068FFF73FFD07
:1046B00018480838D2E71948456800BFD5E9000115
:1046C0000860D5E90010486000206860286000BFDD
:1046D000A5F11C04E680A4F808A027600120A080B2
:1046E000002020826682A081E08104F11400FFF79F
:1046F000F1FC04F11C00FFF7EDFC04F12400FFF7CE
:10470000E9FC5846FBF7CAFC6089C8F800000020A5
:10471000A4E700000C06000228050020FC0400208D
:1047200030BCBDE8C09F00002DE9F04106460027DF
:104730000A2E02D32648BDE8F081FBF7A7FC80468D
:1047400006EB460000EBC6002249096801EB800435
:10475000A08810B91E4D6D1D34E004F11400FFF760
:10476000A3FC10B91A4DED1C2CE004F11C00FFF75E
:104770009BFC10B9164DED1C24E004F12400FFF75A
:1047800093FC10B9124DED1C1CE0608A218A08448C
:10479000E188884202D00E4DAD1D13E0276800204D
:1047A0002060A08004F11C010B48FFF74DFC40463F
:1047B000FBF774FC394609480068FFF7B8FC05466A
:1047C0002846B8E74046FBF769FC2846B3E70000F7
:1047D00005060002F8040020FC0400202805002043
:1047E0002DE9F84381460C4615461E4633462A46B7
:1047F0002146484612F074FF074617B13846BDE817
:10480000F8834FF000082B46224641464846009662
:1048100012F09EFEF3E72DE9FF4182B080460C4680
:104820001D462B4604AA2146404612F079FF064653
:104830001EB1304606B0BDE8F081032704AB224626
:1048400039464046009512F083FEF3E710B5FBF7BA
:104850001DFC044612F0AAFD28380A4948600846A3
:1048600000684968884208D00748008828B920466F
:10487000FBF714FCFBF715FC10BD2046FBF70EFC04
:1048800000BFF9E7840400208C04002070B50546C1
:104890000C4622464FF6FF71284612F06BFF70BDA2
:1048A0002DE9F8430746142F03D300BF1B4D1C4EC0
:1048B00029E01C48006800EB0714FBF7E7FB804683
:1048C000208830B94046FBF7E9FB00BF134D144E7A
:1048D00019E004F10800FFF7EFFB38B94046FBF799
:1048E000DDFB00BF0D4D08350D4E0CE004F1080155
:1048F0000D48FFF7B0FB002020804046FBF7CEFBC1
:104900000020BDE8F88300BF002003462A46314658
:10491000009006A0FFF778FA2846F2E701070002A8
:10492000F8C3B2A10C050020040500206F735F7569
:104930006E73706563696669635F66696C650000C4
:104940002DE9F84307468846142F0BD300BF0020FB
:1049500003463C4A3C4900903CA0FFF755FA3948D1
:10496000BDE8F8833E48006800EB0714FBF78EFBB8
:104970008146208868B94846FBF790FB00BF0020BD
:104980000346304A3049009030A0FFF73DFA2D48E9
:10499000E6E76088002807DD6088401E60804846A2
:1049A000FBF77CFB0020DBE7B8F1000F02D1254DBF
:1049B000ED1C39E012F0F6FB50B1224D2D1D00BF69
:1049C00028A001F02FFC29A001F02CFC00BF2BE057
:1049D0002F48008850B11B4D6D1D00BF21A001F074
:1049E00021FC2CA001F01EFC00BF1DE0324806682F
:1049F000B4614246082104F1080013F0F9FC48466E
:104A0000FBF74CFBFFF722FF307900F0400048B184
:104A1000FBF73CFB8146B08820F04000B080094D98
:104A2000AD1D01E000209BE74846FBF737FB00BFC8
:104A3000002003462A460449009004A0FFF7E4F949
:104A400028468DE701070002F8C3B2A16F735F75B6
:104A50006E73706563696669635F66696C650000A3
:104A60000C0500205B4552525D2000002121214CA5
:104A70004F535F4552524E4F5F53454D5F50454E29
:104A8000445F494E544552522121210A0000000042
:104A90008C0400202121214C4F535F4552524E4F30
:104AA0005F53454D5F50454E445F494E5F4C4F4309
:104AB0004B2121210A00000084040020F8B505469E
:104AC0002548006800EB0514142D01D32348F8BDD8
:104AD000FBF7DCFA0746208868B93846FBF7DEFAB0
:104AE00000BF002003461D4A1D4900901DA0FFF78E
:104AF0008BF91A48EBE7A088618888420FD13846C5
:104B0000FBF7CCFA00BF00200346144AD21D14491B
:104B1000009014A0FFF778F91048C01DD7E704F102
:104B20000800FFF7C9FA70B9E068A0F12806002074
:104B3000B0610821304613F081FC3846FBF7AEFA2D
:104B4000FFF784FE05E06088401C60803846FBF774
:104B5000A5FA0020BBE700000C05002001070002B9
:104B6000F8C3B2A16F735F756E7370656369666930
:104B7000635F66696C65000010B513F097FC04462E
:104B80004CB100BF06A001F04DFB07A001F04AFBAD
:104B900000BF204610BDFBF753FA2046FAE700009D
:104BA0005B4552525D2000006F735469636B537410
:104BB000617274206572726F720A00002DE9F04113
:104BC00005460F4600263946284600F045F80646B9
:104BD00016B13046BDE8F0812868C0EBC00000EB9C
:104BE00040001949096801EB8004FBF74FFA804641
:104BF000A08820F00200A080A08840F00400A080DF
:104C0000E18804F1280012F075FB12F0CFFB283880
:104C10000E4948600E48006888B10E48008870B997
:104C2000084600684968884209D00A48008830B9B7
:104C30004046FBF733FA12F099FD0020CAE74046E0
:104C4000FBF72CFA0020C5E7800400208404002034
:104C5000BC0400208C0400202DE9F05F07460C46C0
:104C60004FF000084FF0FF3A17B9544800F0B4B8BD
:104C700014B95248801FF9E7206910B94F48801EC7
:104C8000F4E7206810B94D48C01EEFE7A0881F2840
:104C900002DD4A48001FE9E7A0881F2806D14849DD
:104CA0002068884202D04548001FDFE74549464A50
:104CB000891AE068884202D940481930D6E7E0688E
:104CC00010B94FF43470E0600821E068FFF784F811
:104CD000E060E068B0F5987F02D23848401EC5E732
:104CE000FBF7D4F9834612E038484068A0F1280564
:104CF00036494868FFF7B6F905F128013448FFF74F
:104D000095F93148E968FFF712FA0020E8602F486A
:104D1000FFF7BAF90028E7D02D48FFF7B5F928B119
:104D2000DFF898A00AF10A0A00BF41E0284840686D
:104D3000A0F1280526494868FFF794F95846FBF783
:104D4000ADF9D5F8108008221F48E168FFF7E5F9B2
:104D500006465EB9FBF79AF9834605F128011C481F
:104D6000FFF764F9DFF86CA000BF21E0324640464F
:104D7000E16813F055FC8146C5F80090A0682862F0
:104D8000EE60E068A8600020A861E8610220A880C9
:104D9000A088E880206868614FF0FF30E863002059
:104DA000A8642069686200202865C7F800805DE774
:104DB0005846FBF773F9504658E700000702000217
:104DC0005571010800FC0020E0260020AC04002002
:104DD000A40400200002000330BCBDE8C09F000016
:104DE00070B5044612F0DEF908B1184870BD1848D5
:104DF000008808B11748F9E714B900F011F9F5E790
:104E0000FBF744F905461449096801F1280012F03E
:104E10004BFA11480068808820F004000E490968A8
:104E200088800D490868214613F06EF80A4800682A
:104E3000808840F020000849096888802846FBF7F0
:104E40002DF9FFF703FD0020D0E700000D0200035D
:104E50008C0400200E020002840400202DE9F041A1
:104E600006464FF0FF3751480068864202D150484D
:104E7000BDE8F0814F480068864202D14C480D30B1
:104E8000F6E74D480068864202D349480D38EFE7FF
:104E9000FBF7FCF88046C6EBC60000EB4000474934
:104EA000096801EB8004A58805F0010018B1404FA6
:104EB0000A3F00BF74E005F0100028B140480088A8
:104EC00010B100203E49088005F0040040B104F113
:104ED000280012F0E9F9A08820F00400A08009E081
:104EE00005F0080010B905F4005018B104F12800CD
:104EF000FFF7B8F805F0600010B1204613F03EFB54
:104F0000A08820F00200A080A08840F00100A080CE
:104F10004FF0FF30E0630020A06412F047FA283819
:104F200028494860207900F0100038B304F12801C6
:104F30002548FFF7D5F820480068C0EBC00000EB1B
:104F400040001E49096801EB80001E4908600846C0
:104F500000680661A088096888801A49E0680968C5
:104F6000C8601849606A096848620120A08040460C
:104F7000FBF794F812F0FAFB002079E70120A080FB
:104F800004F128011148FFF751F81148E168FFF7D3
:104F9000CEF80020E0604046FBF780F8002067E78D
:104FA0004046FBF77BF8384662E700009404002097
:104FB00014020002980400209004002080040020C5
:104FC0008C04002084040020AC040020A4040020F1
:104FD000E026002070B504460F480068844201D3E3
:104FE000002070BDC4EBC40000EB40000B49096811
:104FF00001EB8005FBF74AF80646287900F001002E
:1050000020B13046FBF74AF80020EAE73046FBF7CC
:1050100045F8686AE5E7000090040020800400205D
:1050200070B500242048006800692049096888425A
:1050300001D31F4870BD1C480068007900F00400CF
:1050400008B90020F6E7FBF721F80546164909687C
:10505000C88812F097F90446012C17D9124909683B
:1050600001F12800FEF7FEFF0F480068808840F03D
:1050700004000D49096888800B4A1268D1880A4AE1
:10508000126802F1280012F035F905E02846FBF716
:1050900005F807480930CDE72846FAF7FFFFFFF784
:1050A000D5FB0020C6E70000840400209004002007
:1050B00007020002014903C970470000C80400202C
:1050C0001CB50446062269463B2000F066F89DF8B0
:1050D00001009DF8001040EA012000B220809DF8F8
:1050E00003009DF8021040EA012000B260809DF8A4
:1050F00005009DF8041040EA012000B2A0801CBD0C
:1051000008B50020009001226946752000F045F89E
:105110009DF80000682801D0002008BD0120FCE7B0
:1051200070B50024002500BF06E0002500E06D1CDE
:10513000B5F57A7FFBDB641CB4F57A7FF5DB802163
:105140006B2000F06FF86420FBF77CFF00216B20E0
:1051500000F068F80021382000F064F800216A208F
:1051600000F060F80021232000F05CF88021372057
:1051700000F058F800F032F904211A2000F052F83B
:105180001C21084600F04EF81C21372000F04AF898
:105190004021382000F046F870BDF8B504460D46B1
:1051A00016462B4601222146D0200096FEF786F9AE
:1051B000F8BD000030B52DED068B81B0044602220B
:1051C00069464120FFF7E9FF9DF801009DF80010B6
:1051D00040EA012005B243F290302844FBF71AFB65
:1051E00041EC1A0B9FED0B0B53EC102BFBF7A3FAC2
:1051F00041EC190B9FED090B53EC102BFBF718FA40
:1052000041EC180BFBF744FB00B2208001B0BDEC71
:10521000068B30BD000000000080714000000000DF
:1052200000002A4070B504460D462A462146D0208B
:10523000FEF76AF970BD000008B500BF1A48C06CDF
:1052400040F004001849C8640846C06C00F004002F
:10525000009000BF00BF00BF0846C06C40F0800057
:10526000C8640846C06C00F08000009000BF00BF1A
:1052700000BF0846C06C40F00100C8640846C06C1E
:1052800000F00100009000BF00BF00BF0846C06CE6
:1052900040F00200C8640846C06C00F002000090B4
:1052A00000BF00BF08BD00000010024010B5154847
:1052B00015490860154848600021134881600121A4
:1052C000C1600021016141618161C1610162FCF73E
:1052D000D1F818B144210EA000F093FF00210A4834
:1052E000FCF73DF818B14B2109A000F08AFF00211E
:1052F0000548FCF769F818B1522105A000F081FFBC
:1053000010BD000000540040F8080020EC9C9010F4
:105310002E2E5C5372635C6932632E6300000000C2
:1053200010B51348134908604FF4827048604FF479
:105330000041104881604FF4E061C16002210161C9
:1053400001214161490281610021C1610162416223
:1053500081620721C1620021016308214163FDF7D9
:10536000CAFC18B1472104A000F04BFF10BD00009B
:1053700000380040DC0900202E2E5C5372635C7301
:1053800070692E630000000010B50E480E490860D9
:105390004FF4E130486000210B488160C160016139
:1053A0000C21416100218161C16101620020064937
:1053B00048620846FDF732FE18B15B2103A000F0F9
:1053C00020FF10BD00380140900700202E2E2F53E3
:1053D00072632F75736172742E63000010B5032120
:1053E0001F20FFF71FFF14212020FFF71BFF10BD18
:1053F00010B54B6A33B1B2F1406F03D08B6A5B1EBC
:10540000046823618B69002B76D00B6AE3B38B6849
:105410000468E361CB69FBB1D1E90B3423434C6BE6
:1054200023434C6A23438C8A43EA84430C69234315
:105430000C6A2343CC682343CC6923438C69234300
:105440000C682343134304686361B2F1406F02D0D8
:105450004B680468A361BEE0D1E90B3423434C6B75
:1054600023434C6A23438C8A43EA84430C692343D5
:105470000C6A2343CC6923438C6923430C68234380
:10548000134304686361A6E0FFE7CB69EBB1D1E9A0
:105490000B3423434C6B23434C6A23438C8A43EAEB
:1054A00084430C6A2343CC682343CC6923438C692F
:1054B00023430C682343134304686361B2F1406FD4
:1054C000C9D04B680468A36185E0D1E90B3423435C
:1054D0004C6B23434C6A23438C8A43EA84430C6A13
:1054E0002343CC6923438C6923430C682343134330
:1054F000046863616FE0FFE70B6AC3B38B680468FD
:10550000E361CB69EBB1D1E90B3423434C6B23430B
:105510004C6A23438C8A43EA84430C6923430C6A14
:105520002343CC682343CC6923438C69234313432F
:1055300004686361B2F1406F4DD04B680468A361A9
:1055400049E0D1E90B3423434C6B23434C6A23439A
:105550008C8A43EA84430C6923430C6A2343CC6955
:1055600023438C69234313430468636133E0FFE7FB
:10557000CB69DBB1D1E90B3423434C6B23434C6A39
:1055800023438C8A43EA84430C6A2343CC68234335
:10559000CC6923438C692343134304686361B2F1EC
:1055A000406F18D04B680468A36114E04B6A93B154
:1055B000D1E90B3423434C6B23434C6A23438C8A3D
:1055C00043EA84430C6A2343CC6923438C69234315
:1055D00013430468636110BD70B504460D46681E30
:1055E00006490968086141F2883221460348FCF700
:1055F000F3FB08B9002070BD0120FCE7C8140020AF
:105600002DE9F0478EB004460D4616461F46DDE9EB
:10561000179ADDF858800094019505960697CDF805
:105620001C80CDF80C90CDF824A000200D9008909F
:105630000B900C9041F2883269460348FCF7E2FA7D
:105640000EB0BDE8F0870000C814002070B5044615
:105650000D46681E06490968086141F288322146F4
:105660000348FCF730FC08B9002070BD0120FCE7BE
:10567000C81400202DE9F04104460E46174698460E
:10568000069D12E0681C80B1FBF765FEA0EB0800E8
:10569000A84200D84DB9042084F84100606C40F065
:1056A000010060640120BDE8F0812068806830401E
:1056B00008B1012000E00020B842E3D10020F2E769
:1056C0002DE9F04104460E46002700255B48C068DE
:1056D00000F0030090B15948C06800F00300216851
:1056E000884209D1206838B15448C068C0F302101C
:1056F000401C6168884233D0012531E020680128D0
:1057000004D0022809D003281AD10DE04B480068C4
:1057100000F0020000B9012514E04848006800F4D8
:10572000806000B901250DE04448006800F40030B5
:1057300028B94248006800F4802000B9012501E042
:10574000012500BF00BF5DB9D4E90010401E41EA49
:1057500000103A49C96821F0730108433749C8600D
:10576000002D67D13548006820F08060334908601B
:10577000FBF7F1FD074606E0FBF7EDFDC01B022835
:1057800001D9032505E02D48006800F000600028DD
:10579000F2D100BFC5BB66B9A0680002217B40EA18
:1057A000C16026490969264A114008432349086116
:1057B00020E0012E0FD1A0680002218A0122C2EB55
:1057C000510140EA41501D4909691E4A11400843F0
:1057D0001A4908610EE0A0680002217D0122C2EB97
:1057E000510140EA416015490969174A11400843CF
:1057F000124908611148006840F080600F49086054
:10580000FBF7A9FD074607E014E0FBF7A4FDC01B6A
:10581000022801D9032505E00848006800F000606F
:105820000028F2D000BF2DB904480069A1690843DF
:10583000024908612846BDE8F081000000100240DE
:10584000FF80FF07FF809FFFFF80FFF9F8B5044648
:10585000002600252348806D00F0805018B1FCF729
:10586000BFF9064616E000BF1E48806D40F080502C
:105870001C4988650846806D00F08050009000BF8C
:1058800000BFFCF7ADF906461648806D20F0805049
:1058900014498865B6F5007F07D1802C10D9A02C5B
:1058A00001D902250CE001250AE0802C01D903254D
:1058B00006E0802C01D1022502E0702C00D10125E8
:1058C0000948006820F00700284307490860084697
:1058D000006800F00700A84201D00120F8BD0020B8
:1058E000FCE70000001002400020024070B50446B2
:1058F0000D464FF47A732A4621460248FDF798FA7E
:1059000070BD0000DC090020F8B504460E461546BF
:10591000334600224FF4C0512046009500F026F88F
:1059200028B1206E40F0200020660320F8BD3346E9
:10593000002280212046009500F070F828B1206EEA
:1059400040F0200020660320F0E7334600224FF4A9
:10595000C0612046009500F009F828B1206E40F0A3
:10596000200020660320E1E70020DFE72DE9F8436F
:1059700004460E4617461D46DDF8208047E0B6F582
:10598000C06F05D127B92068007B00909DF800000A
:10599000681CD8B32DB1FBF7DEFCA0EB0800A842D1
:1059A00035D32068406820F0E000216848606068D6
:1059B000B0F5827F0DD1A068B0F5004F03D0A0688C
:1059C000B0F5806F05D12068006820F040002168A4
:1059D0000860A06AB0F5005F0DD100BF20680068C4
:1059E00020F40050216808602068006840F40050EE
:1059F0002168086000BF012084F85D0000BF00201E
:105A000084F85C0000BF0320BDE8F883FFE720684E
:105A100080683040B842B2D10020F5E72DE9F0416E
:105A200004460E4617461D46DDF818803EE0681C09
:105A3000D8B32DB1FBF78FFCA0EB0800A84235D3FB
:105A40002068406820F0E000216848606068B0F598
:105A5000827F0DD1A068B0F5004F03D0A068B0F5EB
:105A6000806F05D12068006820F040002168086040
:105A7000A06AB0F5005F0DD100BF2068006820F477
:105A80000050216808602068006840F400502168D8
:105A9000086000BF012084F85D0000BF002084F88A
:105AA0005C0000BF0320BDE8F081FFE7206880684C
:105AB0003040B04201D1012000E00020B842B6D110
:105AC0000020F0E700B5ADB0FCF792F8364800686A
:105AD00020F0180034499039C1F8900016201C902D
