:020000040800F2
:1000000050050020A1010008C52A00089129000818
:10001000C12A0008B10900087D3100080000000075
:10002000000000000000000000000000392C000863
:10003000C109000800000000C92A00083D2C000882
:10004000BB010008BB010008BB010008BB010008A0
:10005000BB010008BB010008BB010008BB01000890
:10006000BB010008BB010008BB010008B50900087E
:10007000BB010008BB010008BB010008BB01000870
:10008000BB010008BB01000829080008BB010008EB
:10009000BB010008BB010008BB010008BB01000850
:1000A000BB010008BB010008BB010008BB01000840
:1000B000BB0100080000000000000000BB010008B8
:1000C000BB010008BB010008BB010008BB01000820
:1000D000BB010008BB010008BB010008BB01000810
:1000E000BB010008BB010008000000000000000088
:1000F0000000000000000000000000000000000000
:1001000000000000BB01000800000000BB01000867
:100110000000000000000000BB010008BB01000857
:10012000BB010008BB010008BB010008BB010008BF
:10013000BB010008000000000000000000000000FB
:10014000BB010008BB010008BB0100080000000063
:10015000BB010008BB010008BB010008BB0100088F
:10016000BB010008BB010008BB0100080000000043
:10017000BB010008BB0100080000000000000000F7
:10018000BB010008BB010008BB010008DFF80CD070
:1001900000F026FB00480047A93100085005002068
:1001A0000648804706480047FEE7FEE7FEE7FEE711
:1001B000FEE7FEE7FEE7FEE7FEE7FEE7412C00086C
:1001C0008D0100082DE9F05F0546002092469B4610
:1001D00088460646814640241BE02846414647465D
:1001E000224600F00BF953465A46C01A914110D3EB
:1001F00011461846224600F0F2F82D1A67EB010866
:100200004F4622460120002100F0E9F817EB0009D3
:100210004E41201EA4F10104DFDC484631462A4647
:10022000434600F000B830BCBDE8C09FD2B201E048
:1002300000F8012B491EFBD270470022F6E710B5EB
:1002400013460A4604461946FFF7F0FF204610BD44
:100250002DE9FE4F81EA030404F0004421F000413F
:1002600000944FF0000B23F0004350EA01045ED0ED
:1002700052EA03045BD0C3F30A54C1F30A552C4479
:10028000A4F2F3340194A0FB0254C1F3130141F42E
:100290008011C3F3130343F4801301FB024400FBFA
:1002A000034E840A970A44EA815447EA8357A4FB21
:1002B000076802958D0A05FB07854FEA932C04FB1E
:1002C0000C542705029D4FEA065847EA1637B5EB4E
:1002D00008056EEB070C870E920E47EA811742EA7B
:1002E0008312A7FB0201B6EB0B0164EB00042B0D9C
:1002F00043EA0C335E1844EB1C50DA465146E7FBE8
:100300000201C5F313044FEA0B3343EA14534FEAD7
:100310000432019C43EA0603A4F10C040294009CFD
:10032000CDE900B400F0C0F803B000F003B800203D
:100330000146F9E730BCBDE8C08F0EB540F233414D
:1003400002910021CDE900110A460B4600F0ACF8FD
:1003500003B000BD00F0004230F000400AD0C10DF3
:1003600001F56071C0F3160042EA0151C20840076E
:100370001143704700200146704701F0004330B43C
:1003800021F0004150EA010206D00A0DA2F5607288
:10039000C1F31301002A02DC30BC00207047440F77
:1003A00044EAC104C100E01830BC00EBC25000F0C8
:1003B00035B830B50B46014600202022012409E063
:1003C00021FA02F59D4205D303FA02F5491B04FA0E
:1003D00002F52844151EA2F10102F1DC30BD202AED
:1003E00004DB203A00FA02F1002070479140C2F18C
:1003F000200320FA03F3194390407047202A04DBBE
:10040000203A21FA02F00021704721FA02F3D0408D
:10041000C2F1200291400843194670470029A8BF45
:100420007047401C490008BF20F00100704710B41D
:10043000B0FA80FC00FA0CF050EA010404BF10BCD2
:10044000704749B1CCF1200421FA04F411FA0CF1FF
:1004500018BF012121430843A3EB0C01CB1D4FEA38
:1004600000614FEA102042BF002010BC704700EB33
:10047000C35010440029A4BF10BC7047401C490061
:1004800008BF20F0010010BC704710B5141E73F1B6
:10049000000408DA401C41F1000192185B411A4344
:1004A00001D120F0010010BD2DE9F04D92469B4690
:1004B00011B1B1FA81F202E0B0FA80F22032904636
:1004C000FFF78DFF04460F4640EA0A0041EA0B01A0
:1004D00053465A46084313D0114653EA010019D037
:1004E000C8F140025046FFF789FF05460E465046C8
:1004F00059464246FFF773FF084305D0012004E048
:1005000020463946BDE8F08D0020054346EAE076F6
:100510002C4337430A986305E40AA0EB0800002245
:10052000FD0A44EA47540A3002D500200146E9E7B3
:10053000010510196941DDE9084500196941BDE867
:10054000F04DA2E72DE9FE4F804681EA0300C00F7F
:100550000C46009021F0004123F00045B8EB02006A
:10056000A94105D24046214690461C460B4602460C
:1005700023F00040104347D0270DC7F30A00C3F310
:100580000A510290401A019040286BDAC3F313001D
:1005900040F4801B0098924620B10023D2EB030A5E
:1005A00063EB0B0B01985946C0F140025046FFF730
:1005B00016FF06460D4650465946019A00F022F9AC
:1005C00010EB08006141002487EA115284EAE773C6
:1005D0001A4340D0009A62B3019A012A4FEA0752A7
:1005E00015DC001B61EB02014FF0004202EA0752EA
:1005F000CDE90042001C41F5801132462B46FFF741
:1006000053FF03B000F045B840462146F9E7001B10
:1006100061EB0201001C41F5801300185B412018BA
:10062000A2F5001747EB030140EAD570B6196D41FA
:1006300011E06D084FEA360645EAC0754FEA0752E9
:10064000001B61EB0201001C41F5801149084FEAD3
:1006500030000019514132462B4603B000F01CB85F
:10066000FFF713BF0098012240000023D0EB0202E5
:1006700063EBE073009821464FEAE074B8EB0000AA
:1006800061EB0401E9E783F000435BE781F000419F
:1006900058E730BCBDE8C08F30BCBDE8C04FFFF7A5
:1006A000DFBF2DE9F04D81EA030404F0004B21F097
:1006B000004514464FF0000A23F0004150EA0502BD
:1006C00020D054EA01021DD0C5F30A570246C5F3F3
:1006D0001303C1F31300C1F30A5640F4801543F429
:1006E0008013A7EB0608101BD64608F2FD3873EB03
:1006F000050002D308F1010801E092185B41B8F14E
:10070000000F03DA00200146BDE8F08D00204FF411
:100710008011064684460EE0171B73EB050705D3D0
:10072000121B63EB050306434CEA010C49084FEA30
:10073000300092185B4150EA0107EDD152EA030004
:1007400012D082EA040083EA0501084305D0101B99
:10075000AB4106D20122002306E000224FF0004305
:1007600002E06FF0010253101AEB06004CEB085147
:1007700010EB0A0041EB0B01BDE8F04DFFF785BE21
:10078000C1F30A52C1F3130140F2FF3341F4801167
:100790009A4202DA00200146704740F233439A42FF
:1007A000A2F2334202DC5242FFF728BEFFF717BE27
:1007B00030B5041E71F1000404DB4FF000444042E8
:1007C00064EB0101141E73F1000405DB1C464FF0BD
:1007D0000043524263EB0403994208BF904230BD8C
:1007E000064C074D06E0E06840F0010394E807007E
:1007F00098471034AC42F6D3FFF7CCFC243C0008F9
:10080000443C0008202A06DBCB17203A41FA02F0CC
:1008100043EAE07306E041FA02F3D040C2F120025D
:10082000914008431946704740F21800C2F2000098
:1008300000F094BA0146806A436D426D13F0500F88
:1008400008D0D20648BF00F087BAC06C426B084699
:10085000104700BF42F40071416501680B68CA6827
:100860001B0703D4910707D500F072BA12F4406F4A
:10087000FAD1C9688904F7D4416D21F480714165CA
:10088000416DC90448BF00F063BA416D41F00101F8
:10089000416500F05DBA0000806A416D41F04001A1
:1008A0004165816D41F00401816500F055BA000099
:1008B000806A00F04FBA000070B582B00446002094
:1008C000019021688A68D20711D14FF6C076C7F629
:1008D000FF76886806F17F0210420BD0606D40F011
:1008E00010006065A06D40F00100A065012002B01D
:1008F00070BD00BF8868304040F00100886040F261
:100900000830C5F204000068000221D400F010FF96
:1009100021680A68D20717D1054602E00868C007B7
:1009200012D18868C00704D18868304040F00100C7
:10093000886000F0FDFE401B21680328EED30868A4
:10094000C007EBD1CAE700BF002002B070BD00BFF6
:1009500040F20C00C2F20000006842F663518009C8
:10096000C0F23E51A0FB0101880900EB40000C21C0
:1009700001EB8000019001980028C7D00198013850
:10098000019001980028C1D0019801380190019888
:100990000028BBD001980138019001980028B5D0FB
:1009A00001980138019001980028E7D1AEE70000D6
:1009B000FEE7000040F27C00C2F2000000F0A6BC9E
:1009C00070470000EFF3108072B600BFFEE7000032
:1009D000704700007047000070470000704700003B
:1009E00070470000F0B581B00022009290F85020CE
:1009F000012A03D10221084601B0F0BD0123076896
:100A000080F85030BB685B0700F19C804B68052B79
:100A100007D8023B032B9ABFC9A454F823300623FE
:100A20004B60C3F3012207EB82020C68156B03F0E5
:100A30001F031F269E4025EA0606C4F3846505FAB7
:100A400003F333431363BA68BB6802F0040203F094
:100A50000803D21840F091800A688B68C2F34066A0
:100A600007EB86067569C2F3045207249440A54338
:100A700003FA02F22A437261D1E9043CFC68042BB8
:100A800066D13A6E3A6E0B68C2F3846293FAA3F6AB
:100A9000C3F3846C6FF3DF43B6FA86F5002B2C4664
:100AA0004FF6FF7E08BF6446A242C0F2070E0CD18B
:100AB0003A6E22F000423A660A6802EA0E03C2F376
:100AC000846C92FAA2F2B2FA82F57A6E7A6E002BF8
:100AD000C2F384622C4608BF6446A2420CD17A6EEF
:100AE00022F000427A660A6802EA0E03C2F3846CBE
:100AF00092FAA2F2B2FA82F5BA6EBA6E002BC2F383
:100B000084622C4608BF6446A2420CD1BA6E22F021
:100B10000042BA660A6802EA0E03C2F3846C92FAD3
:100B2000A2F2B2FA82F5FA6EFA6E002BC2F3846278
:100B300008BF6546AA4220D1FA6E22F00042FA664A
:100B40001BE000BF416D41F0200141650121E8E05B
:100B500006220E6807EB830302EA94021D6E4FF231
:100B600000040CFA02F2C0F2FF3406F0F846254009
:100B700032432A4342F000421A66BA68D20750D183
:100B80000C68CA68D7F8B06023466FF3DF4326EAE3
:100B9000030C4FF6FF7602F01805C0F20706EE4090
:100BA00000252640C4F27F0546EA0C06AA42C7F893
:100BB000B06036D193B194FAA4F2B2FA82F2013263
:100BC00002F01E03092B02F01F0310D801229A40E5
:100BD00003EB430342EA035315E000BF012202EB9B
:100BE000946202F01E030A2B02F01F03EED30122CF
:100BF00000269A4003EB4303CFF6206606EB03532F
:100C00001A4342F00073C3F3406607EB86068A6816
:100C10007569C3F3045307249C40A5439A402A43B3
:100C2000726109680022C8F2080211422CD040F219
:100C30000833C5F204031C680022CCF252729142C0
:100C400004F0E07C08BF14F400021FD00022CCF6B0
:100C50008432914208BF14F080721DD00122C8F284
:100C6000000291424FF0000108BF14F4800258D1F5
:100C7000A3F54272974254D1196821F0E07141EA1C
:100C80000C0141F480014AE000214AE0A3F54271E1
:100C90008F4207D0002144E0A3F542718F4237D044
:100CA00000213EE0196842F6635221F0E07141EA0A
:100CB0000C0141F40001196040F20C01C2F2000184
:100CC0000968C0F23E528909A1FB0212910901EBA9
:100CD00041010C2202EB81010091009941B300997E
:100CE00001390091009929B30099013900910099C7
:100CF00011B30099013900910099F9B100990139B6
:100D00000091009900294FF00001E8D109E000BFEF
:100D1000196821F0E07141EA0C0141F0807119601D
:100D20000021002280F85020084601B0F0BD00BF2D
:100D30000021F6E70021F4E70021F2E70021F0E7C7
:100D40000C0000001200000018000000000100006C
:100D5000704700007047000070470000F0B581B098
:100D6000016804460E684F68B0070FD517F00200FF
:100D70000CD0606DC00603D4606D40F40060606507
:100D80002046FFF725FE216802200860700702D583
:100D900017F0040004D1300734D517F0080031D023
:100DA000204650F8542FD20603D4026842F4007251
:100DB0000260CA6812F4406F1ED1CA6892041BD444
:100DC0000A68120718D58A6852070BD44A6822F0BD
:100DD0000C024A60016821F4807101600168C90455
:100DE00006D509E0606D40F01000606504F1580020
:100DF000016841F0010101602046FFF7A9FF216869
:100E00000C200860B00602D517F0200004D170064F
:100E100017D517F0400014D0204650F8542FD206B2
:100E200003D4026842F400520260CD6CCB68CA68F9
:100E300015F0C00F64D02046FFF7CCFD216860207C
:100E4000086030060CD517F0800009D0606D40F4C2
:100E500080306065204600F07FF9216880200860BE
:100E6000F0050DD517F480700AD0606D40F40030A5
:100E700060652046FFF7B2FD21684FF4807008607E
:100E8000B0050DD517F400700AD0606D40F48020D5
:100E900060652046FFF7A4FD21684FF400700860EC
:100EA000F00615D517F0100012D0606B10B1C868AD
:100EB000C0070BD0606D40F480606065A06D40F0AD
:100EC0000200A0652046FFF747FF21681020086058
:100ED000700513D517F4806010D0606D4FF48062F8
:100EE00040F480406065A06D40F00800A065204699
:100EF0000A6001B0BDE8F040FFF76EBD01B0F0BD83
:100F0000950105D503F4406302F400555B1992D1B5
:100F10000B685B067FF58FAF12F400127FF48BAF86
:100F20008A6812070CD44A6822F060024A6001689D
:100F300021F4805101600168C9053FF57CAF05E0EF
:100F4000606D40F01000606504F15800016841F0E8
:100F5000010101606FE70000B0B582B004460020D7
:100F600001904CB1606D58B121688868800012D43E
:100F70008868C00019D54CE0012002B0B0BD00BFA8
:100F8000204600F0EBF80020A06584F850002168AE
:100F900088688000ECD588684FF6C072C5F6FF728D
:100FA000104088608868C00033D44FF6C0728868EB
:100FB000C5F6FF7202F18052104000F18050886047
:100FC00040F20C00C2F20000006842F66352800951
:100FD000C0F23E52A0FB02029009022202EB400046
:100FE00001900198A8B100BF0198013801900198C3
:100FF00078B1019801380190019850B101980138F9
:101000000190019828B101980138019001980028B9
:10101000EAD18868C00009D4606D40F010006065B6
:10102000A06D40F00100A065012000E000208A686A
:10103000636D02F0040203F01003D218626D71D1E7
:1010400022F48172023262658A68D20712D140F2BC
:1010500008324FF60053C5F20402CFF6FF73D3589F
:10106000DB0707D1D4F804C0136823F47C1343EAE8
:101070000C031360627E636B43EA4232D4E902C31D
:101080001A4394F8203042EA0C02012B42EA034250
:1010900007D1D4F824C00023CFF6FE7303EB4C43F2
:1010A0001A43A36A33B103F47073D4F82CC01A4303
:1010B00042EA0C02D1F80CC04CF20703CFF6F073F1
:1010C00003EA0C031A43CA608A688B6802F00402C0
:1010D00003F00803D2182ED194F83030227E5B0042
:1010E00094F838C043EA823ECB6844F2020223EA15
:1010F000020242EA0E02CA600A69BCF1010F17D16E
:1011000040F2FD7322EA030CD4E90F32D4E911E571
:1011100043EA0C031A4342EA0E022A4342F0010258
:1011200008E000BF42F010010120616502B0B0BDCF
:1011300022F001020A6122690B6B012A23F00F02DF
:1011400002D1E369013B1A430A63616D012262F334
:101150000101616502B0B0BD7047000070B59EB07E
:1011600004460020CDE91C0002A820303C21FFF7F6
:1011700064F820680021C5F20401884202D01EB044
:1011800070BD00BF4FF4804002904FF08050169029
:101190001220059007200690022007900620089054
:1011A0004FF080700125099002A8CDE9035500F0A9
:1011B000BDFB002818BFFFF705FC41F24C00C4F24C
:1011C00002000168002641F400510160016801F449
:1011D000005101910199016841F00201016000682C
:1011E00019A900F00200019001980B201A9040F21A
:1011F0000040C4F6000019951B9600F0A9F940F2D2
:101200007C050820C2F20005C4F202008021C5E975
:10121000000605F110004FF400724FF400634FF028
:10122000200C80E80E104FF4005028622846C5E9D3
:10123000026600F0C1F8002818BFFFF7C3FB1220B8
:1012400000210022E564AC6200F0E6FA122000F012
:10125000D3FA1EB070BD000070B504460068806807
:10126000400703D494F85000012801D1022070BD3A
:10127000012084F85000204615460E46FFF71CFB5F
:1012800020B1002184F8501070BD00BF606D40F6A1
:101290000171884300F580706065606D40F635032C
:1012A000C0044FF0000044BFA06D20F00600A06510
:1012B000E06C40F6B1012268C0F60003C0F6000100
:1012C00040F6990E4FF0000CC0F6000EC0E90B314D
:1012D0001C21C0F834E0116084F850C051682B46DE
:1012E00041F010015160D16841F00101D16002F17B
:1012F0004001324600F0C6F821684FF6C0738A6894
:10130000C7F6FF731A4004328A6070BDB0B5D0E9E9
:1013100010C30268DCF8001003F01C030424D2F8A8
:1013200000E09C400C4218BF1EF0040522D10224AC
:101330009C400C4218BF1EF0020529D1D940090774
:1013400024D51EF0080108BFB0BD116821F00E01C0
:101350001160012101FA03F2CCF80420C16380F886
:101360002510416B002280F8242079B1BDE8B040FF
:10137000084700BF1168890603D4116821F00401F1
:101380001160CCF80440016B0029EFD1B0BD00BF63
:101390001168890606D4116821F00A011160012143
:1013A00080F82510CCF80440C16A0022002980F89A
:1013B0002420DBD1EAE70000002804BF01207047A9
:1013C0002DE9F04740F2000CC4F2020C02684FF61F
:1013D000F8310CF5816ECBF6FD71724538BF01F521
:1013E00080614CF6CD431144CCF6CC43A1FB0313F2
:1013F0006FF003010CF5806701EA930A4FF00203D6
:10140000D0E90249D0F810803CBF0027C4F202079F
:10141000C0E9107A80F82530136847F6F077BB43AF
:101420002343D0E9057643EA090343EA0803D0E9F8
:1014300007513B4333432B431943B4F5804F1160AD
:1014400015D04FF495640AF01C010F23724538BF84
:10145000A8245CF804208B409A434CF8042042688E
:101460005CF8043002FA01F119434CF80410002131
:101470000122C16380F8252080F82410BDE8F047E0
:1014800008467047F0B590F824C0BCF1010F36D083
:101490004FF0010E80F824E090F825C0BCF1010F58
:1014A0002AD14FF0020C80F825C04FF0000CC0F894
:1014B0003CC0D0F800C08468056B066CDCF8007096
:1014C000102C27F00107CCF80070406C00F01C00D5
:1014D0000EFA00F070600846CCF8043004BF1046E5
:1014E0000A46CCF80800CCF80C20DCF800004DB11E
:1014F00040F00E000EE000BF002180F82410022012
:10150000F0BD00BF20F00400CCF80000DCF80000C3
:1015100040F00A00CCF80000DCF8000040F00100C8
:10152000CCF800000020F0BDB0B5044600F000F992
:10153000054640F20400C2F200000078611C18BFAA
:10154000044400BF00F0F4F8401BA042FAD3B0BD41
:101550002DE9F04F84B08E4641F20002C4F600023D
:10156000DEF8004007219042019008BF0421002CC2
:10157000009100F0D7800198002500F138424FEA31
:10158000B2230098012700264FF00008042B38BF33
:1015900018460090CDF808E00EE000BFDEF80040ED
:1015A00008F1010834FA07F106F1020607F1010714
:1015B00005F1040500F0B680A7F1010A012000FA48
:1015C0000AF314EA0309E9D0DEF804C00CF0030BB7
:1015D000ABF10104012C17D80198744681680322ED
:1015E000E468B2409143B4402143816041684FEACE
:1015F000480E9943CCF3001303FA0AF30446D04390
:10160000194361600CE000BF0321B140019CC84355
:10161000BBF1030FB64603D1B6464FF0030B23E0F0
:10162000E168029A01409368BBF1020F03FA0EF3DE
:1016300041EA0301E16017D16FF0030101EA5A01A9
:10164000214405F01C040F23D1F820C003FA04FB49
:1016500013692CEA0B0CA34043EA0C03019C0B62B8
:10166000D2F804C00CF0030B21680BFA0EF2014013
:1016700011432160DDF808E01CF4403F8ED041F2B8
:101680006000C4F20200016840F2004C41F0010128
:1016900001600168C4F2010C01F00101039103999A
:1016A0002AF003014FF6084A6144CFF6FF7A05F0AD
:1016B0000C030F2051F80A2000FA03F40098A2430B
:1016C00000FA03F31A4341F80A20DCF80810DEF8A8
:1016D000042041EA090340F20C40D40258BF21EA39
:1016E0000903CCF80830C4F201000168940241EA11
:1016F000090358BF21EA09030360DCF804109403CE
:1017000041EA090358BF21EA0903CCF80430DCF8A8
:101710000010D20341EA090358BF21EA0903CCF8BB
:1017200000303BE704B000F000B830BCBDE8C08F2B
:1017300040F24810C2F200000068704740F2040016
:1017400040F24811C2F20000C2F2000100780A68BB
:10175000104408607047000080B5032000F088F84E
:101760000F2000F009F800281CBF012080BD00F008
:1017700029F8002080BD000070B540F20406C2F2D6
:1017800000063178E1B1044640F20C00C2F20000DC
:101790004FF47A720068B2FBF1F1B0FBF1F000F0A7
:1017A000D1FF0F2C4FF0010508D838B94FF0FF30AA
:1017B00021460022002500F02FF87460284670BDF5
:1017C000012070BD82B041F25800C4F2020081686D
:1017D00041F001018160816801F0010101910199ED
:1017E000016841F080510160006800F08050009075
:1017F000009802B070470000002848BF704700F012
:101800001F01012202FA01F14EF200124009CEF24C
:10181000000242F82010704710B54EF60C5CCEF274
:10182000000CDCF80030C3F3022E8EF00704042C09
:1018300028BF0424BEF103034FF0FF3E0EFA04F468
:1018400038BF0023A14399400EFA03F39A43114392
:1018500000F00F02043A624409010C3200F16043C7
:10186000B0F1FF3FC8BF03F56442117010BD000026
:101870004EF60C51CEF200010A684FF6FF031A40F3
:1018800060F30A2242F0806040F0FD70086070470B
:1018900047F20001C4F200010A68B0F5007F02F4CB
:1018A000C06031D1B0F5007F2CD00868012262F30E
:1018B0004A20086040F20C00C2F2000000683222A8
:1018C00050434DF68362C4F21B32A0FB0202900C1F
:1018D0004A69520511D5421C0FD04A6952050CD5F0
:1018E00058B14A69520508D5012806D04A695205FF
:1018F00003D50228A0F10400EAD14869400544BF9D
:101900000320704700207047B0F5806FFAD0086858
:10191000022262F34A2008600020704747F200006C
:10192000C4F20000006800F4C06070472DE9F04385
:1019300081B00446407841F288070007C4F20207EC
:1019400021D5606C80B1B0F5400F15D0B0F5000F17
:1019500040F02A8157F87C0C40F4803047F87C0C2A
:101960004FF400000AE000BF201D002101F0AEF896
:10197000814650B9606C01E04FF44000396821F4B1
:101980004001084338604FF00009A078800751D526
:1019900057F8300C10F080580BD157F8300C40F04D
:1019A000805047F8300C57F8300C00F08050009011
:1019B000009847F20005C4F20005286840F48070E2
:1019C0002860FFF7B5FE06462868C00508D4FFF773
:1019D000AFFE801B0228F7D94FF0030921E000BFBA
:1019E000B9F1000F1DD1B86810F4407011D0A16D8D
:1019F00088420BD0B868B96820F4407041F4803157
:101A0000B960B96821F48031B960B860C00740F0AE
:101A1000D380B868A16D20F4407008434FF00009EE
:101A2000B860B8F1000F05D157F8300C20F08050A5
:101A300047F8300C2168C80712D1880718D4480726
:101A40001ED4880624D488052AD4480530D44806F4
:101A500036D408063CD4C80542D4080348D459E01B
:101A60003868226A20F00300104338608807E6D502
:101A70003868626A20F00C00104338604807E0D5EF
:101A80003868A26A20F03000104338608806DAD542
:101A90003868E26A20F44060104338608805D4D585
:101AA0003868E26B20F44020104338604805CED5FA
:101AB0003868226C20F44010104338604806C8D5BE
:101AC0003868226B20F44050104338600806C2D5B5
:101AD0003868626B20F4404010433860C805BCD5BC
:101AE0003868A26B20F4403010433860080311D5E9
:101AF0003A68A06C22F040620243B0F1806F3A6015
:101B00001ED0B0F1006F05D157F87C0C40F4801066
:101B100047F87C0C480327D53A68E06C22F0406215
:101B20000243B0F1806F3A6016D0B0F1006F1BD164
:101B300057F87C0C40F4801047F87C0C14E000BF90
:101B4000201D012100F0C2FF2168002818BF814636
:101B50004803E1D408E000BF201D012100F0B6FFDA
:101B60002168002818BF8146480410D53868226DC6
:101B700020F040501043B2F1805F386007D1201D43
:101B8000022100F0A3FF2168002818BF8146080445
:101B900005D53868616D20F08040084338604846BC
:101BA00001B0BDE8F08300BF4FF00109A0788007C5
:101BB0003FF5EEAE3EE700BFFFF7BAFD064641F245
:101BC00088354FF0030900BFB86880073FF521AFA3
:101BD000FFF7AEFD801BA842F6D922E72DE9F043BE
:101BE00081B000286BD042F20008C4F2020804461B
:101BF000D8F800000D4600F0070088420CD2D8F853
:101C0000000020F007002843C8F80000D8F80000C2
:101C100000F00700A84252D1206841F2080910F0F4
:101C20000201C4F202090DD0A268D9F8003003F015
:101C3000F0039A4206D9D9F8003023F0F0031A4392
:101C4000C9F80020C2072DD169B1A168D9F80020D8
:101C500002F0F002914206D2D9F8002022F0F00200
:101C60001143C9F80010D8F8001001F00701A9428B
:101C70000CD9D8F8001021F007012943C8F800104A
:101C8000D8F8001001F00701A94218D141071BD470
:101C9000000723D4D9F80000D9F8041010F00C0084
:101CA0002CD131E0606800285ED0022800F07E80F0
:101CB000032840F0818059F8081C890158D401207C
:101CC00001B0BDE8F08300BFD9F80010E26821F44C
:101CD000E0611143C9F800100007DBD5D9F8000016
:101CE000216920F4605040EAC100C9F80000D9F829
:101CF0000000D9F8041010F00C0005D00C2829D1F0
:101D000001F00301012925D159F8081C090703D462
:101D1000D9F88C10090A02E059F8081C090943F6A1
:101D2000E43201F00F01C0F6000252F82110002841
:101D30000A4618BF00220C2871D1D9F8040000F01F
:101D40000300022846D0032804BF41F20021C0F25C
:101D50007A0143E0042857D008285BD141F20022E1
:101D6000C0F27A025BE000BF59F8081C8907A6D5CB
:101D7000D9F8001021F003010843C9F80000FFF76B
:101D8000D7FC064641F28837D9F80000616800F0B8
:101D90000C00B0EB810F15D0FFF7CAFC801BB842D6
:101DA000F2D9032001B0BDE8F08300BF59F8081C48
:101DB00089037FF584AFDBE759F8081C49057FF5F7
:101DC0007EAFD5E7206800F0020100297FF43DAF27
:101DD00049E700BF42F20041C0F2F401D9F8040023
:101DE000D9F80420C0F30210C2F306225143D9F8F7
:101DF00004200130B1FBF0F0C2F34161022202EB9A
:101E00004101B0FBF1F20AE042F20042C0F2F402FA
:101E100005E000BF002200210C283FF48EAFD9F866
:101E2000000043F6CC31C0F30310C0F60001085C9B
:101E300000F01F0022FA00F140F20800C2F2000098
:101E400040F20C020068C2F20002116001B0BDE86D
:101E5000F043FFF791BC000040F20C0041F2080192
:101E6000C2F20000C4F202010068096843F6DC32E5
:101E7000C1F30221C0F60002515C01F01F01C8400D
:101E80007047000040F20C0041F20801C2F200006D
:101E9000C4F202010068096843F6DC32C1F3C221D2
:101EA000C0F60002515C01F01F01C84070470000FD
:101EB00041F20C01C4F2020151F8040C10F00C02C2
:101EC000086805D00C2A29D100F00300012825D18B
:101ED00051F80C0C000703D4D1F88800000A02E086
:101EE00051F80C0C000943F6E43300F00F00C0F683
:101EF000000353F82030002A184618BF00200C2A8F
:101F000018BF7047086800F00300022810D00328AB
:101F100004BF41F20023C0F27A030DE0042A1FD06F
:101F2000082A23D141F20020C0F27A00704700BF96
:101F300042F20043C0F2F40308680A68C0F30210DA
:101F4000C2F30622096801305A43B2FBF0F0C1F334
:101F50004161022202EB4101B0FBF1F0704700BF8A
:101F600042F20040C0F2F400704700BF002000239E
:101F7000C5E700002DE9F04383B0002800F0388366
:101F800041F200060446C4F20206B068F168227805
:101F900000F00C09D00601F003081DD42078C0071A
:101FA00000F08180B9F1080F76D0B9F10C0F08BFAD
:101FB000B8F1030F70D06068B0F5803F07D0B0F57E
:101FC000A02F40F04B82306840F4802030603068B1
:101FD00040F4803030604CE2B9F1000F1ED0B9F10E
:101FE0000C0F08BFB8F1010F18D0A16930680029A3
:101FF00000F0968140F001003060FFF799FB054644
:102000003068800700F19E81FFF792FB401B022899
:102010004FF00300F4D903B0BDE8F08330688007C7
:1020200003D5A069002800F0E382256A3068000724
:1020300000F13E81D6F89400000900F0F0008542DE
:1020400000F23C813068B9F1000F40F008003060C8
:10205000306820F0F00040EA050030607068E16907
:1020600020F47F4040EA0120706040F0AF82B06D04
:10207000C00000F14B82B06D40F08050B065B06D93
:1020800000F0805002900298FFF748FCB16D21F0FB
:102090008051B1653CE200BF3068800303D56068C1
:1020A000002800F0A582207880072DD5B9F1040F13
:1020B0001CD0B9F10C0F08BFB8F1020F16D0E168BF
:1020C0003068002900F0E48140F480703060FFF750
:1020D0002FFB0546306840050FD4FFF729FB401B56
:1020E00002284FF00300F5D995E700BF306840059E
:1020F00003D5E068002800F07B827068216920F039
:10210000F85040EA016070602078000760D42078C1
:10211000400775D42078800600F1AE80A06A0028C0
:1021200000F00C83022840F01F81F068E16A00F0A3
:1021300003028A4240F03081226B6FF00F0300F0FF
:10214000700103EB0212914240F02681616B00F4B2
:10215000FE42B2EB012F40F01F81A16B00F07842EC
:10216000B2EBC16F40F01881E26B0023CFF6E07351
:1021700003EB025200F4C0016FF31402914240F0ED
:102180000B81216C4FF07E4202EB016100F0C060D8
:1021900001F07E41884240F0FF803068800100F10C
:1021A000CD82306840F080703060F06840F0807020
:1021B000F060FFF7BDFA04463068800100F1BE828E
:1021C000FFF7B6FA001B02284FF00300F4D922E70C
:1021D0006169D6F89400002900F08C8040F001007D
:1021E000C6F89400FFF7A4FA054600BFD6F894009D
:1021F00080078CD4FFF79CFA401B0228F6D929E10E
:10220000B06D10F0805808D1B06D40F08050B065CE
:10221000B06D00F080500090009847F20007C4F2C3
:1022200000073868C00513D4386840F480703860FF
:10223000FFF77EFA054600BF3868C00508D4FFF7EF
:1022400077FA401B02284FF00300F5D9E3E600BF00
:10225000A068012808D0052840F0DE80D6F890005C
:1022600040F00400C6F89000D6F8900040F001005D
:10227000C6F89000DFE000BF616AD6F89800002938
:1022800000F0B48040F00100C6F89800FFF750FA63
:10229000054600BFD6F8980080073FF53FAFFFF72F
:1022A00047FA401B02284FF00300F3D9B3E600BF02
:1022B000306800F0F00085427FF6C4AEB06DC0001B
:1022C00000F18680B06D40F08050B065B06D00F0D8
:1022D000805001900198FFF721FBB16D21F08051F2
:1022E000B165B0F5007F79D0802D40F2E380032006
:1022F000EBE000BF20F00100C6F89400FFF718FAE9
:10230000054600BFD6F8940080077FF500AFFFF7C1
:102310000FFA401B02284FF00300F3D97BE600BF01
:1023200020F001003060FFF703FA054630688007AF
:102330007FF534AEFFF7FCF9401B02284FF0030095
:10234000F4D968E6306840F0080030603068D4E9BD
:10235000072120F0F00008433060706820F47F40CF
:1023600040EA0220706019E6B9F10C0F00F04081DC
:10237000306820F080703060FFF7DAF9044600BF63
:102380003068800140F1EE80FFF7D2F9001B02288F
:102390004FF00300F4D93EE6B9F10C0F00F02881AC
:1023A0003068400100F12481306820F08070306096
:1023B000FFF7BEF905463068800140F18181FFF7E3
:1023C000B7F9401B02284FF00300F4D923E600BF01
:1023D000FFF7A4FAB0F5007F7FF486AF812D73D3A9
:1023E0000120A02D88BF02206FE000BF20F0010077
:1023F000C6F89800FFF79CF9054600BFD6F898008C
:1024000080077FF58BAEFFF793F9401B02284FF052
:102410000300F3D9FFE500BFD6F89010002821F0A3
:102420000101C6F89010D6F8901021F00401C6F80A
:10243000901000F07B80FFF77BF9054641F288376A
:10244000D6F89000800700F18380FFF771F9401BF8
:10245000B842F5D9032003B0BDE8F0833168002805
:1024600021F480313160316821F48021316000F045
:102470008580FFF75DF90546306880033FF513AEB0
:10248000FFF756F9401B64284FF00300F4D9C2E56A
:1024900020F480703060FFF74BF905463068400546
:1024A0007FF532AEFFF744F9401B02284FF00300DE
:1024B000F4D9B0E5A5F17000B0FA80F04009802DA4
:1024C00008BF022001E000BF002042F20001C4F278
:1024D00002010A6822F0070202440A60096801F05A
:1024E0000701814240F08480306840F0080030608D
:1024F0003068D4E9072120F0F000084330607068AC
:1025000020F47F4040EA022070605FE0FFF706FAA7
:10251000B0F5007F06D1812D40D30120A02D88BFCA
:10252000022045E0802D3BD9032041E0FFF700F970
:10253000054641F28837D6F89000800708D5FFF7A6
:10254000F7F8401BB8424FF00300F4D963E500BF31
:10255000B8F1000F7FF4DEADB06D20F08050B065B3
:10256000D8E500BFF0684FF6FC71CFF6EE61084089
:10257000F060002003B0BDE8F08300BFFFF7D8F89B
:102580000546306880037FF58EADFFF7D1F8401B1C
:1025900064284FF00300F4D93DE500BF002007E0B8
:1025A000A5F17000B0FA80F04009802D08BF02202C
:1025B00042F20001C4F202010A6822F0070202445A
:1025C0000A60096801F00701814211D1B068F16821
:1025D00010F00C0005D00C282AD101F003010129CC
:1025E00026D13168090707D4D6F89410090A05E006
:1025F000012003B0BDE8F0833168090943F6E432F5
:1026000001F00F01C0F6000252F8211000280A461E
:1026100018BF00220C2837D1F06800F00300022810
:1026200010D0032804BF41F20021C0F27A010DE06E
:1026300004281FD0082823D141F20022C0F27A02D8
:1026400022E000BF42F20041C0F2F401F068F268FB
:10265000C0F30210C2F306225143F2680130B1FB0D
:10266000F0F0C2F34161022202EB4101B0FBF1F252
:102670000AE000BF42F20042C0F2F40204E000BFF0
:10268000002200210C28C7D0B06843F6CC31C0F33B
:102690000310C0F60001085C00F01F0022FA00F1F0
:1026A00040F20800C2F2000040F20C020068C2F2E0
:1026B00000021160FFF760F800287FF4ACAC6DE415
:1026C000F06848F28C01C0F29D1104F12C0700EA79
:1026D000010C8ECF6FF00F00D4E90F5400EB021005
:1026E0000022CFF6E07241EA0C0102EB05520843EA
:1026F0006FF314024FF07E4540EA032005EB0465BA
:10270000104305F07E4540EAC7602843F06030681A
:1027100040F080703060F06840F08070F060FFF74B
:1027200007F804463068800108D4FFF701F8001B61
:1027300002284FF00300F5D96DE400BF002003B07C
:10274000BDE8F083411E0020B0EB116F1CBF0120DB
:1027500070474EF21002CEF2000251604EF6235145
:10276000CEF20001F0230B700721906011607047DA
:10277000B0B582B0A0B10446806F28B9002084F8BB
:102780007400204600F056F82420A06720680168F5
:1027900021F001010160204600F0D0FA012803D1A8
:1027A000012002B0B0BD00BF606A10B1204600F049
:1027B00051FA2068416821F490414160816821F01C
:1027C0002A018160016841F0010101600020C4F824
:1027D0008000FEF7ADFF216805460A6812070CD598
:1027E0006FF07E4C20464FF4001100222B46CDF8AE
:1027F00000C000F0BBFB78B92168086840070FD51E
:102800006FF07E4C20464FF4800100222B46CDF81D
:1028100000C000F0ABFB18B1032002B0B0BD00BF98
:102820002020A067E0670020206684F8740002B0D2
:10283000B0BD000010B59CB0044668460430582175
:10284000FDF7FBFC206844F20041C4F2000188421D
:1028500002D01CB010BD00BF022468460094FFF7F0
:1028600065F8002818BFFEF7ADF841F24C00C4F23D
:102870000200C16841F40031C160C16801F4003157
:1028800017911799016841F001010160006817A9CB
:1028900000F00100179017980C20CDE917040020D4
:1028A000199003201A9007201B904FF09040FEF7DC
:1028B0004FFE1CB010BD00002DE9F04381B004466E
:1028C000806F20280BD10E4600294FF001005CD00C
:1028D0001746002A59D094F87400012804D1022028
:1028E00001B0BDE8F08300BF012084F874004FF010
:1028F000000921201D46C4F88090A067FEF718FF4C
:10290000A4F85070A4F85270A1680746B1F5805F32
:1029100008D1206900281CBF30464E46B046064606
:1029200002E000BF4FF0000884F8749009E000BF97
:1029300016F8010B21680885B4F852000138A4F894
:102940005200B4F8520088B12046802100223B4654
:10295000009500F00BFB88B9002EE9D138F8020B86
:1029600021686FF35F2008850026E5E720464021B7
:1029700000223B46009500F0F9FA18B1032001B09F
:10298000BDE8F0832020A067002001B0BDE8F083FF
:10299000FEE70000B0B586B040F218000021C2F298
:1029A0000000C5F2040100244FF4802280E81600E4
:1029B0004FF48071042501830121CDE90444C0E96D
:1029C00003444561C16180F82040C0E90A4480F8B1
:1029D0003010446380F83840FEF7BEFA002818BF74
:1029E000FDF7F0FF48F20000C3F6F060009006200B
:1029F0000190072002907F20CDE9030540F21800E6
:102A0000C2F2000069460594FDF7ECFF002818BFEC
:102A1000FDF7D8FF06B0B0BD80B582B041F24800E6
:102A2000C4F202000168002241F001010160006867
:102A3000002100F00100019001980B20FEF7ECFE50
:102A40000B2002B0BDE88040FEF7D6BE82B041F256
:102A50004C00C4F20200016841F00101016001680C
:102A600001F0010101910199016841F00201016049
:102A7000006800F002000090009802B0704700006B
:102A800080B540F2C40044F20041C2F20000C4F23A
:102A9000000100234FF00C0C4FF4E13280E80E00EF
:102AA000C0E90333C0E905C3C0E907334362FFF758
:102AB0005FFE002808BF80BDBDE88040FDF782BFF3
:102AC000FEE70000FEE7000070470000F0B581B0AF
:102AD00041F20007C4F20207FA680D469107044666
:102AE00014D0F868216800F0030088424FF001001C
:102AF00040F09F80002900F09C80F8686168C0F376
:102B000002100130884232D134E000BF206803282F
:102B10000CD0022816D0012829D13968012211F0E1
:102B2000020182EA510116D120E000BF3968890311
:102B300010D43968012211F4802182EA91410AD12E
:102B400014E000BF3968012211F4806182EA91210A
:102B500001D10BE00021FA68636822F073026FF084
:102B60000F0606EB031310431843F86011B1012060
:102B700001B0F0BD386820F080603860FEF7D8FD05
:102B8000064600BF3868000106D5FEF7D1FD801B60
:102B90000228F7D944E000BF012D0DD0F5B93869FE
:102BA00048F2FF01C0F2FF710840D4E9021240EA86
:102BB000012040EAC26022E048F2FF013869CFF606
:102BC000FF112269002301F1B461CFF6E0730840E0
:102BD000A16803EB02526FF314020DE0386948F26A
:102BE000FF016269CFF6FF114FF07E430840A168F4
:102BF00003EB026202F07E4240EA0120104338619A
:102C0000386840F080603860FEF792FD054600BFEE
:102C10003868000108D4FEF78BFD401B0228F7D965
:102C2000032001B0F0BD00BFA069396908433861D5
:102C3000002001B0F0BD000070470000FEF77EBD2F
:102C40004EF68850CEF20000016841F47001016038
:102C50007047000080B5416ACA070DD18A0716D4B3
:102C60004A071FD40A0728D4CA0631D48A063AD4A0
:102C70004A0658D542E000BF0268D0F828C0536821
:102C800023F4003343EA0C0353608A07E8D5026853
:102C9000D0F82CC0536823F4803343EA0C0353600C
:102CA0004A07DFD50268D0F830C0536823F4802388
:102CB00043EA0C0353600A07D6D50268D0F834C043
:102CC000536823F4004343EA0C035360CA06CDD58E
:102CD0000268D0F838C0936823F4805343EA0C03A9
:102CE00093608A06C4D50268D0F83CC0936823F488
:102CF000005343EA0C0393604A0614D50268D0F8E7
:102D000040C05368BCF5801F23F4801343EA0C03D2
:102D1000536008D1D2F804C0D0F844E02CF4C003CA
:102D200043EA0E035360090658BF80BD0168806CFA
:102D30004A6822F400221043486080BDB0B50546C1
:102D40002A69D5E9021300680A436969D5F81CE0CD
:102D50001143026846F6F314CEF6FF7441EA0E0101
:102D6000224011430160416848F2000C21F44051B7
:102D700019434160AA69C4F2000C60451CBF296A6E
:102D80000A438168102321F430611143816047F6C2
:102D9000FF71C4F20001884212DC44F20041C4F227
:102DA000000188421CD044F60001C4F200018842B0
:102DB0002CD141F28801C4F2020109680B091DE01F
:102DC000604515D043F60001C4F2010188421DD1CF
:102DD00041F28801C4F202010B6860A212E000BF58
:102DE00041F28801C4F2020109688B0806E000BFC5
:102DF00041F28801C4F2020109688B0A43F61442C9
:102E0000C0F6000203F0030152F82130604542F29F
:102E10000040C0F2F40015D0BEF5004F22D1082BBF
:102E20004FF0010100F29580DFE803F00654609353
:102E3000589393935E0000BFFFF70EF8002855D11A
:102E40004FE000BF082B4FF0010100F28280DFE865
:102E500003F0058023801B8080802100FEF7FCFFAB
:102E6000D0B914E0082B4FF0010100F27280DFE8C6
:102E700003F005535F70577070705D00FEF7ECFF54
:102E8000002855D14FE000BFFFF712F820B900210C
:102E90005FE000BF4FF400406A6802EB42018842E5
:102EA0004FF0010155D31303984252D8010E00028E
:102EB00010EB520041F100010023FDF783F94FF6BA
:102EC0000052A0F54071C0F20F0291423BD30121A4
:102ED0003FE000BFFEF7D6FF40B902E0FEF7E8FF93
:102EE00020B9002135E000BF4FF4004069684A086E
:102EF00002EB4000B0FBF1F04FF6EF72A0F11001D1
:102F0000914207D84FF6F0710140C0F342000844E7
:102F100019E000BF01211CE0FEF7B4FF40B902E058
:102F2000FEF7C6FF20B9002113E000BF4FF40040B8
:102F300069684FF6EF7200EB5100B0FBF1F0A0F1C1
:102F40001001914204D82968C860002101E000BF47
:102F50000121002208466A66AA66B0BD0100000091
:102F60000400000002000000080000002DE9F0410C
:102F7000044600681546C2690E461140891BB1FA25
:102F800081F14909A94240F0A080DDF81880B8F12C
:102F9000000F29D018F1010140F08080C169314053
:102FA000891BB1FA81F14909A94240F08E80C169BB
:102FB0003140891BB1FA81F14909A94240F085806D
:102FC000C1693140891BB1FA81F14909A9427CD11B
:102FD000C1693140891BB1FA81F14909A942DDD0AB
:102FE0000020BDE8F08100BFFEF7A2FB206850E89A
:102FF000000F216820F4D07041E80002BAB32068C5
:1030000050E8000F216820F4D07041E8000272B34C
:10301000206850E8000F216820F4D07041E80002D9
:103020002AB3206850E8000F216820F4D07041E8EE
:103030000002002ADAD11AE0206850E8020F216865
:1030400020F0010041E80202DAB1206850E8020FE6
:10305000216820F0010041E8020292B1206850E8A6
:10306000020F216820F0010041E802024AB1206805
:1030700050E8020F216820F0010041E80202002A16
:10308000DAD12020A06704F17C002021016000201B
:1030900084F874000320BDE8F08100BF1F4600BF24
:1030A000FEF746FBC01B4045A0D8206801684907D1
:1030B00044BFC1695FEA01510AD4C0693040801B36
:1030C000B0FA80F04009A842EAD00020BDE8F081C3
:1030D0004FF40061016200BF50E8000F216820F446
:1030E000D07041E80002C2B3206850E8000F2168A8
:1030F00020F4D07041E800027AB3206850E8000F55
:10310000216820F4D07041E8000232B3206850E812
:10311000000F216820F4D07041E80002EAB1206875
:10312000DAE700BF206850E8020F216820F00100B4
:1031300041E80202DAB1206850E8020F216820F06D
:10314000010041E8020292B1206850E8020F2168B4
:1031500020F0010041E802024AB1206850E8020F65
:10316000216820F0010041E80202002ADAD1202083
:10317000A067E06704F1800087E70000FEE7000039
:1031800080B582B08DF8070040F2C400C2F20000A2
:103190000DF1070101224FF6FF73FFF78DFB0020B1
:1031A00002B080BD0000000096B0FEF7D5FA05A879
:1031B00004302421FDF741F84FF40070FEF768FB5E
:1031C00020B1EFF3108072B6FEE700BF102060213F
:1031D000059001200D9102210B90CDE90F10119067
:1031E0002820129007200024CDE9130105A80C9493
:1031F0001591FEF7BFFE28B1EFF3108072B600BF45
:10320000FEE700BF0F2000900320CDE901046846CF
:103210000421CDE90344FEF7E1FC28B1EFF310806F
:1032200072B600BFFEE700BFFFF710FCFFF7F4FB2C
:10323000FFF7B0FBFFF724FC40F2100840F2180043
:10324000C2F20008C2F2000041460122FEF704F873
:103250009FED130B9FED141B56EC10AB54EC117B40
:103260000FF24C09B8F800502846FDF766F85246B0
:103270003346FCF7EDFF3A462346FCF7E9FFFDF73E
:103280007CF8C8F80400FDF765F802460B4648468E
:10329000294600F01BF84FF47A70FEF745F9E1E794
:1032A0006666666666660A40000000000000303F01
:1032B00061646356616C75653A2025642C20766FD5
:1032C0006C746167653A2025660A00000FB4054BEF
:1032D00010B503A9044A029800F0DEF810BC5DF8AE
:1032E00014FB0000813100080000002002E008C843
:1032F000121F08C1002AFAD170477047002001E070
:1033000001C1121F002AFBD1704700002DE9FF5FA9
:1033100082B00021DDE90430020DDDF840B0034346
:1033200018D044F61050A2F2FF32424315141198FF
:1033300001281FD0A5EB0B00401C5FEA000A4FF0EC
:1033400000064E4FDFF83891B046504615D5CAF109
:10335000000413E0119801244AA3012801D16FEA67
:103360000B010298119AC0E90031C0E9024206B08F
:1033700000F08EB8CBF10000DFE704460021404AA0
:10338000491842EB0450CDE9001012E0E00707D0E5
:1033900032463B4640464946FCF75AFF804689463E
:1033A00032463B4610461946FCF752FF06460F468A
:1033B0006410002CEAD1DDE90401DDE90023BAF153
:1033C000000F06DAFCF744FF42464B46FCF740FF8D
:1033D00005E0FDF766F942464B46FDF762F9044603
:1033E0000E460022284BFDF7E3F903D84FF0FF30DB
:1033F000014607E00022254B20463146FDF7A2F8A2
:10340000FDF7BEF9102409E0002C0ADB0A22002394
:10341000FCF7D8FE039B30321A55641E50EA0102B5
:10342000F2D1641C039AC4F111031444119A012AC5
:1034300003D0012208430DD10AE0084304D0002044
:103440004FF0110B119072E7A3EB0B056D1E0DE011
:103450005B4504DD4FF0000205F1010504E003DAED
:103460004FF00002A5F10105002AECD00298119955
:10347000C0E90231C0E9004579E7000000001440CE
:103480000000F03F300000000000F0430000E03F8B
:1034900030BCBDE8C09F00002DE9FF4F95B09B46B2
:1034A0008946064600250FE2252877D100242746C5
:1034B000F84A0121059400E0044316F8013F203B3F
:1034C00001FA03F01042F7D130782A2811D06FF0BA
:1034D0002F033078A0F13002092A16D8059A44F05B
:1034E000020402EB820203EB42021044761C0590B8
:1034F000EFE759F8042B0592002A03DA504244F40E
:103500000054059044F00204761C30782E2816D121
:1035100016F8010F44F004042A280DD06FF02F0292
:103520003078A0F13003092B09D807EB870302EBB1
:103530004303C718761CF3E759F8047B761C3078F0
:103540006C280FD006DC4C2817D068280DD06A28CC
:1035500014D104E0742810D07A280FD10DE044F47F
:1035600000140AE044F4801401E044F4401472783A
:10357000824202D104F58014761C761C30786628CD
:103580000BD013DC582877D009DC002875D04528EB
:10359000F6D04628F4D047281AD19DE118E06328D8
:1035A00035D0642879D0652812D195E1702873D080
:1035B00008DC6728F1D069286FD06E280DD06F28FD
:1035C00006D1B5E073282CD0752875D0782874D032
:1035D0005A46179990476D1C75E1C4F302500228B2
:1035E00009D003280DD0D9F8001004280DD00D60A3
:1035F00009F1040967E1D9F80010EA17C1E900529E
:10360000F6E7D9F800100D80F2E70D70F0E719F831
:10361000041B8DF8001000208DF80100EA460120FF
:1036200003E059F804AB4FF0FF3061074FF00001A1
:1036300002D40DE008F101018846B9420FDA804555
:10364000F8DB1AF808100029F4D108E008F10101AC
:1036500088468142FADB1AF808100029F6D105984D
:103660005B46A0EB080721463846179A00F097FA08
:10367000284400EB080507E04DE029E10DE01AF8C9
:10368000010B5A4617999047B8F10108F7D25B46EB
:1036900021463846179A13E142E00A220092C4F309
:1036A00002524FF0000A022A08D059F804CB032A2C
:1036B0004FEAEC710AD00DE029E02AE009F1070198
:1036C00021F00702F2E802C1914609E00FFA8CFCF2
:1036D0004FEAEC71042A03D14FFA8CFC4FEAEC71EB
:1036E000002907DA0A460021DCF1000C61EB020137
:1036F0002D2202E0220504D52B228DF80420012280
:1037000003E0E20701D02022F7E7904659E00A21C2
:1037100002E010220DE010214FF0000A00910BE0B2
:1037200010224FF0000A44F004040827009203E03E
:1037300008224FF0000A0092C4F30252022A05D078
:1037400059F804CB0021032A08D009E009F1070148
:1037500021F00702F2E802C1914605E01FFA8CFC55
:10376000042A01D10CF0FF0C4FF00008220728D5E5
:10377000702806D0009B83F0100353EA0A0305D09B
:103780000EE040228DF80420012208E05CEA0102EC
:1037900006D030228DF804208DF8050002229046D4
:1037A000009B83F0080353EA0A030AD15CEA010292
:1037B00001D1620705D530228DF804204FF00108B1
:1037C0007F1E582804D034A003900EA802900DE06C
:1037D00036A0F9E753466046009AFCF7F3FC8446AE
:1037E0000398825C0298401E029002705CEA01001D
:1037F000F0D1029806A9081A00F1200A600702D544
:1038000024F4803400E00127574502DDA7EB0A00CD
:1038100000E0002000EB0A01009005984144401AA6
:103820000590E00306D45B462146179A059800F000
:10383000B6F90544002706E001A85A46C05D17996D
:1038400090476D1C7F1C4745F6DBE0030CD55B46BB
:103850002146179A059800F0A2F9054404E03020AB
:103860005A46179990476D1C0099481E00900029F0
:10387000F5DC08E0029802995A460078491C02914A
:10388000179990476D1CBAF10001AAF1010AF1DC09
:1038900065E1000009280100303132333435363714
:1038A000383961626364656600000000303132338C
:1038B000343536373839414243444546000000002C
:1038C00000F05BF90544761C307800287FF4ECADFD
:1038D00019B0284600F04EB9620700D4062709F156
:1038E000070222F0070CFCE80223E14603F000483F
:1038F0005FEA080C02D00FF2702C0DE05FEA045C66
:1039000002D50FF2682C07E05FEAC47C02D00FF208
:10391000602C01E0AFF2700C4FF0FF3823F0004351
:10392000CDF850C065280CD006DC452809D04628C3
:103930001DD047283DD13DE0662818D067287ED1AC
:1039400038E00021112F01DB112000E0781CCDE9C7
:10395000000106A90EA8FFF7D9FCDDE90F010E9AB8
:1039600003910021009207F1010A04914DE04FF00C
:1039700000400097CDE9011006A90EA8FFF7C6FC8C
:10398000DDE90F0203920E9B11990022DDF80CA0D5
:103990000093049211B9791C00EB010AB7EB0A00FD
:1039A00004D4C0F1FF3007F1010A0490AAEB07002C
:1039B000019044E0012F00DA01270021112F01DDE1
:1039C000112000E03846CDE9000106A90EA8FFF756
:1039D0009DFCDDE90F010E9A0391002104910092F4
:1039E000BA4621070CD40399514500DA8A46BAF148
:1039F000010F05DD009AAAF10101515C302908D0C0
:103A0000B84202DA10F1040F06DA0121CDE9011003
:103A100015E0AAF10101E9E7002805DC0499014459
:103A20000491AAEB000102E0411C514500DD8A46E9
:103A30000499401A401C01904FF00040029020076A
:103A400004D40198504501DBCDF8048000208DF8A6
:103A50004F0002980DF14F07B0F1004F25D02B20F9
:103A60000E9002984FF0020800280CDA40420290B3
:103A70002D200E9007E00A210298FCF79AFC3031C5
:103A8000029007F8011DB8F10001A8F10108F2DC6D
:103A900002980028EFD1791E0E980870307800F057
:103AA000200040F0450007F8020D12A8C01B00F1ED
:103AB00007081498007800B1012000EB0A01019872
:103AC00001EBE07105984144401A401E0590E00367
:103AD00006D45B462146179A059800F060F8054425
:103AE0001498007818B15A46179990476D1CE00356
:103AF00024D55B462146179A059800F050F80544F6
:103B00001CE00498002807DBDDE90301884203DD9F
:103B10000098405C179901E0179930205A46904769
:103B2000049805F10105401C04900198401E019085
:103B300004D12E205A46179990476D1CBAF1000106
:103B4000AAF1010ADDDC05E017F8010B5A461799C6
:103B500090476D1CB8F10001A8F10108F4DC5B4648
:103B60002146179A0598ABE62D0000002B000000B7
:103B70002000000030BCBDE8C08F2DE9F0410446B4
:103B800000251E461746880404D405E03946202047
:103B9000B0476D1C641EF9D52846BDE8F0812DE9BB
:103BA000F041044600251E469046C80301D5302743
:103BB00000E02027880404D505E041463846B04798
:103BC0006D1C641EF9D52846BDE8F0810000000098
:103BD00000000000010203040607080900000000BD
:103BE00001020304A0860100400D0300801A0600B4
:103BF00000350C0040420F0080841E0000093D008B
:103C000000127A000024F40000366E010048E8013A
:103C1000006CDC0200000000040000000200000054
:103C200008000000483C00080000002010000000D0
:103C3000EC320008583C000810000020400500004D
:103C4000FC3200080000000000000000010000003D
:083C50001000000000093D0016
:040000050800018D61
:00000001FF
